:020000040000fa
:08800000004204000000000032
:020000040000fa
:10800800d2420000d2420000d2420000d242000018
:10801800d2420000d2420000d2420000d242000008
:10802800d2420000f4ee0000d24200005af00000f4
:10803800d2420000d2420000d2420000d2420000e8
:10804800c6ee0000d2420000d2420000d242000038
:10805800d2420000d2420000d2420000d2420000c8
:10806800d2420000d2420000d2420000d2420000b8
:10807800d2420000d2420000d2420000d2420000a8
:10808800d2420000d2420000d2420000d242000098
:10809800d2420000d2420000d2420000d242000088
:1080a800d2420000d2420000d2420000d242000078
:1080b800d2420000d2420000d2420000d242000068
:1080c800d2420000d2420000d2420000d242000058
:1080d800d2420000d2420000d2420000d242000048
:1080e800d2420000d2420000d2420000d242000038
:1080f800d2420000d2420000d2420000d242000028
:10810800d2420000d2420000d2420000d242000017
:10811800d2420000d2420000d2420000d242000007
:10812800d2420000d2420000d2420000d2420000f7
:10813800d2420000d2420000d2420000d2420000e7
:10814800d2420000d2420000d2420000d2420000d7
:10815800d2420000d2420000d2420000d2420000c7
:10816800d2420000d2420000d2420000d2420000b7
:10817800d2420000d2420000d2420000d2420000a7
:10818800d2420000d2420000d2420000d242000097
:10819800d2420000d2420000d2420000d242000087
:1081a800d2420000d2420000d2420000d242000077
:1081b800d2420000d2420000d2420000d242000067
:1081c800d2420000d2420000d2420000d242000057
:1081d800d2420000d2420000d2420000d242000047
:1081e800d2420000d2420000d2420000d242000037
:0881f800d2420000d242000057
:020000040000fa
:10820800d2420000d2420000d2420000d242000016
:10821800d2420000d2420000d2420000d242000006
:10822800d2420000f4ee0000d24200005af00000f2
:10823800d2420000d2420000d2420000d2420000e6
:10824800c6ee0000d2420000d2420000d242000036
:10825800d2420000d2420000d2420000d2420000c6
:10826800d2420000d2420000d2420000d2420000b6
:10827800d2420000d2420000d2420000d2420000a6
:10828800d2420000d2420000d2420000d242000096
:10829800d2420000d2420000d2420000d242000086
:1082a800d2420000d2420000d2420000d242000076
:1082b800d2420000d2420000d2420000d242000066
:1082c800d2420000d2420000d2420000d242000056
:1082d800d2420000d2420000d2420000d242000046
:1082e800d2420000d2420000d2420000d242000036
:1082f800d2420000d2420000d2420000d242000026
:10830800d2420000d2420000d2420000d242000015
:10831800d2420000d2420000d2420000d242000005
:10832800d2420000d2420000d2420000d2420000f5
:10833800d2420000d2420000d2420000d2420000e5
:10834800d2420000d2420000d2420000d2420000d5
:10835800d2420000d2420000d2420000d2420000c5
:10836800d2420000d2420000d2420000d2420000b5
:10837800d2420000d2420000d2420000d2420000a5
:10838800d2420000d2420000d2420000d242000095
:10839800d2420000d2420000d2420000d242000085
:1083a800d2420000d2420000d2420000d242000075
:1083b800d2420000d2420000d2420000d242000065
:1083c800d2420000d2420000d2420000d242000055
:1083d800d2420000d2420000d2420000d242000045
:1083e800d2420000d2420000d2420000d242000035
:0883f800d2420000d242000055
:020000040000fa
:108400002f4022000e5f22000e01880000000000b5
:10841000000020000000e000020032000001200007
:10842000200288000c000700c0482d000100200039
:108430000f000700000020000000e00002003200f2
:108440000000020000000000a8ed02000000000093
:108450000040da000000fe00a05f20000000e00005
:108460000200320020202000900188000000060059
:10847000a1028800800078000000eb001a0037009d
:10848000e280400054a0b4009101ba00e2804000b4
:1084900054a0b4009102ba00e280400054a0b4009d
:1084a0000002eb00472bde00f507b200a6018800b2
:1084b000602ce10008003a000049eb000201e800ee
:1084c000020039003420ec0002f0a0008301e90032
:1084d000f9ff3e00040037006128e100010032008e
:1084e0000082eb00040007001101ba000200e00066
:1084f000e3ff3a000000060004d0a300e20f4900a9
:108500001c003900810278003549ba000201e800f8
:10851000020039003420ec0002f0a0008301e900e1
:108520000f0032002549ba000201e80002003900bc
:108530003420ec0002f0a0008301e90008003200c2
:108540000400e0000600320015c9ba000201e8008c
:10855000020039003420ec0002f0a0008301e900a1
:108560008180e80054a0b4000300e000e2ff3a007c
:10857000000006009102ba00055978008301e90065
:10858000f7ff3200c82ade00055978008301e900b0
:10859000f3ff32000400e000f1ff320011d9ba000d
:1085a000eeff37000040da000000fe001004b100ca
:1085b000070035009001b100040034007000b100e4
:1085c000030035009001b10001003c0010000500df
:1085d000000005006900e100040035006d00e100c5
:1085e000030034000002b100010032000000050069
:1085f000100005001004b100030035009001b10027
:1086000001003c001000050000000500800078001b
:108610001104b100030035009101b10001003c00dc
:108620000050a000000006000a00fa000000e00070
:1086300029003a0003208100a34190000304e000d8
:1086400025003a0010368100e10f5000060032008c
:10865000e0512000c55120008451200063512000ca
:108660000000e00004003a00805020006550200027
:10867000245020000350200006002800130363004c
:1086800003003a00060878000000280093097000f3
:10869000020078000a0037008301e9001408a300f3
:1086a00002003a000300e000fbff3a001408a300b8
:1086b0000700320095017800835878000000e90037
:1086c0000000e00002003200030a2000f3ff370040
:1086d000000051000800370023002000b3bf9f00b6
:1086e000c0bf9f00d1bf9f00e2bf9f006a805700bc
:1086f000c31807006fb897000080fa00000006005a
:108700000a00fa00e20f500020003e0010368100ff
:10871000e10f500006003200e0512000a55120007a
:1087200083512000645120000000e00004003a0062
:10873000805020004550200023502000045020008d
:10874000060028001403630003003a0006087800be
:1087500000002800140a700013a8a30001003a00ca
:1087600013a0a00002007800050037001388a300c2
:10877000feff32003102fb00840a78000000e900ad
:108780000000e000f9ff3a00080037003300200045
:10879000b3bf9f00c0bf9f00d1bf9f00e2bf9f003b
:1087a0006a805700981807006fb997000200780098
:1087b0000080fa0000000600889fbe008a9fbe006d
:1087c00030044200b0844a0030054b0090854b00d5
:1087d0006000b1000898be000a90be000440e100ad
:1087e00005c8e10006d0e10007d8e1000200310031
:1087f000680040001008e8004f05be004f04be00ae
:1088000000000600889fbe008a9fbe003004be00a4
:108810002005be000418540005985c0006185d0091
:1088200007985d00110020000440e10005c8e10048
:1088300006d0e10007d8e100010039008000eb001c
:10884000108810004f05be004f04be000000060057
:108850001200fa00889fbe008a9fbe008c9fbe0057
:10886000e0b79f00f1b79f0082bf9f0093bf9f00ba
:108870000605be000404be000000eb00d0b79f0058
:10888000c0b79f00b0b79f00a0b79f0090b79f00f0
:108890000006eb005fb19700cfb097008201410066
:1088a0003fb097000200e00004003d0037000700e1
:1088b0007e805700c0ff0700030037003300070029
:1088c0007e805700cfff0700dfb697000d00e00065
:1088d0000c0035006fb29700ffb297000fbb9700f6
:1088e0009fbb970010002000010020006011b8001d
:1088f000000272008182720002037300838373009e
:108900001b0007000c06e80001042000810f560040
:10891000e0ff3a000d00e00004003d000802be0048
:108920000a03be007e805700a3ff07005fa89700e0
:108930000000e00005003a001fb29700afb29700b8
:108940003fb39700cfb39700090007006fb09700bf
:10895000ffb097000fb997009fb997004f06be0070
:108960004f05be004f04be000080fa000000060064
:108970000100070000000600a4b79f00b5b79f00e4
:10898000c6b79f00d7b79f00000006004f09de0062
:1089900082817100b3b79f004f01de0081804000eb
:1089a00082807000a1b79f008fb097004f09de0052
:1089b000000040000200700090b79f007fa8970061
:1089c0004f01de00818040008280700081b79f00ef
:1089d0000d0007004f3ade00000040000400700068
:1089e000f0af9f00080007000402420085824a00a1
:1089f00006034b0087834b00dfff07000802be0021
:108a00000a03be00000006002fb29700bfb2970015
:108a10004fb39700dfb3970000000600881f78006f
:108a200018002000881f780089ff07008f87e90061
:108a30004f04780000000600801feb0084ff070051
:108a40008f87e90000000600889fbe008a9fbe0055
:108a5000e00f5000e08f5800e00f5900e08f590000
:108a60000c003d006044b8006055b80000005400a0
:108a700081805c0002015d0083815d0018002000a0
:108a80001500070008003d00180007000004eb0077
:108a9000050037000004eb000f00070002003d0056
:108aa0001200070018002000dcff07000800e000ab
:108ab000060032006022b8006033b80000005200a7
:108ac00081805a0002015b0083815b004f05be007c
:108ad0004f04be0000000600e00f5200e08f5a0075
:108ae000e00f5b00e08f5b00000006006044b80010
:108af0006055b8000402540085825c0006035d00e6
:108b000087835d0000000600889fbe008a9fbe002c
:108b10008c1f7800e00f5000e08f5800e00f5900e4
:108b2000e08f59000d003d006044b8006055b8006a
:108b30000000540081805c0002015d0083815d00c3
:108b40001c0020000820e10009a8e1000ab0e100b3
:108b50000bb8e1000d003d00080037000006eb00f7
:108b6000e00f5200e08f5a00e00f5b00e08f5b00e7
:108b700006003d006044b8006055b800040254008f
:108b800085825c0006035d0087835d00aaff070005
:108b90000c00e000060032006022b8006033b8002c
:108ba0000000520081805a0002015b0083815b005b
:108bb0004f0678004f05be004f04be0000000600bf
:108bc0008001780002003700b15978000201e90005
:108bd0000200e000fcff3a0000000600800178007f
:108be00002003700815978000201e9000200e0002c
:108bf000fcff3a00000006000000fa006881570000
:108c0000cfb89700803e2200780607000080fa0067
:108c100000000600889fbe000004be00050037006b
:108c20000000fb008900780096100700e10f40006b
:108c300004003200384078000004e000f8ff3a00f9
:108c40000000eb004f04be0000000600881f780003
:108c5000813e2200efff070000047800813e2200e1
:108c6000a000200087100700080078004f0478005b
:108c700000000600000178008201780003017800fe
:108c80003204e000fcff3a0031417800825978005c
:108c90000204e000fcff3a0000000600000178003a
:108ca00002007800b041780081cf5100030032000b
:108cb0000304e000f9ff3a000001eb000200780035
:108cc00000000600b041780031c1510002003a00b6
:108cd0000304e000fbff3a000200fb000000060076
:108ce000800078003104e000feff3a000080ea00d6
:108cf0000080400000000600800178000600370078
:108d00000201e900b1427800855978000302780039
:108d10000504e00006003200030278000200e000d3
:108d2000f7ff3a0002003700005aeb000201e900a9
:108d30000200e000fcff3a00000006000c00fa0010
:108d4000889fbe0000047800f0ff2700d0bf9f007e
:108d50008004eb0099bf9f0088bf9f00a8bf9f00c1
:108d6000200c2000b0bf9f0078815700cfb0970043
:108d700070805700c70107000fb8970009487800b6
:108d80008fb89700088050004f04be000080fa00a2
:108d9000000006000c00fa00a0bf9f00c0bf9f00ab
:108da000cfff0700b0bf9f00f0bf9f00100c200056
:108db000d0bf9f0074815700efb097006c805700c0
:108dc000340007000080fa0000000600881f7800c9
:108dd00000368100ae0f070000047800080078001c
:108de000fcfd07000000e000f9ff3a00e10f44003d
:108df000030032000136810008007800641007008b
:108e00004f04780000000600889fbe008a1f78008b
:108e100000047800814478000205780000fd2f00ee
:108e200008004000e90f500002003e0000047800f6
:108e30001000370008007800eefd07000000e00099
:108e4000050032000a00e00003003200080078004c
:108e5000eefd07000004780008007800d3fd07004d
:108e60008000780000c0eb000100e0000600320046
:108e70007805b1008984fb0000c0eb00890f540025
:108e800001003d00084078004f0578004f04be0007
:108e900000000600f0874700889fbe008a9fbe0042
:108ea0008c9fbe008e1f7800010578008204780038
:108eb000003689000000eb00c0b79f00e0b79f00bc
:108ec0000044eb00600137000a05e8000b86fb0058
:108ed0000c007800bffd07000000e0000200320037
:108ee000baff07005501370050c2b30080cf5500cc
:108ef00043013a008046eb0021c0b3000d467800e4
:108f00000a00780001477800040037004ec0b30023
:108f1000010037002ec0b3000a007800ba4578007f
:108f200091c6b30081cf5500a30032001c003e0063
:108f3000e6c0500081cf55007700320011003e009e
:108f4000f7c0500081cf55002c00320006003e00d3
:108f50000b04e000bd003200a1c2b30081cf550078
:108f600082003a002300370081c5b30081cf55004d
:108f70007e003a000e407800b0ef9f001100200004
:108f80002500370041c6b30081cf55008a0032006a
:108f9000e4c0400081cf550074003a00ddff370087
:108fa000f1c6b30081cf55008700320007003e00b4
:108fb000e3c0500081cf55001000320081c0e800ae
:108fc00081cf550069003a001600370051c7b30041
:108fd00081cf550078003200e3c0400081cf5500ba
:108fe0000a003200e5c0500081cf55005f003a0012
:108ff0001c0037000c46e800c7ff3700e24f57005f
:10900000c2ff32008ec0b300c3ff37000e407800ad
:10901000b0ef9f008000eb00c1b79f0000c1b3001c
:109020006c0037008e407800b1ef9f000c04e00028
:1090300069003a008984e900e4cf500005003a0055
:1090400019007800efb097006109b9000288be00ee
:109050006100370019007800efb097000108780030
:109060005d00370059ff07000c04e00002003a00e1
:1090700049007800b0b79f0000368100040f070058
:1090800080057800e18f4500020032006fb797003d
:10909000140037000b007800e20037000e07e800ec
:1090a0001a00fb00808f550002003a000a05e80014
:1090b000130037000c04e00003003a00bfb0970033
:1090c0008b587800b1b79f00cfe8970001c04600e9
:1090d0008e4f50000a00320000368100ec0e07006f
:1090e000800578000b00e800e10f50000400360016
:1090f0000b00780037fd07000000e000e7ff3200ba
:109100000c04e000ce003a000844e8003fb09700ad
:109110000c487800ca0037000c04e00003003a0055
:109120000844e800c9007800b1b79f006fb7970006
:10913000bfb5970000368100d50e0700e10f400053
:10914000b80032000c04e00002003a000e07e8000c
:10915000805d78008d46e9004240a900f5ff3c00a3
:109160000b007800b0b79f00b50037008b85fb007f
:1091700001fd2f008b804000e98f500009003e0068
:1091800033040700804678008a00780001057800e3
:109190003100fb000003b100e90f5000fbff360077
:1091a0005dff370000368100b90e0700808f550043
:1091b00097003a00a10037008e407800b1ef9f0081
:1091c000a0c0b300030037008e407800b1ef9f00cd
:1091d00080c0b300a0ef9f00fcfe070000368100b6
:1091e000ab0e070080057800efb097008100e80023
:1091f000e1b79f000040eb00d0e79f00d0022000c5
:10920000808f550008003a0000368100a00e07004c
:1092100080057800efb097008100e800e1b79f007b
:1092200010c0b300d0e79f004fb19700afe89700a0
:109230000b007800f4fe0700e14f40000c003a00fc
:10924000013681000b007800510f07000804e00090
:1092500080003a0000368100b00090000000eb0072
:109260000148a3007c0032000080eb007a00370048
:1092700000032000808f550018003a00003681005e
:10928000830e070081072000810f500004003a0080
:10929000cfb097000100e000070032000d0037005a
:1092a00081052000810f50000a003a00cfb09700de
:1092b0000100e0000700320000368100740e070054
:1092c000800578006fb097000080e800e0b79f004d
:1092d00002003700013681002d0f07006022b80020
:1092e000c8e79f00090778000404be0001003700aa
:1092f000e3b79f00afe897000181fb008001eb001e
:109300000800be00491807000004be004fb19700d6
:10931000afe897000b007800bbfe07000080fb0061
:109320008000eb000004440081844c006fb0970083
:109330008001e8008d46e9000b0032000036810014
:10934000f3b79f00520e0700800578004fb19700d9
:10935000afe897000b007800abfe0700ffb1970065
:10936000e14f4000e2ff3a000802be004fe49700e0
:109370008e047800030778004fb19700afe897009c
:109380000b007800f4b79f0085bf9f009efe07008a
:109390007fb297008fba9700e14f400006003a0075
:1093a000013681000b007800f90e07006fb79700b7
:1093b0008fba97007fb29700dfe097000104e000ca
:1093c0000200320060021200e0821a000c04e00089
:1093d0001b003a000844e8008984e9003fe8970050
:1093e000e44f500003003a00190078000488be00e2
:1093f00013003700190078000408780010003700c7
:1094000000368100220e0700800f5600080032004f
:10941000e10f40000300320001368100dc0e07003e
:109420000c0037000804e0000a003a000a00370088
:109430006fb097000007e800010037006fb7970092
:109440008e007800e1b79f009a4578000b04e00099
:109450009dfe3a000880fb004f0778004f06be00d3
:109460004f05be004f04be000f01b1000000060012
:10947000d0019000028151004240a9000300340055
:1094800010017800014978000208e8000100780026
:10949000000006002f02b000889fbe008a9fbe0019
:1094a0008c9fbe008e1f780080067800d1af9f0091
:1094b00092b79f000007eb0044033700dfa8970036
:1094c0008100e800d1af9f0051c2b300814f50002e
:1094d00003003a005fa897000006eb001100370078
:1094e000bd0090000000fb000168a30007003200ef
:1094f0000e017800800078000d007800dcff070086
:109500000000e00005003a00300337008d007800cd
:109510005c0e0700e10f40002c0332000e07e8004c
:109520002a0337008000780030417800d3c2b300ae
:10953000834f51000c00320007003c00edc1510088
:10954000834f51000a003200ebc14100834f5100ac
:109550000d003a000800370003c3b300834f5100e9
:1095600009003a00060037000c30a000edff37007c
:109570000c00a000ebff37000c10a000e9ff370043
:109580000c20a000e7ff37000c18a30001003200f8
:109590000c00a1000c38a300010032000c20a10037
:1095a0000200fb000003b100e90f50000c003e0078
:1095b000010178000000eb006a00b900b201fb0075
:1095c0000303b10000804100820078009201fb009b
:1095d0000303b100e98f5100f7ff360008003700a0
:1095e0000000eb00a3c2b300834f510004003a0017
:1095f0001fb197004200780092b79f008100e800f9
:109600008001eb00a3b79f00e2c2b300914f1100ad
:109610000c003a000ce0a00064415100d14f110051
:1096200003003200010178000302780009003700ce
:109630001fb29700c402780094b79f00a5b79f009f
:109640008100e80001017800090037006a22b900b2
:109650000482410082007800b201fb000303b100e4
:10966000e98f5100f9ff3600a4b79f00f5ff3700de
:10967000b2407800d2af9f00c3c6b30083cf500082
:10968000250032000f003c0032c6b30082cf5000ec
:10969000a000320004003c000104e000d0023200cf
:1096a0006b4151000f00370042c6b30082cf50001b
:1096b000170032006541410082cf5000b3003a00ec
:1096c0001300370032c7b30082cf50001f003200b2
:1096d00007003c006441510082cf5000140032006a
:1096e0000241e80082cf5000a8003a001300370082
:1096f00052c7b30082cf5000ab003200634141003b
:1097000082cf5000a1003a00a1d79f000d00370082
:10971000a1d79f00a6003700010120000c48a3003c
:1097200001003200010028000c867000d0ff3700d5
:10973000a1d79f000c60a0009d003700a1d79f001b
:109740000c50a0000c70a00099003700a1d79f001a
:109750009fb39700c700780097b79f00b1b79f00ed
:109760000100e00002003a00e90a2200b9b79f00b8
:109770003fb197008000eb00010037008100e80056
:10978000e2c178000304e000fcff3a00c1b79f008b
:109790002fb597000a00e00005003200cfb5970012
:1097a0008b0f5500020031008a007800c1b79f007e
:1097b000cfb097000004eb00810f5000010036008d
:1097c00001045000680666002b003a0011003700c3
:1097d0003d0090000068a300070032000e017800f1
:1097e000010220000d00780021ff07000000e000ca
:1097f00006003a00060037008d00780000022000c5
:10980000a00d0700e10f4000010032000e07e80044
:109810000804e9000800e000edff3a000084eb00d6
:10982000150037003d0090000068a30009003200d9
:1098300008007800b000fb00000478000e017800fa
:109840000d0078000aff07000000e00008003a0061
:109850000f003700880078003100fb000104780019
:109860008d007800870d0700e10f400008003200ee
:109870000e07e80006003700acb79f000806780026
:109880003fb49700cfb497005fb59700efb597004e
:10989000090078008004e9000000e000e1ff3a00e0
:1098a000b8b79f00c9b79f00dab79f00ebb79f001a
:1098b0000c0478002fb697000c00e0004302320041
:1098c000110037003d0090000068a300070032003f
:1098d0000e017800010220000d007800e4fe070070
:1098e0000000e00006003a00060037008d00780016
:1098f00000022000630d0700e10f4000010032006c
:109900000e07e8000804e9000800e000edff3a0057
:109910002e0237009fb297004504780095b79f004c
:10992000cfc4de00614db9000802be000a03be00cc
:109930004822de00c828dd0004827000a4d79f0002
:109940000c48a300090032000404e00007003200c4
:10995000e14f420005003200b4d79f00c8d79f00f6
:1099600022002000c2b79f0003003700b8d79f0035
:1099700013002000c3b79f0024fd2f000f024200f8
:109980000402e800b4b79f0081ff3700a1d79f0011
:1099900025fd2f0085824700b5b79f0016002000e7
:1099a000c6b79f007aff3700a1d79f000c0cb30009
:1099b0008c007800010cb20032003a000c00e0008c
:1099c00005003d009fb097004105be004104be0068
:1099d00091b79f00080037000c48a3000b0032002d
:1099e0001fb297004401be0094b79f000204be005e
:1099f0004fcdde008a057800b8b79f00c9b79f0039
:109a0000dab79f00ebb79f00090037009fb49700bb
:109a1000c900780099b79f00610ab900612bb900ad
:109a2000b4b79f00c5b79f00d6b79f00e7b79f00a8
:109a30003fb49700cfb497005fb59700efb597009c
:109a4000e00f5400e08f5c00e00f5d00e08f5d00f0
:109a500022003d003c00b3006022b8006033b80033
:109a60000804520089845a000a055b008b855b005c
:109a7000b8b79f00c9b79f00dab79f00ebb79f0048
:109a8000160037000c00e00004003d001fb49700f2
:109a90004803be004802be00050037000c48a30082
:109aa000050032001fb497004802be006033b800c2
:109ab00098b79f00050037009fb49700c900780051
:109ac00099b79f00610ab8006033b800b4b79f002f
:109ad000c5b79f00d6b79f00e7b79f00afb297000a
:109ae0000500e0000d003a0016002000a6b79f0018
:109af0003fb49700cfb497005fb59700efb59700dc
:109b0000e00f5400e08f5c00e00f5d00e08f5d002f
:109b1000020032008004eb00a9b79f000c0578001a
:109b20000a0cb2008ab79f0001042000810f550083
:109b30003400320003003c000a00e000080032005c
:109b400048003700010820008fb59700818f55002d
:109b500014003200010c2000818f550041003a00b2
:109b6000e20b220011c0b3003202be003203be007d
:109b70003fb49700cfb497005fb59700efb597005b
:109b80000440e10005c8e10006d0e10007d8e1008b
:109b9000330039008140e800f4cf5000f2ff3a0072
:109ba0002f00370011c0b300040120000500200081
:109bb0006033b8003fb49700cfb497005fb597000b
:109bc000efb597000440e10005c8e10006d0e100d0
:109bd00007d8e10022003900490020000402d0002b
:109be0008582d2000683d2008783d2008904e900ef
:109bf000faff3a008140e800f0cf5000edff3a0054
:109c00001700370011c0b3008400200005002000b9
:109c10006033b8003fb49700cfb497005fb59700aa
:109c2000efb597000440e10005c8e10006d0e1006f
:109c300007d8e1000a003900390020000402d000f2
:109c40008582d2000683d2008783d2008904e9008e
:109c5000faff3a008140e800f5cf5000edff3a00ee
:109c6000a1d79f002fd597008a00fb00afb59700c2
:109c70008b8f500002003d00abd79f0004003700df
:109c80002fb19700810f510001003d00a1b79f0047
:109c90000000e00003003200e30066000100320033
:109ca0000000e9000ce8a30006003200afb1970005
:109cb000830f500002003400030050000100370001
:109cc0000000eb002fd297008400fb008002eb0025
:109cd000f5af9f00810f500002003400810050005a
:109ce000f1af9f000c28a3003c0032006101660028
:109cf0000c18a3000f0032003d0090000068a30084
:109d000006003200b10220000200e0000100320033
:109d10008180e8000e0178000d003700b0022000bd
:109d20000200e000010032000080e8008d007800b1
:109d30000e0037000200e000100032003d009000ed
:109d40000068a300070032000e0178000102200025
:109d50000d007800c6fd07000000e00006003a0094
:109d6000060037008d00780000022000450c070037
:109d7000e10f4000010032000e07e8007fab9700c2
:109d80000600e00052003200060478003d0090001a
:109d90000068a300070032000e01780001032000d4
:109da0000d007800b2fd07000000e00006003a0058
:109db000060037008d00780000032000310c0700fa
:109dc000e10f4000010032000e07e8000804e9003e
:109dd000eeff3a00f8af9f003d003700ffab970061
:109de0000700e000160032000c38a30014003a000f
:109df000070478003d0090000068a30007003200cf
:109e00000e017800010220000d00780098fd070087
:109e10000000e00006003a00060037008d007800e0
:109e200000022000170c0700e10f40000100320083
:109e30000e07e8000804e900eeff3a00f8af9f00c3
:109e4000610166000c18a3000f0032003d00900075
:109e50000068a30006003200b10220000200e0000a
:109e6000010032008180e8000e0178000d0037000b
:109e7000b00220000200e000010032000080e80093
:109e80008d0078000e0037000200e0001000320064
:109e90003d0090000068a300070032000e0178002a
:109ea000010220000d00780071fd07000000e000b5
:109eb00006003a00060037008d00780000022000fe
:109ec000f00b0700e10f4000010032000e07e80030
:109ed0002fb497000800e900c204dd00c9af9f005d
:109ee0006301b90002057800baaf9f004300dd00ae
:109ef000610b220081004000e1af9f009800370015
:109f0000afb597008b05e900abb79f0000042000b8
:109f10008fb09700808f50006800320003003c0033
:109f20000100e00008003200730037000008200044
:109f30000fb19700800f51004c003200000c200040
:109f4000800f51006c003a000c00e0001e003d0044
:109f5000efa997003304be002305be000802be002f
:109f60000a03be003fb09700cfb097005fb19700e3
:109f7000efb19700a9fa0700a0d79f000000fb00ef
:109f8000cf80de006109b9000802be000a03be00ee
:109f90002c1507003fb29700cfb297005fb3970030
:109fa000efb397000002520081825a0002035b0067
:109fb00083835b00b4b79f00c5b79f00d6b79f00ef
:109fc000e7b79f00250037000c48a3001a003200b5
:109fd0003fb29700cfb297006fab97003604be0038
:109fe0002605be000801be000400be00f4b79f00b5
:109ff00085bf9f00fd140700a0d79f000000fb0055
:10a00000cf80de000801be00081507007fb2970070
:10a010008fba97000002520081825a000404be00e9
:10a020006055b800b8b79f00c9b79f00dab79f0066
:10a03000ebb79f0009003700efac970019017800db
:10a040003fb59700110009000285d800a20020004a
:10a05000110009000280d800a1d79f00afd597005a
:10a060000b43b000abd79f0023003700d00922007c
:10a070000c58a30001003200c00822003fb2970034
:10a08000cfb297005fb39700efb39700cfa89700c8
:10a090008100e900050033008703d1000683d30067
:10a0a0008582d3000482d300f9ff37006f0262007b
:10a0b00060427a00a4d79f000f0037003fb097009e
:10a0c000cfb097005fb19700efb197003faa97001c
:10a0d0000402e900050033008301d1000281d300ae
:10a0e0008180d3000080d300f9ff37006740600013
:10a0f0000043b000a0d79f00bd009000afd29700f2
:10a100000500fb000168a300070032000e01780083
:10a11000800078000d007800d5fc07000000e0000a
:10a1200005003a00050037008d007800550b070048
:10a13000e10f4000010032000e07e8004fab97002e
:10a1400064035300c6af9f00bfab9700e383530087
:10a15000b7af9f006fac970068045400e8af9f0052
:10a16000afb497000900e00065ff3a000c38a30087
:10a17000160032007fad97000a00e00013003400a3
:10a180000a0478003d0090000068a3000700320038
:10a190000e017800010220000d007800b4fc0700d9
:10a1a0000000e00006003a00060037008d0078004d
:10a1b00000022000330b0700e10f400001003200d5
:10a1c0000e07e8000804e900eeff3a00dfad970053
:10a1d0001b407800a0d79f000004e000b7fc3a00c5
:10a1e0000e0078004f0778004f06be004f05be00f6
:10a1f0004f04be002f02b100000006000000fa006c
:10a2000068815700cfb89700803e2200a1fc07006c
:10a210000080fa00000006000000fa006881570084
:10a22000cfb89700803e2200810b07000080fa0023
:10a23000000006000000fa0068815700cfb89700c0
:10a24000803e2200dd0e07000080fa0000000600bc
:10a2500080007800010078003041780003c2b3002c
:10a26000834f5100faff3200e94f5100f8ff3200ee
:10a27000edc14100834f510003003a008000780097
:10a2800013c0b300050037008041eb00b4c2b30037
:10a29000844f510001003a00800078000000eb007c
:10a2a000020037006a02b900040041003101fb00de
:10a2b0000203b100e90f5100faff36000304e00089
:10a2c000010032000000ea00000006000800fa0069
:10a2d000889fbe008a9fbe000084fb00d1c6b300e9
:10a2e000814f5000340036004b0620001100090059
:10a2f0000b84d80081057800720040004300dd0027
:10a3000069dd2100008044006022b80006002000c2
:10a3100007fe23005001be004000be00bc13070032
:10a320000002be000203be0084bf9f0095bf9f00d5
:10a33000a6bf9f00b7bf9f00aa0020001100090020
:10a340008a85d80080057800e9854500c35ddd0079
:10a350008b8544003b02be002b03be000fb8970064
:10a360009fb897002fb99700bfb99700a8130700af
:10a370000002be000203be0084bf9f0095bf9f0085
:10a38000a6bf9f00b7bf9f00110009000a84d80034
:10a39000010478004344dd00888444003902be0093
:10a3a0002903be000fb897009fb897002fb99700f8
:10a3b000bfb997001d003700ea4f50001300360068
:10a3c000aa002000110009000a84d80001057800c5
:10a3d000690440004344dd0069dd21000884440035
:10a3e0006022b8000600200007fe23003800be00ef
:10a3f0002801be00861307004355dd008a8444000f
:10a400003902be002903be00080037004344dd00c6
:10a4100060dd2100080440006022b8000600200032
:10a4200007fe23003800be002801be007813070095
:10a430004f05be004f04be000080fa000000060079
:10a440000800fa00889fbe008a9fbe00d1c6b300f4
:10a450000004e00023003d000040ea000004fb008f
:10a46000814f50000a00340042062000110009000c
:10a470000204d800a9002000110009008900d800ba
:10a48000e9004000c308dd006add2100210037003b
:10a49000ea4f500010003400a20020001100090013
:10a4a0000204d80001017800690040004300dd008b
:10a4b00061dd2100008040004311dd00828040000a
:10a4c0003102be002103be005001be004000be00ac
:10a4d0004f130700380037004344dd0060dd2100e2
:10a4e000320037000004fb00814f5000230034008d
:10a4f00042062000110009000204d800a900200033
:10a50000110009008900d800e9004000c308dd00ff
:10a510006ad22100810045003102be002103be0045
:10a520008b0920008a8545003b00be002b01be0040
:10a53000371307000002be000203be0084bf9f0065
:10a5400095bf9f00a6bf9f00b7bf9f0011000900e5
:10a550000904d800010478004344dd0008054500e3
:10a560003a02be002a03be000fb897009fb89700ba
:10a570002fb99700bfb99700d5ff3700ea4f5000b9
:10a5800008003400a2002000110009000204d800d5
:10a5900001017800690040004300dd0061d2210024
:10a5a000c4ff37004344dd0060d2210008044000ae
:10a5b0003800be002801be004f05be004f04be009b
:10a5c0000080fa0000000600d001900002815100d6
:10a5d0004240a900030034001001780001497800ce
:10a5e0000208e8000100780000000600cf03b00078
:10a5f000889fbe008a9fbe008c9fbe008e1f780081
:10a600000006780091a79f00a2af9f006000b800ed
:10a610006011b800a0a79f00b1a79f00c2a79f002c
:10a62000d3a79f008006eb008d0937009fa09700fd
:10a630008100e80091a79f0051c2b300814f5000f4
:10a6400003003a001fa197000007eb00110037003c
:10a65000bc0090000000fb000168a300070032006e
:10a660000d017800800078000c007800d6ff07000c
:10a670000000e00005003a00790937008c007800fe
:10a68000000a0700e10f4000750932008d06e8005e
:10a690007309370002007800b2407800b3c2b300fb
:10a6a00083cf50001300320007003c00ebc1510083
:10a6b00083cf50000d003200e3c1410083cf500032
:10a6c00012003a000d003700d3c2b30083cf500010
:10a6d00004003200e3c1410083cf50000b003a0078
:10a6e000080037000e30a000eaff37000e00a0007f
:10a6f000e8ff37000e10a000e6ff37000eb0a00004
:10a70000e4ff37000e20a000e2ff37000e18a30080
:10a71000010032000e00a1000e38a300010032003b
:10a720000e20a1000101fb000203b100e90f51005e
:10a730000e003e00800078000001eb0082b79f0011
:10a740006a11b9003100fb000003b10002014000b2
:10a75000010078009101fb000303b100e98f510073
:10a76000f7ff360082b79f000a0037008001eb0038
:10a7700083b79f00a2c2b30082cf500005003a0009
:10a780002faa9700c4027800a4af9f0085b79f004e
:10a790000000e800e1c2b30090cf100017003a00bb
:10a7a0000ee0a000e4c05000d0cf10000300320043
:10a7b000800078008001eb0009003700afab970004
:10a7c00047047800a7af9f00f8af9f000000e800a3
:10a7d000800078000d0037006a1ab900840141003a
:10a7e000010078003101fb000203b100e90f5100c4
:10a7f000f9ff3600f3af9f00f5ff37000ec0a00051
:10a800008004eb00f9af9f00f1ff37003140780082
:10a8100091a79f0072c6b300824f500032003200f1
:10a8200017003c0031c6b300814f5000c200320017
:10a830000e003c00fcc05000814f50003d00320033
:10a8400006003c000004e0000a09320081c0e90073
:10a85000814f5000d6003a003200370081c5b30066
:10a86000814f5000d2003a003900370051c6b30082
:10a87000814f50001e00320027003c001e003700b0
:10a8800002c7b300824f5000310032000a003c0082
:10a8900064415100824f500019003200f1c6b300ec
:10a8a000814f500027003200e6c05000814f500019
:10a8b000bf003a001000370051c7b300814f50006d
:10a8c000c2003200e3c04000814f5000040032005b
:10a8d000e5c05000814f5000b5003a00200037001d
:10a8e000807f9f001c003700807f9f00130037008f
:10a8f000807f9f000d003700807f9f00b5003700ec
:10a90000000120000e48a3000100320000002800d2
:10a910000e077000bdff3700807f9f000ea0a000d3
:10a92000ac003700807f9f000e50a0000e80a0007a
:10a93000a8003700807f9f000e50a0000e90a0005e
:10a94000a4003700807f9f000e60a000a1003700a8
:10a95000807f9f000e50a0000e70a0009d00370069
:10a96000807f9f00afad97004b007800abaf9f009a
:10a9700090b79f000000e00002003a00821722001a
:10a9800092b79f009fb097000000eb0001003700d6
:10a990000000e800614178000204e000fcff3a009a
:10a9a000a0b79f00ffa997000300e0000500320058
:10a9b0002fb29700848f510002003100830278008b
:10a9c000a5b79f002fb097000004eb000fb39700ce
:10a9d000800f530001003600000453006807670031
:10a9e0002d003a00110037003c0090000068a300e1
:10a9f000070032000d017800010220000c007800f1
:10aa0000f1fe07000000e00006003a0006003700f3
:10aa10008c007800000220001a090700e10f4000b6
:10aa2000010032008d06e8000804e9000800e0009b
:10aa3000edff3a000084eb008e037800f7af9f0033
:10aa4000170037003c0090000068a30009003200a6
:10aa500008007800b000fb00000478000d017800c9
:10aa60000c007800d8fe07000000e00008003a0063
:10aa700010003700880078003100fb0001047800e6
:10aa80008c007800ff080700e10f40000900320049
:10aa90008d06e800070037008e047800f9af9f00ac
:10aaa000080778001fb49700afb497003fb5970030
:10aab000cfb59700090078008004e9000000e000ad
:10aac000e0ff3a0098b79f00a9b79f00bab79f0070
:10aad000cbb79f000e0478007faf97000e00e00018
:10aae0005f083200110037003c0090000068a300ae
:10aaf000070032000d017800010220000c007800f0
:10ab0000b1fe07000000e00006003a000600370032
:10ab10008c00780000022000da080700e10f4000f6
:10ab2000010032008d06e8000804e9000800e0009a
:10ab3000edff3a004a083700afa8970041047800bb
:10ab4000a1af9f00cfc4de00614db9000802be0076
:10ab50000a03be004822de004829dd00040271001d
:10ab6000847f9f000e48a300090032000404e00027
:10ab700007003200e14f420005003200947f9f0041
:10ab8000a87f9f0023002000a3b79f000300370089
:10ab9000987f9f0014002000a4b79f0085fb2f0022
:10aba0008f8242008502e80095b79f007dff370045
:10abb000807f9f0086fb2f000683470096b79f008b
:10abc00017002000a7b79f0076ff3700807f9f0007
:10abd0000e0cb300007020000000670099053200e1
:10abe0000ec8a3000200320068002000f8af9f00ea
:10abf0000e48a300050032002fa897004005be00b4
:10ac00004004be00a0af9f00060037002fa99700a8
:10ac10004200be00a2af9f00a81007000004be00c3
:10ac20000205be006022b8006033b8000800be0014
:10ac30000a01be00f30f07000000e00002003d0023
:10ac40000bf0a2003e00b3000000eb00e09f9f006d
:10ac50006022b8006033b8000800be000a01be00e0
:10ac60004c1007000000e00033003200c4fb2f004e
:10ac70000f0242000800be000a01be0032110700a8
:10ac80006f9897000000e9006302b900a20020005d
:10ac9000110009000202d800e09f9f000000e000c0
:10aca00002003d000000e900e09f9f006f999700bf
:10acb00092b79f000240ea00e1fd07000802be00d3
:10acc0000a03be00521107000002be000203be00cc
:10acd000a4a79f00b5a79f00c6a79f00d7a79f0066
:10ace0006022b8000600200007ff2300c50f070000
:10acf0000000e00003003d009fb297000500e9005e
:10ad00000c0037006022b800060020004702240033
:10ad10002fa09700bfa097004fa19700dfa1970039
:10ad2000bd0f07000000e000030035001fb39700cf
:10ad30000600e800e09f9f00ef9b970097b79f00f9
:10ad40000e88a30008003a000e98a30018033200f2
:10ad500007007800e40f400003003500ffa89700cb
:10ad6000810f50009d0235007fa997000200e0008e
:10ad7000040032000e98a300020032000201e90034
:10ad8000f2af9f00ffa99700f28f51000300360039
:10ad900020c1b300807f9f00020037006fda970068
:10ada000847f9f006022b8006033b8000800be00b6
:10adb0000a01be00f70f07000000e0006600320045
:10adc0008f7a9700e5d79f002fe397000540530047
:10add0009bfd07000002be000203be000800be008b
:10ade0000a01be00910f07000004be000205be006c
:10adf00082100700d21007000002be000203be004e
:10ae00000800be000a01be00761107006022b800eb
:10ae10000600200007fe23007f0f07000000e0006f
:10ae2000080035006022b8000600200007fe23005d
:10ae30000800be000a01be00f50e07000004be00b7
:10ae40000205be000800be000a01be006b1007002c
:10ae50000002be006033b800e4a79f00f5a79f0082
:10ae600086af9f0097af9f00efd297008502fb004f
:10ae700085a79f000500e8004300dd0006182200ba
:10ae8000000243003400be002401be00b0af9f00aa
:10ae9000c1af9f00d2af9f00e3af9f006fa29700aa
:10aea000ffa297000fab97009fab97000020e10037
:10aeb00001a8e10002b0e10003b8e1000c00390094
:10aec0000400200005002a009699290097fb230022
:10aed0000800be000a01be00cd1007000004be003d
:10aee0000205be009fb297000500e8001900370078
:10aef0000fa397004332dd000718220004824300ad
:10af00003400be002401be006fa29700ffa297008c
:10af10000fab97009fab97000020e10001a8e10074
:10af200002b0e10003b8e1000b0031006022b8007c
:10af300006002000470224000800be000a01be00ef
:10af4000b31007000004be000205be009fb29700c8
:10af50000500e900e09f9f0001a02000810067003c
:10af600000202000808f50003d003a007fab97000a
:10af7000f40f53000200340047012000f7af9f0098
:10af80000800be000a01be001c1007006011b800d6
:10af90000802be000a03be0094b79f00a5b79f0039
:10afa000b6b79f00c7b79f0009003700ffaa9700f8
:10afb0008502e900f5af9f00a400200005002000f5
:10afc0006033b8000800be000a01be0093f6070017
:10afd0000205be000004be00e00f5000e08f5800e4
:10afe000e00f5900e08f590009003200a400200052
:10aff000050020006033b8008ff60700e00f500016
:10b00000e08f5800e00f5900e08f5900e7ff320051
:10b010001fb49700afb497003fb59700cfb5970026
:10b020000f7897008000fb007fab9700810f5300e3
:10b030000b003d000640500001fd07000002be006d
:10b040000203be000800be000a01be00f70e0700a2
:10b050000004be000205be00efdb9700877f9f0063
:10b060008fb09700658050007fa9970002005000c4
:10b0700080b79f000200e00002003a000eb8a30073
:10b08000030032008fb197008301e90083b79f006e
:10b0900063006700030032000fb297000402e9006a
:10b0a00084b79f000e28a3004f0032003c009000a0
:10b0b000610167000e18a3000e0032000068a300b3
:10b0c00006003200b10220000200e0000100320060
:10b0d0008180e8000d0178000c003700b0022000ec
:10b0e0000200e000010032000080e8008c007800df
:10b0f0000d0037000200e000320032000068a300bb
:10b10000070032000d017800010220000c007800d9
:10b110002dfd07000000e00006003a00290037007e
:10b120008c0078000002200056070700e10f400065
:10b13000240032008d06e800220037003c00900019
:10b140000068a3000f0032000d0178000103200009
:10b150000c007800f4b79f0085bf9f00d6b79f0012
:10b16000e7b79f0018fd07007fb297008fba9700de
:10b170005fb39700efb397000000e0000e003a00c5
:10b180000e0037008c00780000032000f4b79f0009
:10b1900085bf9f00d6b79f00e7b79f00390707001c
:10b1a0007fb297008fba97005fb39700efb3970015
:10b1b000e10f4000010032008d06e8008904e9003b
:10b1c000030037000802be000a03be008fb49700d8
:10b1d0000900e000d9ff3c0089b79f000404be00cd
:10b1e0000605be00450037000e38a30020003a00d7
:10b1f0000800be000a01be0090b79f00a1b79f00e3
:10b20000b2b79f00c3b79f008fb4970011003700fb
:10b210003c0090000068a300070032000d01780098
:10b22000010220000c007800e7fc07000000e000ad
:10b2300006003a00060037008c007800000220006b
:10b2400010070700e10f4000010032008d06e80002
:10b250008904e9000900e000edff3c0089b79f0088
:10b260001fb49700afb497003fb59700cfb59700d4
:10b270003c009000610167000e18a3000e00320030
:10b280000068a30006003200b10220000200e000c6
:10b29000010032008180e8000d0178000c003700c9
:10b2a000b00220000200e000010032000080e8004f
:10b2b0008c0078000d0037000200e0000f00320023
:10b2c0000068a300070032000d0178000102200091
:10b2d0000c007800bcfc07000000e00006003a000b
:10b2e000060037008c00780000022000e506070009
:10b2f000e10f4000010032008d06e8000800be00aa
:10b300000a01be003d0f07000002be006033b80016
:10b3100094b79f00a5b79f00b6b79f00c7b79f001f
:10b320003c019000001822008f7a97008500fb00f6
:10b330000268a30011003200c308dd008100400054
:10b340003102be002103be001fb09700afb09700ce
:10b350003fb19700cfb19700b0f507000003b000f0
:10b360000d017800800078000c00780096fc070042
:10b370000000e0000f003a000f003700c308dd00b6
:10b38000810040003102be002103be001fb09700c3
:10b39000afb097003fb19700cfb197009ff507007e
:10b3a0000003b0008c007800b6060700e10f4000f3
:10b3b000010032008d06e8000f7b97000600fb00bd
:10b3c0004300dd0001182200008040003002be0072
:10b3d0002003be001fb09700afb097003fb19700a9
:10b3e000cfb1970094f5070090b79f00a1b79f00d9
:10b3f000b2b79f00c3b79f00ffac97000900e00001
:10b4000002003a000eb8a300740032003c00900025
:10b410000068a300070032000d017800e10220005f
:10b420000c00780068fc07000000e00006003a000d
:10b43000060037008c007800e0022000910607002b
:10b44000e10f4000010032008d06e8000f7c9700fc
:10b45000e8d79f001fb49700afb497003fb597009f
:10b46000cfb597003c0037000e98a3000d003200c6
:10b47000e00f5400e08f5c00e00f5d00e08f5d00a6
:10b4800008003a0098b79f00a9b79f00bab79f007d
:10b49000cbb79f008040eb00817f9f000004eb0052
:10b4a0004c0037003c019000011822000000fb0016
:10b4b0000268a3000f0032004300dd00008040005e
:10b4c0003002be002003be000800be000a01be001c
:10b4d00052f507000003b0000d01780080007800ed
:10b4e0000c00780038fc07000000e0000d003a0076
:10b4f0000d0037004300dd00008040003002be0038
:10b500002003be000800be000a01be0043f507008c
:10b510000003b0008c0078005a060700e10f4000dd
:10b52000010032008d06e8000f7997000200fb0051
:10b530004300dd0001182200008040003002be0000
:10b540002003be000800be000a01be003af5070055
:10b550000205be000004be008f7897000140e9009c
:10b56000807f9f000104e000bfff3a0098b79f0072
:10b57000a9b79f00bab79f00cbb79f006fd49700c1
:10b580000804fb00ffaa970008845200110037004e
:10b590003c0090000068a300070032000d01780015
:10b5a000010320000c00780007fc07000000e00009
:10b5b00006003a00060037008c00780000032000e7
:10b5c00030060700e10f4000010032008d06e80060
:10b5d0000804e9000800e000edff3a003c0090009c
:10b5e0000e58a300080032000068a30003003200d8
:10b5f0000d01780051042000070037008c0078000e
:10b60000500420000b0037000068a3000700320040
:10b610000d017800510620000c007800eafb0700bd
:10b620000000e00006003a00060037008c007800b9
:10b630005006200013060700e10f40000100320011
:10b640008d06e800ef9897003c0090000100e000b4
:10b650000a003d008100ea00e19f9f000068a3000e
:10b66000030032000d017800d102200007003700ee
:10b670008c007800d00220000b0037000068a30087
:10b68000070032000d017800b10220000c007800a4
:10b69000cdfb07000000e00006003a00060037007e
:10b6a0008c007800b0022000f6050700e10f400092
:10b6b000010032008d06e800bc0090006f989700f2
:10b6c0000168a3000b003200a20020001100090055
:10b6d0000200d80001032000808040000d017800a6
:10b6e0000c007800b8fb07000000e00009003a00f9
:10b6f00009003700a2002000110009000200d80054
:10b700000003b0008c007800de050700e10f400068
:10b71000010032008d06e800bc0090006f98970091
:10b720000168a3000a003200a200200011000900f5
:10b730000200d8000103b0000d0178000c00780071
:10b74000a1fb07000000e0000a003a000a003700f1
:10b75000a2002000110009000200d8000003200010
:10b76000010040008c007800c6050700e10f400092
:10b77000010032008d06e8000e38a30038053200c3
:10b780000fb397000600e00035053400060478008a
:10b790003c0090000068a300070032000d01780013
:10b7a000010220000c00780087fb07000000e00089
:10b7b00006003a00060037008c00780000022000e6
:10b7c000b0050700e10f4000010032008d06e800df
:10b7d0000804e900eeff3a00210537009fb3970007
:10b7e0000700e00004003d000780ea00ffa8970082
:10b7f00080804000f1af9f000800be000a01be003b
:10b80000cd0d070090b79f00a1b79f00b2b79f0072
:10b81000c3b79f00051822000042eb000800be00dd
:10b820000a01be00b0af9f00c1af9f00d2af9f0022
:10b83000e3af9f000c0037003500be003501be00ad
:10b840001fb49700afb497003fb59700cfb59700ee
:10b850000040e10001c8e10002d0e10003d8e100ae
:10b86000030039000442e800f44f5200f2ff3a00ae
:10b870003fac9700cfac97005fad9700efad97005e
:10b880000400fb00ffa8970080805000f1af9f00ec
:10b89000f88f500009003c00014078008bfa070047
:10b8a0000002be000203be000800be000a01be0086
:10b8b000570c07000004be000205be006fd89700b9
:10b8c000dffa07000002be000203be00b4af9f0013
:10b8d000c5af9f00d6af9f00e7af9f001fb0970096
:10b8e000afb097003fb19700cfb19700e90d0700c7
:10b8f0000002be000203be000800be000a01be0036
:10b90000b80e07000002be000203be003fa8970069
:10b91000cfa897005fa99700efa997003c0e0700fa
:10b92000850d07000802be000a03be0094b79f0001
:10b93000a5b79f00b6b79f00c7b79f000205be001e
:10b940000004be000b003700a4002000050020000a
:10b950006033b8000800be000a01be002ff40700e3
:10b960000205be000004be00ffaa97008502e900a0
:10b97000f5af9f007fab97000600e0001900320092
:10b98000a4002000050020006033b8000800be00bd
:10b990000a01be0028f40700e00f5000e08f5800b5
:10b9a000e00f5900e08f5900e7ff32000d0037002b
:10b9b000ffab9700f88f53000e003c000740780063
:10b9c00042fa07000002be000203be000800be00eb
:10b9d0000a01be000e0c07000004be000205be00f6
:10b9e000040037001fb49700afb497003fb597002d
:10b9f000cfb597006f98970090b79f00e90f500060
:10ba000012003c006022b8006033b8000800be009d
:10ba10000a01be00df0c07000000e0002f0032002a
:10ba20000800be000a01be00430d0700e00f5000f1
:10ba3000e08f5800e00f5900e08f590027003a00ce
:10ba40009fb09700e18f50002400340004002000d4
:10ba500005002e00b6e02200170124002fa0970059
:10ba6000bfa097004fa19700dfa19700650c0700ca
:10ba70000000e00003003d001fb19700730051007b
:10ba8000020037009fb1970072805100e09f9f0035
:10ba90004f7897006afa07000002be000203be005a
:10baa000a4a79f00b5a79f00c6a79f00d7a79f0088
:10bab0000800be000a01be005c0c07001e0d070056
:10bac00090b79f00a1b79f00b2b79f00c3b79f0078
:10bad0006044b8006055b800110037000800be008f
:10bae0000a01be00140d070090b79f00a1b79f0088
:10baf000b2b79f00c3b79f00660d07000002be00eb
:10bb00000203be000800be000a01be00350e070099
:10bb10000004be000205be000000eb00e09f9f0095
:10bb20008518220014c0b3000800be000a01be0040
:10bb3000e0a79f00f1a79f0082af9f0093af9f00f7
:10bb4000100037003504be003505be00b8af9f00b9
:10bb5000c9af9f00daaf9f00ebaf9f001fb0970007
:10bb6000afb097003fb19700cfb197000800e10058
:10bb70000988e1000a90e1000b98e1000300390018
:10bb80000442e800f44f5200eeff3a006fa4970021
:10bb9000ffa497000fad97009fad9700847f9f0093
:10bba0006f9897008fb09700008050007fa9970092
:10bbb000820050000400fb000080500080b79f000e
:10bbc0000080200000006700e0a79f0002003a000c
:10bbd0000200e000030032008fb197008301e9000a
:10bbe00083b79f0063006700030032000fb2970025
:10bbf0000402e90084b79f000e28a3005000320021
:10bc0000610167000e18a3000f0032003c00900095
:10bc10000068a30006003200b10220000200e0002c
:10bc2000010032008180e8000d0178000d0037002e
:10bc3000b00220000200e000010032000080e800b5
:10bc40008c0078000e0037000200e0003300320064
:10bc50003c0090000068a300070032000d0178004e
:10bc6000010220000c00780057fa07000000e000f5
:10bc700006003a00290037008c00780000022000fe
:10bc800080040700e10f4000240032008d06e80028
:10bc9000220037003c0090000068a3000f00320033
:10bca0000d017800010320000c007800f4b79f001c
:10bcb00085bf9f00d6b79f00e7b79f0042fa0700f5
:10bcc0007fb297008fba97005fb39700efb39700ea
:10bcd0000000e0000e003a000e0037008c007800f3
:10bce00000032000f4b79f0085bf9f00d6b79f00d8
:10bcf000e7b79f00630407007fb297008fba9700f1
:10bd00005fb39700efb39700e10f400001003200ee
:10bd10008d06e8008904e900030037000802be0030
:10bd20000a03be008fb497000900e000d9ff3c0071
:10bd300089b79f000404be000605be007a003700e4
:10bd40000e38a30020003a000802be000a03be001d
:10bd5000b4af9f00c5af9f00d6af9f00e7af9f0075
:10bd60008fb49700110037003c0090000068a300da
:10bd7000070032000d017800010220000c0078005d
:10bd800011fa07000000e00006003a000600370044
:10bd90008c007800000220003a040700e10f400008
:10bda000010032008d06e8008904e9000900e00086
:10bdb000edff3c0089b79f003fac9700cfac9700e8
:10bdc0005fad9700efad9700610167000e18a3000b
:10bdd0000f0032003c0090000068a3000600320013
:10bde000b10220000200e000010032008180e80082
:10bdf0000d0178000d003700b00220000200e000c5
:10be0000010032000080e8008c0078000e0037004e
:10be10000200e0003d0032003c0090000068a300fa
:10be2000070032000d017800010220000c007800ac
:10be3000e5f907000000e00006003a003a0037008c
:10be40008c007800000220000e040700e10f400083
:10be5000350032008d06e8002c0037003c019000d0
:10be6000001822008100fb000268a30013003200ca
:10be7000c308dd00010040003002be002003be0008
:10be80000800be000a01be00e4f20700a400200082
:10be9000050020006033b800e7f20700010320002e
:10bea000808040000d0178000c007800c6f9070082
:10beb0000000e00013003a0025003700c308dd0051
:10bec000010040003002be002003be000800be009a
:10bed0000a01be00d1f20700a400200005002000e6
:10bee0006033b800d4f207000203200000014100d3
:10bef0008c00780002007800e2030700e10f4000a8
:10bf0000130032008d06e800110037000802be0061
:10bf10000a03be00b4af9f00c5af9f00d6af9f001d
:10bf2000e7af9f00060037000800be000a01be0010
:10bf3000b0af9f00c1af9f00d2af9f00e3af9f00a3
:10bf40001fb49700afb497003fb59700cfb59700e7
:10bf50000f7897008040e900817f9f000004e00097
:10bf6000beff3a003fac9700cfac97005fad9700a3
:10bf7000efad9700130037003c0090000068a3006d
:10bf8000070032000d017800010320000c0078004a
:10bf90008df907000000e00006003a0006003700b7
:10bfa0008c00780000032000b6030700e10f40007a
:10bfb000010032008d06e8006f9897000000e9004c
:10bfc000e09f9f006f9897000000e000eaff3c00b0
:10bfd000ffa89700f28f50000300340020c1b30087
:10bfe000807f9f00020037006fd99700827f9f00fb
:10bff0000f7897008000fb00ffa997008180510017
:10c00000f1af9f000004e00003003a006fa2970028
:10c010000400e000100032003c0090000068a30023
:10c02000070032000d017800e10220000c007800ca
:10c0300065f907000000e00006003a00060037003e
:10c040008c007800e00220008e030700e10f400022
:10c05000010032008d06e8000f789700f8f807001d
:10c060000002be000203be000800be000a01be00be
:10c07000670c0700b00b07000205be000004be00fd
:10c0800090b79f00a1b79f00b2b79f00c3b79f00b2
:10c09000350037003c019000011822000000fb0031
:10c0a0000268a300130032004300dd00008040005e
:10c0b0003002be002003be000800be000a01be0020
:10c0c00056f20700a4002000050020006033b800ed
:10c0d00059f207000003b0000d01780080007800dd
:10c0e0000c00780038f907000000e00011003a0069
:10c0f000110037004300dd00008040003002be0028
:10c100002003be000800be000a01be0043f2070083
:10c11000a4002000050020006033b80046f20700ac
:10c120000003b0008c00780056030700e10f4000c8
:10c13000010032008d06e8008f7897000100fb00b7
:10c140004300dd0001182200008040003002be00e4
:10c150002003be000800be000a01be0036f2070040
:10c160000205be000004be008f7897000140e90080
:10c17000807f9f000104e000c6ff3a0098b79f004f
:10c18000a9b79f00bab79f00cbb79f007fac9700bd
:10c19000110037003c0090000068a3000700320047
:10c1a0000d017800010320000c00780006f907005b
:10c1b0000000e00006003a00060037008c0078001e
:10c1c000000320002f030700e10f400001003200b0
:10c1d0008d06e8000804e9000800e000edff3a00e1
:10c1e0000e38a3009e0232008fb297000500e000d7
:10c1f0009b023400050478003c0090000068a30016
:10c20000070032000d017800010220000c007800c8
:10c21000edf807000000e00006003a0006003700d5
:10c220008c0078000002200016030700e10f400098
:10c23000010032008d06e8000804e900eeff3a0034
:10c24000870237000e007800000cb20032003a007e
:10c250000e00e00005003d002fa897004005be003d
:10c260004004be00a0af9f00120037000e48a3009c
:10c270000b0032002fa997004200be00a2af9f0022
:10c280000002be004fabde008603780094b79f002b
:10c29000a5b79f00b6b79f00c7b79f00090037003a
:10c2a000afaa970045007800a5af9f006104b900d0
:10c2b000614db90098b79f00a9b79f00bab79f001a
:10c2c000cbb79f001fb09700afb097003fb197006a
:10c2d000cfb19700e00f5000e08f5800e00f5900f9
:10c2e000e08f590027003d003e00b3006000b80019
:10c2f0006011b8001fb29700afb297003fb397002c
:10c30000cfb39700040250008582580006035900fd
:10c3100087835900170037000e00e00009003d0038
:10c320002fa897004005be004004be00a0af9f00ac
:10c3300098b79f00a9b79f00bab79f00cbb79f00df
:10c34000100037000e48a300050032002fac970004
:10c350004802be006033b800a8af9f000500370058
:10c36000afac970049007800a9af9f006102b80008
:10c370006033b80094b79f00a5b79f00b6b79f0081
:10c38000c7b79f00ffaa97000500e0000d003a0024
:10c3900016002000f6af9f001fb49700afb49700bf
:10c3a0003fb59700cfb59700e00f5400e08f5c00d9
:10c3b000e00f5d00e08f5d00020032008004eb00c2
:10c3c000f9af9f000e0578000a0cb200baaf9f00cb
:10c3d00000042000800f55003400320003003c00b0
:10c3e0000a00e00008003200480037000008200082
:10c3f000bfad9700808f550014003200000c200064
:10c40000808f550041003a008518220014c0b30007
:10c410003500be003501be001fb49700afb49700d1
:10c420003fb59700cfb597000040e10001c8e1009b
:10c4300002d0e10003d8e100330039000442e800f3
:10c44000f44f5200f2ff3a002f00370014c0b3003f
:10c4500000012000010020006011b8001fb4970007
:10c46000afb497003fb59700cfb597000040e1000b
:10c4700001c8e10002d0e10003d8e1002200390048
:10c48000490020000000d0008180d2000281d2004b
:10c490008381d2008904e900faff3a000442e800ef
:10c4a000f04f5200edff3a001700370014c0b30000
:10c4b00080002000010020006011b8001fb4970028
:10c4c000afb497003fb59700cfb597000040e100ab
:10c4d00001c8e10002d0e10003d8e1000a00390000
:10c4e000390020000000d0008180d2000281d200fb
:10c4f0008381d2008904e900faff3a000442e8008f
:10c50000f54f5200edff3a00847f9f000f7d9700aa
:10c510000a00fb00ffad97008b0f500002003d00aa
:10c520008b7f9f0004003700ffa89700808f50008a
:10c5300001003d00f0af9f000fb197000200e00046
:10c540000400320063006700020032000201e900cb
:10c5500082b79f000ee8a300090032008fb1970058
:10c560007faa9700848f510003003400848151001a
:10c5700083b79f00020037008002eb0085b79f0061
:10c58000418c20008100670000842000808f5000d3
:10c5900006003a000fb397000600e00010003200da
:10c5a0000603e90086b79f000d003700018c2000cc
:10c5b0008100670000882000808f500008003a004a
:10c5c0008fb39700e28f5300030034008783e900a4
:10c5d00087b79f00020037000004eb0088b79f0078
:10c5e0008f7c97000900fb000005eb00eaa79f0085
:10c5f0008fb59700808f55000200340000805500f1
:10c60000e0a79f000e28a3006000320061016700d0
:10c610000e18a3000d0032003c0090000068a3003b
:10c6200005003200b10220000200e00030003200bc
:10c630008180e8002e003700b00220000200e000f8
:10c64000350032000080e800330037000200e000cf
:10c65000090032003c0090000068a3000300320093
:10c660000d01780001022000220037008c007800c4
:10c670000002200029003700018c200081006700a3
:10c6800000882000808f500028003a003c00900075
:10c690000068a300070032000d01780001032000ac
:10c6a0000c007800c8f707000000e00006003a0020
:10c6b000060037008c00780000032000f10107001d
:10c6c000e10f4000010032008d06e8003c009000c0
:10c6d0000e0178000202b2000068a3000a003200d6
:10c6e000810720000200e0000100320081052000e7
:10c6f0000d0178000c007800b3f707000000e0009f
:10c7000009003a0009003700800720000200e0001d
:10c7100001003200800520008c007800d90107005c
:10c72000e10f4000010032008d06e8006fa0970085
:10c730000000e0008b003200000478003c00900014
:10c740000068a300070032000d01780001032000fb
:10c750000c0078009cf707000000e00006003a009b
:10c76000060037008c00780000032000c501070098
:10c77000e10f4000010032008d06e8000804e900e6
:10c78000eeff3a00e8a79f0076003700efa0970081
:10c790000100e000160032000e38a30014003a0039
:10c7a000010478003c0090000068a30007003200fc
:10c7b0000d017800010220000c00780082f70700cc
:10c7c0000000e00006003a00060037008c00780008
:10c7d00000022000ab010700e10f40000100320021
:10c7e0008d06e8000804e900eeff3a00e8a79f0084
:10c7f000610167000e18a3000f0032003c0090009a
:10c800000068a30006003200b10220000200e00030
:10c81000010032008180e8000d0178000d00370032
:10c82000b00220000200e000010032000080e800b9
:10c830008c0078000e0037000200e000100032008b
:10c840003c0090000068a300070032000d01780052
:10c85000010220000c0078005bf707000000e000f8
:10c8600006003a00060037008c0078000002200025
:10c8700084010700e10f4000010032008d06e8004e
:10c88000008c20000000670001842000810f500010
:10c8900009003a003c0090000068a3000300320049
:10c8a0000d01780001032000200037008c00780083
:10c8b000000320002700370001882000810f50006e
:10c8c00028003a003c0090000068a30007003200f6
:10c8d0000d017800010320000c0078003af70700f2
:10c8e0000000e00006003a00060037008c007800e7
:10c8f0000003200063010700e10f40000100320047
:10c900008d06e8003c0090000e0178000202b200a3
:10c910000068a3000a003200810720000200e00046
:10c9200001003200810520000d0178000c00780024
:10c9300025f707000000e00009003a000900370071
:10c94000800720000200e000010032008005200086
:10c950008c0078004b010700e10f4000010032001d
:10c960008d06e8007fa997000200e900c201dd0002
:10c9700083a79f006301b90002027800f49f9f0023
:10c980004300dd00011822008100400081b79f00b4
:10c9900098003700ffaa97008502e900f5af9f00d5
:10c9a000000420003fab9700800f53006800320066
:10c9b00003003c000600e00008003200730037006e
:10c9c00000082000bfab9700808f53004c0032005e
:10c9d000000c2000808f53006c003a000e00e00035
:10c9e0001e003d000fb097003004be002005be00c1
:10c9f0000802be000a03be001fb09700afb0970048
:10ca00003fb19700cfb1970004f00700807f9f00ef
:10ca10000000fb00cf80de006109b9000802be0003
:10ca20000a03be00870a07001fb29700afb2970043
:10ca30003fb39700cfb397000002520081825a00a3
:10ca400002035b0083835b0094b79f00a5b79f0040
:10ca5000b6b79f00c7b79f00250037000e48a30058
:10ca60001a0032001fb29700afb297000fb39700c1
:10ca70003604be002605be000801be000400be004c
:10ca8000f4b79f0085bf9f00580a0700807f9f0072
:10ca90000000fb00cf80de000801be00630a070033
:10caa0007fb297008fba97000000520081805a0031
:10cab0000004be006055b80098b79f00a9b79f005a
:10cac000bab79f00cbb79f00090037008fb497001b
:10cad000190178001fb59700110009000285d800e0
:10cae000a2002000110009000280d800817f9f0071
:10caf0008f7d97000b43b0008b7f9f002300370092
:10cb0000701622000e58a3000100320060152200aa
:10cb10001fb29700afb297003fb39700cfb3970013
:10cb20008fa097008100e900050033008703d10042
:10cb30000683d3008582d3000482d300f9ff370037
:10cb40006f02620060427a00847f9f000f0037000e
:10cb50001fb09700afb097003fb19700cfb19700db
:10cb60007f9a97000402e900050033008301d10099
:10cb70000281d3008180d3000080d300f9ff370009
:10cb8000674060000043b000807f9f00bc009000c1
:10cb90008f7a97000500fb000168a30007003200b0
:10cba0000d017800800078000c00780086f6070000
:10cbb0000000e00005003a00050037008c00780016
:10cbc000b0000700e10f4000010032008d06e800d0
:10cbd0000fa397006403530086a79f00ff9b970055
:10cbe000e3835300f79f9f000fb49700680454003d
:10cbf00088b79f00ffac97000900e00065ff3a008e
:10cc00000e38a300160032006fa597000a00e0005e
:10cc1000130034000a0478003c0090000068a30070
:10cc2000070032000d017800010220000c0078009e
:10cc300065f607000000e00006003a000600370035
:10cc40008c007800000220008e000700e10f4000f9
:10cc5000010032008d06e8000804e900eeff3a000a
:10cc60009fa597001b407800807f9f000004e00094
:10cc70006ef63a000d0078004f0778004f06be00b0
:10cc80004f05be004f04be00cf03b10000000600f8
:10cc9000881f78000004780038009000f1006000e0
:10cca000e18f500005003a000098a3000800320010
:10ccb000980090000100e00005003200380090006c
:10ccc0000040a000300498000080eb001f003700f7
:10ccd0000090a10030049800180090000000e000cf
:10cce000060034000000e900100498009800780065
:10ccf0001180fb00010ce8000500370038009000af
:10cd00000068a300edff3a0008007800110007005a
:10cd1000b80090000178a3000c003a00fa0f500010
:10cd200008003a00280090000000e000e3ff320015
:10cd3000180090000000e80010049800180ce900aa
:10cd4000deff3700ed0f5000e3ff32004f047800a4
:10cd5000000006000200fa00889fbe008a1f7800cb
:10cd6000000478000000eb0010049800b800900068
:10cd70000080eb000108a3003e003200a06b2200ff
:10cd80001004e0000f0032000a402200c9fd2f000d
:10cd90008a844400390090002010b2002110200045
:10cda000810f500002003a0009007800ab0607002e
:10cdb000ec8444008a8f5400f6ff3a00a06b2200f6
:10cdc0000048eb00580190000200e0000e003a001d
:10cdd0001204980012002000e880570048009000dc
:10cde00011ee0700e10f500003003a008ff89700a2
:10cdf0000180fb001f003700380090000040a000b9
:10ce00003004980013003700a800900048009000fc
:10ce100005ee0700100498000000e0000300320057
:10ce2000e10f40000d003a00030037003800900089
:10ce30000040a00002003700380090000003b3005b
:10ce40003004980028009000000c78000000eb00ef
:10ce5000100498000080eb0006003700a800900046
:10ce6000010c78000000e900100498001180fb001c
:10ce7000010ce8004f0578004f04be000080fa0066
:10ce800000000600889fbe0001047800b8009000f2
:10ce90008084eb000118a3003a00320018019000d2
:10cea0000198a30002003a000200e00035003a00b9
:10ceb0000190a0003104980080047800f90fb200be
:10cec0000200e00002003a0028009000000c780008
:10ced000ea8f540005003a000178a30003003a00ed
:10cee00088007800d0002000e6ff070018009000be
:10cef000d8009000810f50000b0032000000e800c5
:10cf0000100498001800780009487800000ce80028
:10cf100011c0b300a06b220001487800ea8f5400d2
:10cf200018003a00050037008800780009407800b2
:10cf30007406070080047800120037003800900063
:10cf40000088a3000f00320018019000a800900094
:10cf500048009000eaed070098009000810f500013
:10cf600004003200380090000003b3003004980041
:10cf70008084eb000000eb00100498002800900073
:10cf8000000c7800090078004f04be000000060085
:10cf9000e10f40001c003200310190001220b2006d
:10cfa000e10f510015003a00210290000400e0005a
:10cfb0001200320011019000d1019000830f510046
:10cfc0001000320091017800848f510002003a0075
:10cfd0008308e800020037000201e8009200980090
:10cfe0001101e90082087800b10090000168a300f7
:10cff00005003a0000497800000006000080eb00c0
:10d00000000006000080eb0000000600d001900048
:10d01000028151004240a900030034001001780051
:10d02000014978000208e8000100780000000600cd
:10d030002f02b000889fbe008a9fbe008c9fbe005a
:10d040008e1f780080067800d1af9f0092b79f00b6
:10d050000007eb0044033700dfa897008100e800d9
:10d06000d1af9f0051c2b300814f500003003a007e
:10d070005fa897000006eb0011003700bd0090008c
:10d080000000fb000168a300070032000e017800d9
:10d09000800078000d007800dcff07000000e00051
:10d0a00005003a00300337008d00780075ff070057
:10d0b000e10f40002c0332000e07e8002a0337007e
:10d0c0008000780030417800d3c2b300834f510014
:10d0d0000c00320007003c00edc15100834f5100ad
:10d0e0000a003200ebc14100834f51000d003a00ad
:10d0f0000800370003c3b300834f510009003a0012
:10d10000060037000c30a000edff37000c00a00037
:10d11000ebff37000c10a000e9ff37000c20a00047
:10d12000e7ff37000c18a300010032000c00a1003b
:10d130000c38a300010032000c20a1000200fb000b
:10d140000003b100e90f50000c003e00010178001f
:10d150000000eb006a00b900b201fb000303b1005c
:10d1600000804100820078009201fb000303b100bf
:10d17000e98f5100f7ff3600080037000000eb0090
:10d18000a3c2b300834f510004003a001fb19700bf
:10d190004200780092b79f008100e8008001eb0018
:10d1a000a3b79f00e2c2b300914f11000c003a00f8
:10d1b0000ce0a00064415100d14f11000300320087
:10d1c0000101780003027800090037001fb29700c0
:10d1d000c402780094b79f00a5b79f008100e800c3
:10d1e00001017800090037006a22b9000482410079
:10d1f00082007800b201fb000303b100e98f510007
:10d20000f9ff3600a4b79f00f5ff3700b240780061
:10d21000d2af9f00c3c6b30083cf500025003200b9
:10d220000f003c0032c6b30082cf5000a000320095
:10d2300004003c000104e000d00232006b415100c8
:10d240000f00370042c6b30082cf500017003200f3
:10d250006541410082cf5000b3003a00130037000f
:10d2600032c7b30082cf50001f00320007003c00dd
:10d270006441510082cf5000140032000241e800a6
:10d2800082cf5000a8003a001300370052c7b30005
:10d2900082cf5000ab0032006341410082cf50008a
:10d2a000a1003a00a1d79f000d003700a1d79f0031
:10d2b000a6003700010120000c48a3000100320045
:10d2c000010028000c867000d0ff3700a1d79f0016
:10d2d0000c60a0009d003700a1d79f000c50a0005b
:10d2e0000c70a00099003700a1d79f009fb3970052
:10d2f000c700780097b79f00b1b79f000100e0001a
:10d3000002003a0029242200b9b79f003fb19700dc
:10d310008000eb00010037008100e800e2c17800e6
:10d320000304e000fcff3a00c1b79f002fb597004f
:10d330000a00e00005003200cfb597008b0f5500c2
:10d34000020031008a007800c1b79f00cfb097007b
:10d350000004eb00810f5000010036000104500072
:10d36000680666002b003a00110037003d0090006f
:10d370000068a300070032000e01780001022000bf
:10d380000d00780021ff07000000e00006003a00d1
:10d39000060037008d00780000022000b9fe07006b
:10d3a000e10f4000010032000e07e8000804e90028
:10d3b0000800e000edff3a000084eb0015003700a4
:10d3c0003d0090000068a3000900320008007800ca
:10d3d000b000fb00000478000e0178000d0078001a
:10d3e0000aff07000000e00008003a000f003700c5
:10d3f000880078003100fb00010478008d0078007f
:10d40000a0fe0700e10f4000080032000e07e80010
:10d4100006003700acb79f00080678003fb49700bd
:10d42000cfb497005fb59700efb59700090078007b
:10d430008004e9000000e000e1ff3a00b8b79f0077
:10d44000c9b79f00dab79f00ebb79f000c047800c4
:10d450002fb697000c00e0004302320011003700a5
:10d460003d0090000068a300070032000e01780024
:10d47000010220000d007800e4fe07000000e0003b
:10d4800006003a00060037008d00780000022000f8
:10d490007cfe0700e10f4000010032000e07e800ab
:10d4a0000804e9000800e000edff3a002e02370012
:10d4b0009fb297004504780095b79f00cfc4de0067
:10d4c000614db9000802be000a03be004822de001a
:10d4d000c828dd0004827000a4d79f000c48a30078
:10d4e000090032000404e00007003200e14f42006e
:10d4f00005003200b4d79f00c8d79f00220020004b
:10d50000c2b79f0003003700b8d79f001300200068
:10d51000c3b79f0024fd2f000f0242000402e80061
:10d52000b4b79f0081ff3700a1d79f0025fd2f00d2
:10d5300085824700b5b79f0016002000c6b79f0040
:10d540007aff3700a1d79f000c0cb3008c00780045
:10d55000010cb20032003a000c00e00005003d0072
:10d560009fb097004105be004104be0091b79f00e7
:10d57000080037000c48a3000b0032001fb29700d0
:10d580004401be0094b79f000204be004fcdde00f0
:10d590008a057800b8b79f00c9b79f00dab79f0027
:10d5a000ebb79f00090037009fb49700c9007800cf
:10d5b00099b79f00610ab900612bb900b4b79f0009
:10d5c000c5b79f00d6b79f00e7b79f003fb497004d
:10d5d000cfb497005fb59700efb59700e00f540008
:10d5e000e08f5c00e00f5d00e08f5d0022003d00f9
:10d5f0003c00b3006022b8006033b8000804520059
:10d6000089845a000a055b008b855b00b8b79f00d0
:10d61000c9b79f00dab79f00ebb79f00160037002d
:10d620000c00e00004003d001fb497004803be005a
:10d630004802be00050037000c48a3000500320078
:10d640001fb497004802be006033b80098b79f002f
:10d65000050037009fb49700c900780099b79f0074
:10d66000610ab8006033b800b4b79f00c5b79f0027
:10d67000d6b79f00e7b79f00afb297000500e00064
:10d680000d003a0016002000a6b79f003fb4970097
:10d69000cfb497005fb59700efb59700e00f540047
:10d6a000e08f5c00e00f5d00e08f5d000200320063
:10d6b0008004eb00a9b79f000c0578000a0cb200ab
:10d6c0008ab79f0001042000810f5500340032000a
:10d6d00003003c000a00e000080032004800370068
:10d6e000010820008fb59700818f5500140032008b
:10d6f000010c2000818f550041003a0022252200b4
:10d7000011c0b3003202be003203be003fb4970026
:10d71000cfb497005fb59700efb597000440e100e4
:10d7200005c8e10006d0e10007d8e1003300390068
:10d730008140e800f4cf5000f2ff3a002f0037009c
:10d7400011c0b30004012000050020006033b800c0
:10d750003fb49700cfb497005fb59700efb597003f
:10d760000440e10005c8e10006d0e10007d8e1006f
:10d7700022003900490020000402d0008582d20036
:10d780000683d2008783d2008904e900faff3a00b9
:10d790008140e800f0cf5000edff3a00170037005d
:10d7a00011c0b30084002000050020006033b800e1
:10d7b0003fb49700cfb497005fb59700efb59700df
:10d7c0000440e10005c8e10006d0e10007d8e1000f
:10d7d0000a003900390020000402d0008582d200fe
:10d7e0000683d2008783d2008904e900faff3a0059
:10d7f0008140e800f5cf5000edff3a00a1d79f002f
:10d800002fd597008a00fb00afb597008b8f500093
:10d8100002003d00abd79f00040037002fb19700f6
:10d82000810f510001003d00a1b79f000000e00002
:10d8300003003200e3006600010032000000e9004e
:10d840000ce8a30006003200afb19700830f500030
:10d850000200340003005000010037000000eb001c
:10d860002fd297008400fb008002eb00f5af9f00f1
:10d87000810f50000200340081005000f1af9f0082
:10d880000c28a3003c003200610166000c18a300c4
:10d890000f0032003d0090000068a3000600320037
:10d8a000b10220000200e000010032008180e800a7
:10d8b0000e0178000d003700b00220000200e000e9
:10d8c000010032000080e8008d0078000e00370073
:10d8d0000200e000100032003d0090000068a3004c
:10d8e000070032000e017800010220000d007800d0
:10d8f000c6fd07000000e00006003a000600370001
:10d900008d007800000220005efd0700e10f40005e
:10d91000010032000e07e8007fab97000600e00030
:10d9200052003200060478003d0090000068a30019
:10d93000070032000e017800010320000d0078007e
:10d94000b2fd07000000e00006003a0006003700c4
:10d950008d007800000320004afd0700e10f400021
:10d96000010032000e07e8000804e900eeff3a006b
:10d97000f8af9f003d003700ffab97000700e000c5
:10d98000160032000c38a30014003a000704780097
:10d990003d0090000068a300070032000e017800ef
:10d9a000010220000d00780098fd07000000e00053
:10d9b00006003a00060037008d00780000022000c3
:10d9c00030fd0700e10f4000010032000e07e800c3
:10d9d0000804e900eeff3a00f8af9f00610166001d
:10d9e0000c18a3000f0032003d0090000068a30057
:10d9f00006003200b10220000200e0000100320007
:10da00008180e8000e0178000d003700b002200090
:10da10000200e000010032000080e8008d00780084
:10da20000e0037000200e000100032003d009000c0
:10da30000068a300070032000e01780001022000f8
:10da40000d00780071fd07000000e00006003a00bc
:10da5000060037008d0078000002200009fd070055
:10da6000e10f4000010032000e07e8002fb49700dc
:10da70000800e900c204dd00c9af9f006301b900de
:10da800002057800baaf9f004300dd00a124220008
:10da900081004000e1af9f0098003700afb59700cc
:10daa0008b05e900abb79f00000420008fb0970002
:10dab000808f50006800320003003c000100e0004d
:10dac0000800320073003700000820000fb19700f3
