:020000040000fa
:080000000002040000000000f2
:020000040000fa
:100008000440000006400000084000000a400000cc
:100018000c4000000e40000010400000124000009c
:100028001440000016400000184000001a4000006c
:100038001c4000001e40000020400000224000003c
:100048002440000026400000284000002a4000000c
:100058002c4000002e4000003040000032400000dc
:100068003440000036400000384000003a400000ac
:100078003c4000003e40000040400000424000007c
:100088004440000046400000484000004a4000004c
:100098004c4000004e40000050400000524000001c
:1000a8005440000056400000584000005a400000ec
:1000b8005c4000005e4000006040000062400000bc
:1000c8006440000066400000684000006a4000008c
:1000d8006c4000006e40000070400000724000005c
:1000e8007440000076400000784000007a4000002c
:1000f8007c4000007e4000008040000082400000fc
:100108008440000086400000884000008a400000cb
:100118008c4000008e40000090400000924000009b
:100128009440000096400000984000009a4000006b
:100138009c4000009e400000a0400000a24000003b
:10014800a4400000a6400000a8400000aa4000000b
:10015800ac400000ae400000b0400000b2400000db
:10016800b4400000b6400000b8400000ba400000ab
:10017800bc400000be400000c0400000c24000007b
:10018800c4400000c6400000c8400000ca4000004b
:10019800cc400000ce400000d0400000d24000001b
:1001a800d4400000d6400000d8400000da400000eb
:1001b800dc400000de400000e0400000e2400000bb
:1001c800e4400000e6400000e8400000ea4000008b
:1001d800ec400000ee400000f0400000f24000005b
:1001e800f4400000f6400000f8400000fa4000002b
:0801f800fc400000fe40000085
:020000040000fa
:100208000441000006410000084100000a410000c6
:100218000c4100000e410000104100001241000096
:100228001441000016410000184100001a41000066
:100238001c4100001e410000204100002241000036
:100248002441000026410000284100002a41000006
:100258002c4100002e4100003041000032410000d6
:100268003441000036410000384100003a410000a6
:100278003c4100003e410000404100004241000076
:100288004441000046410000484100004a41000046
:100298004c4100004e410000504100005241000016
:1002a8005441000056410000584100005a410000e6
:1002b8005c4100005e4100006041000062410000b6
:1002c8006441000066410000684100006a41000086
:1002d8006c4100006e410000704100007241000056
:1002e8007441000076410000784100007a41000026
:1002f8007c4100007e4100008041000082410000f6
:100308008441000086410000884100008a410000c5
:100318008c4100008e410000904100009241000095
:100328009441000096410000984100009a41000065
:100338009c4100009e410000a0410000a241000035
:10034800a4410000a6410000a8410000aa41000005
:10035800ac410000ae410000b0410000b2410000d5
:10036800b4410000b6410000b8410000ba410000a5
:10037800bc410000be410000c0410000c241000075
:10038800c4410000c6410000c8410000ca41000045
:10039800cc410000ce410000d0410000d241000015
:1003a800d4410000d6410000d8410000da410000e5
:1003b800dc410000de410000e0410000e2410000b5
:1003c800e4410000e6410000e8410000ea41000085
:1003d800ec410000ee410000f0410000f241000055
:1003e800f4410000f6410000f8410000fa41000025
:0803f800fc410000fe41000081
:020000040000fa
:10040000afe420000e7f22000e01880000000000f3
:10041000000020000000e000020032000001200087
:10042000200288000c00070060e822000100200084
:100430000f000700000020000000e0000200320072
:100440000000020000000000ae2f020000000000cb
:100450000040da000000fe00802e20000000e000d6
:1004600002003200002020009001880000000600f9
:10047000a1028800800078000000eb001a0037001d
:10048000e280400054a0b4009101ba00e280400034
:1004900054a0b4009102ba00e280400054a0b4001d
:1004a0000002eb00472bde00f507b200a601880032
:1004b000602ce10008003a000049eb000201e8006e
:1004c000020039003420ec0002f0a0008301e900b2
:1004d000f9ff3e00040037006128e100010032000e
:1004e0000082eb000b00070011c3ba001101ba0033
:1004f0000604e00003003a000200e000e0ff3a00da
:1005000000000600f607b200a6028800820078000c
:10051000f5ff370004d0a300e20f49001c003900aa
:10052000810278003549ba000201e8000200390072
:100530003420ec0002f0a0008301e9000f0032003b
:100540002549ba000201e800020039003420ec001d
:1005500002f0a0008301e900080032000400e0007e
:100560000600320015c9ba000201e8000200390095
:100570003420ec0002f0a0008301e9008180e80053
:1005800054a0b4000300e000e2ff3a0000000600bf
:100590009102ba00055978008301e900f7ff3200a3
:1005a000c82ade00055978008301e900f3ff320014
:1005b0000400e000f1ff320011d9ba00eeff37006d
:1005c00018300400000000004e2b04000000000062
:1005d000b02b040000000000202c040000000000ec
:1005e000d22b040000000000623004000000000074
:1005f00046060400000000001c110400000000007a
:1006000000000400000000000040da000000fe00ce
:100610000800fa0010079800210798003207980098
:100620000000eb00000f78001e0090000000e900c1
:10063000e10f50000c003e0006003700ae009000b5
:100640001e00780000804000104078001e0fe80077
:10065000c71607009e0078003e009000808f500073
:10066000f6ff3900000000003e0090000080fa0014
:10067000000006000a00fa0011002000b1bf9f0030
:10068000c0bf9f006a805700a00707004fb89700bf
:100690000080fa00000006000a00fa005100200065
:1006a000b1bf9f00c0bf9f006a8057009907070035
:1006b0005fb897000080fa0000000600889fbe0027
:1006c00080047800d06f80000000e00004003a0051
:1006d0000e0007000084eb000000e0000800350079
:1006e000d86f80000900e0000500320009004400d6
:1006f000060007000000e00001003d000084eb0060
:10070000080078004f04be0000000600800078005a
:100710000100e00003003a0000002000d06f8800d4
:10072000000005000080eb0002002000828f5000d6
:1007300002003e00d16f88000000eb0000000600c0
:100740008001780002003700b15978000201e90009
:100750000200e000fcff3a00000006008001780083
:1007600002003700815978000201e9000200e00030
:10077000fcff3a0000000600e1c6200071030700fc
:10078000800078000080eb000100e00004003500ec
:10079000e1c62000a0002000160107004f80de0007
:1007a00000000600020037000304e00006003200eb
:1007b0000001780002007800b041780081cf51003c
:1007c000f9ff3a00010037000001eb000200780059
:1007d00000000600020037000204e0000b003200b7
:1007e000810178000002780030417800b14f51005b
:1007f000f9ff32001000200014427800934f52009d
:10080000030031000080eb00000006000000eb0058
:1008100000000600e4874700889fbe008a9fbe0054
:100820008c1f78008e1f7800000578000107780083
:10083000020678000e00e00001003a006e875700c3
:100840008a0578008b047800890578003b4478009d
:100850000800fb00d20007000000e000f9ff3a00aa
:10086000d0c2b300804f54000300320000c0e90042
:10087000804f540002003a008904e800010037006c
:10088000004478000c0178008e00780009007800a0
:10089000290007009e8f540001003a000a0f7800db
:1008a0009e0f550003003a00e00f5000e08f580003
:1008b0000f003a00b2c2b300824f540004003a0065
:1008c000e00f5000e08f580015003d000800370091
:1008d000d2c2b300824f540011003a00020020003f
:1008e00003002800820f5000838f58000a00360052
:1008f00020022000706f8800f0ff2f00f1ff27001a
:10090000d2c2b300824f540005003a00000020001c
:10091000010028000200370060001000e08018008d
:100920004f0778004f0678004f05be004f04be0009
:100930004f00b10000000600ee874700889fbe0010
:100940008a9fbe008c9fbe008e1f7800f0b79f006c
:100950000106780082057800000478000805780018
:100960000a047800b84678000d00fb008c000700f0
:100970000000e000f9ff3a00d0c2b30080cf56007b
:100980000300320000c0e90080cf560002003a00a8
:100990000a05e80001003700804678000b00e000ff
:1009a00005003500e18f55000300320040022000b1
:1009b000808f5500060034006044b8000c00e00051
:1009c000700032007fb09700000e78006d00370095
:1009d0000b00e0000e003200f08f55001a003a00c4
:1009e00000c3b3009a4f100017003a001a4090005d
:1009f00081c7b300814f50000300320081c5b300ae
:100a0000814f500010003a000a85e8000e003700c0
:100a1000ab00200000c3b3009a4f10000a003a0058
:100a20001a40900081c7b300814f5000040032008b
:100a30008b00200081c5b300814f500002003a00b6
:100a40000a85e8000b0120000a0078000002780007
:100a50000400780001c3b300b0cf1000fbff3200e8
:100a6000040778006044b800b4b79f000d00370059
:100a7000e1cc200081405000c1ef9f006159b900d6
:100a80000800be00c70607004fea97000401fb00fc
:100a9000cf91de00c8b79f00d9b79f000204400085
:100aa000838448008e0278003e00fb0085bf9f00d3
:100ab000430007000b01780080007800e0cc2000a4
:100ac0003c0307008fba97000000e000e8ff3a00ff
:100ad0003fb29700850f550005003a006044b8000a
:100ae0000c00e00027003200ffb29700240037001e
:100af0000482520030cf200060c07d000000fb0067
:100b0000000252001700330011003a004fe997002d
:100b10000200fb00cf80de000000540081805c00fa
:100b2000800f5400818f5c00090039006159b900c1
:100b300085bf9f00880607008fba97004fb19700c6
:100b4000dfb19700820f5000838f580005003200fc
:100b500020022000706f88000084eb008084eb008e
:100b600005003700d0c2b30080cf560002003a0023
:100b700060041400e0841c000c00e000010032005e
:100b8000050e78000800be004f0778004f06be0033
:100b90004f05be004f04be00ef00b100000006008c
:100ba0006900e100040035006d00e100030034003d
:100bb0000002b10001003200000005001000050035
:100bc000800078001104b100030035009101b100ec
:100bd00001003c000050a00000000600806f800073
:100be0000000e0000100320000000100e0de200013
:100bf00000000600889fbe008a1f78000004be0027
:100c0000c900900069009000808f500005003900f5
:100c100009007800010307008080eb000000e0007d
:100c20001600350008457800490090000858780003
:100c3000c00498001900780000b8a30004003a002e
:100c400000a8a30007003200ea4f540005003a0054
:100c500009007800000207008080eb000000e0003f
:100c600006003a0000c020001900600002003200b7
:100c700049009000e00498008a80fb0001007800a1
:100c80004f0578004f04be0000000600889fbe009c
:100c90000004780001007800820478008801780060
:100ca00009017800110020006e020700890f500032
:100cb000010032000004eb00080078004f04be0081
:100cc000000006000000fa00e88157004fb99700c5
:100cd000e1c6200060642000020007000080fa00e6
:100ce000000006006200fa00889fbe008a1f78009c
:100cf0000005780081047800020478008300780001
:100d000080f92f000f004000f60407009a979f001b
:100d1000a9979f000000eb00b09f9f001885fb0083
:100d20008a04fb000a05ea004f55de00500220004d
:100d3000808f54000d003200e10f55000b003a0087
:100d40000a017800880078002f9097009f91970003
:100d500003000100a0979f000000e0008e00320019
:100d60003f9897000000e800b09f9f000a044400ed
:100d700050022000808f5400040032000900e0007f
:100d8000e6ff3a003f989700840037000000eb0030
:100d9000909f9f00809f9f00f0979f00e0979f008b
:100da000d0979f00c0979f0007003700e1d4200034
:100db000010050000000400021d4200061007800b4
:100dc000df98970001007000d09f9f008804780092
:100dd00009047800384578008a00fb00e0d4200040
:100de00070fe07000000e000f0ff3a00a1c2b3006f
:100df000814f55000e003a00cf8897000180e9002e
:100e0000c08f9f0010007800c09f9f000000e0008e
:100e100005003d000000ea00c09f9f005f9897001a
:100e20000020a000d09f9f000904e8000f003700b9
:100e3000c09f9f000000eb0005003700f2ff270075
:100e4000820f5000020032006a01b90002804000a7
:100e50000904780088047800b900fb000103b100a0
:100e6000e98f5000f5ff3600c09f9f00e0c2b3003d
:100e7000984f1000020032000080eb00190037008c
:100e8000a0c2b300d84f100007003a00cf889700e7
:100e90000180e900c08f9f0010007800a09f9f0094
:100ea0000804e800100037000000eb00a09f9f003e
:100eb0008800780005003700f3ff2700830f5000fb
:100ec000020032006a02b900040041000104780007
:100ed000880078003101fb000203b100e90f5100e6
:100ee000f5ff3600a09f9f00984478008900fb0022
:100ef000a0d320002bfe07000000e000020032001b
:100f00000804e800010037008044eb00c97f9f001f
:100f100080c6b30080cf540004003a0098cf14007c
:100f20000a003a006640500006003700c0c6b30011
:100f300080cf540005003a0098cf140003003a0017
:100f400065404000c07f9f000804e8001801fb00d6
:100f5000e3fb2f008f81410081f92f008f8040003b
:100f6000a0f92f000f004000100007000000e00073
:100f700009003a00e1fb2f008f804000a0f92f000c
:100f80000f0040009b0307000000e0000200350056
:100f90000804e80061ff37000080eb004f0578008f
:100fa0004f04be000080fa0000000600889fbe00cb
:100fb0008a1f780000047800e0c6b300804f51001b
:100fc000c100320015003c006b405000804f5100c2
:100fd000240032000a003c0070405000804f510055
:100fe000fa00320065404000804f51006800320036
:100ff00050c2b300804f51000b013a000701370087
:1010000040c6b300804f51001b00320065404000d5
:10101000804f510004013a001700370030c7b30079
:10102000804f5100e900320007003c00644050004e
:10103000804f5100560032000040e800804f5100c0
:10104000f9003a00d300370050c7b300804f510079
:101050004f00320063404000804f5100f2003a00e0
:101060004b0037001181e900820878007800900079
:1010700012417800ea00370028609000c4c6b3002f
:10108000844f500007003a001102780064005200bb
:10109000800878001002be004fabde0086037800a7
:1010a0001100370014c7b300844f50000300320012
:1010b000a4c6b300844f500006003a001102780025
:1010c00068005200800878003002be002003be0095
:1010d000050037001180e9008008780010027800d0
:1010e000cfa2de00612bb900049cbe000694be00b6
:1010f0002860900081c6b300814f50000d0032007f
:1011000021c6b300814f500004003a000402fb00e6
:10111000cfa2de00612bb9000800370041c7b30041
:10112000814f500003003200e6c04000814f500064
:1011300004003a00cfa2de00612bb900049cbe007f
:101140000694be003802be002803be00780090005e
:10115000d1c2b300e00f5200e08f5a00e00f5b00f5
:10116000e08f5b0008003500881090000118a30094
:1011700002003200b1c2b300030037000108a3002f
:101180004c00320001c2b300817178004700370083
:1011900028609000c4c6b300844f500006003a0097
:1011a0001102780064005200800878001002be002e
:1011b0006033b8001100370014c7b300844f5000eb
:1011c00003003200a4c6b300844f500006003a006a
:1011d0001102780068005200800878003002be00da
:1011e0002003be00050037001180e9008008780068
:1011f000100278008002eb006033b800049cbe004f
:101200000694be002860900081c6b300814f500054
:101210000d00320021c6b300814f500004003a0097
:101220000482fb008002eb006033b8000800370046
:1012300041c7b300814f500003003200e6c04000b8
:10124000814f500004003a008002eb006033b80088
:10125000049cbe000694be00081090000038a30055
:10126000140032003802be002803be00e00f520016
:10127000e08f5a00e00f5b00e08f5b000d00320052
:1012800080c7b300804f51000300320080c5b30017
:10129000804f510007003a007800900001c3b3006e
:1012a000817178000000e800827178000000e80099
:1012b00070049800780090008081410063049800d9
:1012c000824078003e00370028619000c3c6b3001a
:1012d0001180e900834f5100220032000a003c00d7
:1012e000e4c15100834f51002500320083c1e80062
:1012f000834f510013003200e8c15100834f510069
:101300001e003a000a00370043c7b300834f510064
:101310001b003200e6c14100834f5100180032002b
:10132000e9c15100834f510014003a000500370015
:101330008008780010007800485c90000848780029
:10134000410037008008780010007800680a90009b
:10135000cfa2de00612bb9000498be000690be004b
:101360003900370080087800100078006809900084
:10137000cf91de000288be00330037001180e90003
:101380008008780010007800680c90000808780049
:101390002d0037001180e9008008780010027800e5
:1013a000cfa2de00612bb900049cbe000694be00f3
:1013b00078009000808141006304980081c7b300e9
:1013c000080078005c0107001f0037001180e90069
:1013d00080087800100578006a049800d80c900006
:1013e0000900e00004003d000a007800fb0007004f
:1013f0008004780007003700090178008000eb00c6
:101400000a007800eb0007000000e0000100320055
:101410008a045000190c98000b00370078009000e7
:1014200082717800060037007800900080814100ca
:101430000204e00001003a0052c2b3008249780081
:101440000000e800700498000000eb004f057800f1
:101450004f04be0000000600889fbe008a1f78006f
:10146000000478000800e0000d003a00c8cb20001e
:10147000700544008004eb00580078000000e00094
:1014800004003200f4ff07000000e00001003d000e
:101490008084eb008a0f5400f7ff3a0025003700e4
:1014a00000002200180060008004eb0021003200e0
:1014b000a80490000f003700090151003840900047
:1014c0000000fb008900780051fc07000000e000ec
:1014d00007003c0028009000400498006004980039
:1014e000500c98001890a0008084eb001100370089
:1014f0008084440048019000828f5400eeff390040
:1015000028009000400498009800780002c0200055
:101510000281600001003a003800900001e8a30059
:10152000020032006004980001003700500c98005f
:101530008004eb00090078004f0578004f04be00de
:1015400000000600889fbe008a9fbe0080047800cd
:10155000010478002c003700c8009000680090005b
:10156000808f50000400390008007800ab000700ad
:101570000000e00037003500004020001800600047
:1015800009003200a100200009007800990007003e
:10159000800578000b00e000030032006185140034
:1015a0000a85450004003700090078008b00070019
:1015b000000578008005eb0048009000e8009000ee
:1015c000808050008a8f50000200310001057800b1
:1015d0008005eb000a0178008900780058fc0700bc
:1015e000480090000a004000400498000b00e00012
:1015f000040032000800780097ff07000000e000b8
:1016000014003a008a8444001904e000d2ff3a0032
:1016100000802000180060000600320008007800fa
:101620008dff0700800078000080eb000100e000e3
:1016300009003a0001c02000988060000000eb0023
:101640000500320048009000600498000000eb00a4
:10165000010037000080eb004f05be004f04be00c4
:1016600000000600889fbe008a9fbe008c9fbe00bf
:101670008e1f7800000678000104780002007800d0
:10168000830478000881b900020778000200e000b6
:10169000420032000800e00041003200820578007c
:1016a000c900900069009000808f5000040039004c
:1016b00009007800590007000000e000290035000b
:1016c00000402000190060000a0032000b01780081
:1016d000a10020000c00780036000700800678008a
:1016e0000d00e00006003200610516000a85460084
:1016f000040037000b0578008006eb00010037007e
:101700000b05780049009000e900900080805000af
:101710008a8f500002003100010578008006eb003e
:101720000a0178008c00780005fc07008a855500c6
:10173000490090000a004000c00498000d00e0003d
:10174000040032000900780043ff07000000e000b9
:1017500004003a000b00e000020032000a064600d6
:10176000cfff370000802000190060000200320027
:101770000900780038ff070000c020001900600051
:101780000200320049009000e00498008b055700e9
:10179000110009008885d800010037000000eb0027
:1017a0004f0778004f06be004f05be004f04be0035
:1017b0000000060003003700b0cf10000500320023
:1017c0000201e900800178000200e000faff3a001f
:1017d000000005000300780000000600800078008b
:1017e000010178003104e000fdff3a0000005100e3
:1017f000000006000001eb0000027800b041780014
:1018000081cf510001003a00040178000304e00098
:10181000f9ff3a000200780000000600889fbe0031
:101820008a1f780000047800c800900068019000ca
:101830000000eb00828f50003c0039001800780057
:101840002200290002016000e20f5100070032006f
:10185000012024000000e00001003d0001202000e4
:10186000008c70000080eb00300037000200260082
:1018700002006000820f500009003a00380090001a
:10188000808f50000600390008007800f2fe070043
:10189000800078000080eb000100e00023003a00a7
:1018a0001805780000c020000000650018003a000c
:1018b000a80490006002200008004000808f5400bf
:1018c00013003a0000202000dc02070020049800ea
:1018d0000000e00005003a0029049800490498003f
:1018e0008904e80039049800080037000a60a00065
:1018f0000a0c7800400498000120200080804000fd
:1019000031049800400c9800500c9800f901070031
:10191000280090005004980038009000600498005f
:1019200000002600180c70000000eb004f05780046
:101930004f04be0000000600fc874700889fbe00e1
:101940008a9fbe008c9fbe008e1f78000006780024
:1019500080c5b30080cf50000a00320077404000bd
:1019600080cf50000a0032006940400080cf500014
:101970000b00320090d2200080bf9f00ae002000fc
:101980000a00370082d1200082bf9f000600370086
:1019900093d2200083bf9f008e00200003003700f9
:1019a00094d2200084bf9f000e0120003c02be00a4
:1019b0002c03be000605be000404be0040c6b300f2
:1019c00080cf5000030032006540400080cf5000bf
:1019d0000b003a00e00f5200e08f5a00e00f5b006e
:1019e000e08f5b0006003d006000b8006011b800a9
:1019f0000404500085845800060559008785590065
:101a0000e80f57000400320040002000f00f57009c
:101a100038003a000100370030002000e00f540089
:101a2000e08f5c00e00f5d00e08f5d0004003a0095
:101a3000dc0890008d0120000100e000060032006b
:101a40008e00e900888060008fba9700e5c07800ba
:101a5000f1ef9f007d012000800078008100e90007
:101a6000050033008b05d1000a85d3008984d3009b
:101a70000884d300f9ff3700089ebe000a96be0016
:101a8000120037008d06e9008e00e90084806000b6
:101a90000fb99700e2c1780082fd2f000f014100cd
:101aa00003f17e00800078008100e900050033002a
:101ab0008783d1000683d3008582d3000482d300bc
:101ac000f9ff3700049ebe000696be003c02be0031
:101ad0002c03be00e00f5200e08f5a00e00f5b00c5
:101ae000e08f5b008b0034000d00e000e5ff3c0060
:101af000880037002c60900081c6b300814f5000f1
:101b00000b00320006003c000004e0000800320038
:101b1000e6c05000814f50004e003a0004003700ec
:101b2000c1c6b300814f50004a003a00210037007f
:101b30000800e00004003a005c0890008d012000dd
:101b40000000e00006003200110009000e84d800f9
:101b50000fb99700e2c07800f1ef9f007d012000ef
:101b6000110009000e84d8000a0037001100090096
:101b70000e04d8008d06e9000e81b900020454005d
:101b80008fb8970061417c0081fd2f008f8040005d
:101b900082f07e00000478000800e00002003200bd
:101ba0000d00e000f1ff3c00cfc4de00614db90044
:101bb00025003700e00f5400e08f5c0004003a007d
:101bc0005c0890008d0120000000e000070032005a
:101bd0006171b9000800be006f0207008fb997005d
:101be000e3417800f3ef9f007d0120006171b900af
:101bf0000800be00580207000b0037006171b900f1
:101c00000800be00450207008d06e90000f1b9009a
:101c1000020454000fba9700e4427c0084fd2f00b8
:101c20000f02420005f27e000004be00e00f5000eb
:101c3000e08f5800020032000d00e000efff3c0092
:101c40004fcdde008a057800089ebe000a96be00d1
:101c500030003700e00f5400e08f5c00e00f5d00c3
:101c6000e08f5d0004003a005c0890008d012000c8
:101c70000000e000090032006172b900612bb90078
:101c80000800be000a01be00ec0207000fba970070
:101c900064427800f4ef9f007d0120006172b9007a
:101ca000612bb9000800be000a01be00dc0207007b
:101cb0000d0037006172b900612bb9000800be0049
:101cc0000a01be00e10207008d06e90000f2b9003a
:101cd000040454008fba970065427c0085fd2f00f4
:101ce0008f82420084f27e00009ebe000296be00fb
:101cf0003c04be002c05be00e00f5400e08f5c00e9
:101d0000e00f5d00e08f5d00020034000d00e00098
:101d1000e8ff3c00e80f570010003a000c1090005c
:101d20000038a3000d003200f78f560006003e0079
:101d300085fd2f008f824200e5c07e0000c3b30006
:101d400080cf5000050032008d06e90002c3b300c9
:101d500081fd2f008f80400082f07e007881160088
:101d6000120e98006c00900083fd2f008f814100bf
:101d70008d80410072fa07001c089000dc0890007a
:101d8000810f500006003d0000805000000e9800ba
:101d90000c1090000040a100001698000f003700c2
:101da0000100e0000d003d008c109000f480600008
:101db000f08f500009003a007c099000fc00900070
:101dc000810051000c09900082805000008050007a
:101dd0004240a90001003400000e98004f0778002f
:101de0004f06be004f05be004f04be00cf01b1003c
:101df000000006000400fa00889fbe008a9fbe0013
:101e00008c1f78000004780001067800f80d90001f
:101e10007800900080855500080890008085550066
:101e2000180890008085550028089000808555008e
:101e3000380890008085550048089000808555003e
:101e40000002220090bf9f0000032300a0bf9f005c
:101e5000081090000028a30015003a000b00e000d5
:101e6000130034000b0578008a047800e20f550057
:101e70000100360029002000c80190000901780007
:101e8000ee805700580090000300010050049800b5
:101e90000000e0008c00320068089000090040005b
:101ea000600c9800090555004240a900eeff3c0077
:101eb000780190000200e0000c003400c80190009e
:101ec0008c00780058009000030001005004980036
:101ed0008080eb000000e0007c003200e808900009
:101ee0007800900000804000600c9800880c900002
:101ef0000900e0001100340009057800e28f540069
:101f0000010036002a002000c80190000a01780074
:101f1000ec80570058009000030001005004980026
:101f20000000e00068003200680890000a004000ed
:101f3000600c98008a845400edff37001809900067
:101f40000200e0000c003400c8019000e80090009e
:101f50005800900003000100500498008080eb00be
:101f60000000e00059003200e808900018089000d6
:101f700000804000600c9800a80c90000900e00070
:101f80001100340009057800e28f5400010036008a
:101f90002a002000c80190000a017800ec80570058
:101fa0005800900003000100500498000000e00079
:101fb00045003200680890000a004000600c98005c
:101fc0008a845400edff3700380990000200e000d9
:101fd0000e003400e8009000180890008080400057
:101fe000c8019000580090000300010050049800c0
:101ff0008080eb000000e00034003200e808900030
:102000003808900000804000600c9800c80c9000d8
:102010000900e0001100340009057800e28f540047
:10202000010036002a002000c80190000a01780053
:10203000ec80570058009000030001005004980005
:102040000000e00020003200680890000a00400014
:10205000600c98008a845400edff3700081090004f
:102060008000eb000028a300180032000b00e00005
:10207000160034008b04780009057800e28f5400c4
:10208000010036002a002000c80190000a017800f3
:10209000ee805700580090000300010050049800a3
:1020a0000000e00008003200680890000a004000cc
:1020b000600c98008a8454004240a900eeff3c0066
:1020c0008000eb00010037008080eb000100780009
:1020d0004f0678004f05be004f04be000080fa0096
:1020e000000006000108780000000600c011210071
:1020f00061003700881f780068df20001804e000c6
:1021000003003a00f9ff070020c0b300004c78003c
:102110004f04780000000600889fbe00000478008d
:1021200008007800ccfc0700800478000004200040
:102130001800600002003200280090005a000700da
:102140000000eb0020049800384090000004e000fc
:10215000050035000000fb0046f907000000e00024
:10216000010032008084eb00181090000000e000b5
:102170000800320048f907000000e00001003200ca
:102180008084eb0018109000470007000000eb006f
:10219000101498000008200018006000150032009c
:1021a0000001eb006000b800e3cb20000202d00089
:1021b00063027a00880f520005003a0000004000d8
:1021c00081804800008041000008eb0006003700d5
:1021d00061004000e08048000201e800e80f500084
:1021e000e08f5800f0ff3a00080078002e0007004a
:1021f0000e003700000c780000c0eb00304498005f
:10220000600220000800400020049800400498006c
:1022100050049800400c980060049800500c9800fe
:102220007004980076004400000c980009007800c3
:102230004f04be0000000600881f78000004eb0079
:102240006140b800e2ff2f00f3ff2f00d500070028
:10225000c2cc2000620078000000e00001003200e3
:10226000adff07000804e800e80f5400f4ff3a004f
:102270004f04780000000600010020000100e0008b
:1022800008003200010080000100e000050032007b
:102290008100e900010088008100d0000200800078
:1022a00000b17800000006000000e0002f003200be
:1022b000c0017800e38f51002c0036000308a30012
:1022c0002a003a00a16f80000100e0000200320005
:1022d000810f50000400310011009800a06f8800a9
:1022e0001600370082007800110190000200e00023
:1022f00002003200800f5100faff3900110278000d
:1023000084824000850f500018003900808f5200f1
:1023100003003a00830842000100780007003700fc
:102320000200e0000300320083014000830f5100ef
:102330000e00390012009800900098009000900064
:102340000100e0000900320010014000828f5000bf
:1023500006003a0022df20000009eb00100178009f
:102360001108410091009000110098000000060043
:10237000889fbe0000047800916f80000100e0009b
:1023800002003200010078000d003700a16f8000cc
:1023900040df200004003700910f54002500360074
:1023a0000180e800910090000100e000faff3a008f
:1023b00010003700920f54001e0036000280e80023
:1023c000100178000200e000faff3a0011017800e5
:1023d000a16f800040df200004003700910f5400ff
:1023e000140036000180e80091009000828f5000b8
:1023f000faff3a00c96f8000888f54000100310055
:102400008804780009007800360007000000e0002a
:1024100004003a00888f5400050032008904d1007e
:10242000f5ff3700091878009fff0700d2ff37003b
:102430000000eb004f04be0000000600881f78007b
:10244000630440000800a1008000eb00800f5400ee
:1024500021003600e30f540001003e004800200038
:1024600008007800c2ff07008000eb000000e000d9
:1024700019003200900078009101780064815100c9
:10248000880f51000300310011019000020878000c
:102490000700370008814000020878009101900091
:1024a00013019800100178001109140088087800c1
:1024b000100178000000eb000200e0000400320090
:1024c000920190000300e000010032000280e80069
:1024d000906f88008180e800010078004f04780048
:1024e00000000600800078000000eb000100e00022
:1024f000050034000100780070f80700e10f40008b
:1025000001003a000000eb000000060000c0da0005
:102510000000060000c0da0000000600839f68008b
:102520000100e00002003d0060001000e0801800a3
:102530000300e00002003d0060011100e08119008d
:10254000050007004f00e00002003b0060001000a3
:10255000e0801800000006006022b800060220009b
:102560000000d0008180d2000482d2008582d20097
:102570000000a0000202520083825a0003003100d2
:102580000202420083824a000000a1000603e90023
:10259000f3ff3a0000000600efff07000400be0052
:1025a00000000600020ab900001bb9000200b800d2
:1025b000810042008100430000000600889fbe00a9
:1025c0008a9fbe0030044200b0844a0030054b00b0
:1025d00090854b006000b1000898be000a90be00d4
:1025e0000440e10005c8e10006d0e10007d8e100a1
:1025f00002003100680040001008e8004f05be00ee
:102600004f04be0000000600889fbe008a9fbe00e7
:102610003004be002005be000418540005985c007c
:1026200006185d0007985d00110020000440e100dd
:1026300005c8e10006d0e10007d8e100010039003b
:102640008000eb00108810004f05be004f04be0054
:10265000000006001200fa00889fbe008a9fbe009c
:102660008c9fbe00e0b79f00f1b79f0082bf9f0024
:1026700093bf9f000605be000404be000000eb00ef
:10268000d0b79f00c0b79f00b0b79f00a0b79f0012
:1026900090b79f000006eb005fb19700cfb09700a6
:1026a000820141003fb097000200e00004003d00bd
:1026b000370007007e805700c0ff07000300370087
:1026c000330007007e805700cfff0700dfb697007a
:1026d0000d00e0000c0035006fb29700ffb29700cc
:1026e0000fbb97009fbb9700100020000100200047
:1026f0006011b80000027200818272000203730050
:10270000838373001b0007000c06e800010420000f
:10271000810f5600e0ff3a000d00e00004003d008c
:102720000802be000a03be007e805700a3ff070018
:102730005fa897000000e00005003a001fb2970074
:10274000afb297003fb39700cfb3970009000700df
:102750006fb09700ffb097000fb997009fb997002f
:102760004f06be004f05be004f04be000080fa00b9
:10277000000006000100070000000600a4b79f004b
:10278000b5b79f00c6b79f00d7b79f0000000600ef
:102790004f09de0082817100b3b79f004f01de0058
:1027a0008180400082807000a1b79f008fb09700a9
:1027b0004f09de00000040000200700090b79f004b
:1027c0007fa897004f01de0081804000828070006a
:1027d00081b79f000d0007004f3ade000000400067
:1027e00004007000f0af9f000800070004024200e0
:1027f00085824a0006034b0087834b00dfff0700fa
:102800000802be000a03be00000006002fb29700b7
:10281000bfb297004fb39700dfb3970000000600e8
:10282000881f780018002000881f780089ff0700a3
:102830008f87e9004f04780000000600801feb003e
:1028400084ff07008f87e90000000600889fbe0014
:102850008a9fbe00e00f5000e08f5800e00f590043
:10286000e08f59000c003d006044b8006055b8008e
:102870000000540081805c0002015d0083815d00e6
:10288000180020001500070008003d001800070090
:102890000004eb00050037000004eb000f00070008
:1028a00002003d001200070018002000dcff0700b6
:1028b0000800e000060032006022b8006033b80073
:1028c0000000520081805a0002015b0083815b009e
:1028d0004f05be004f04be0000000600e00f52008e
:1028e000e08f5a00e00f5b00e08f5b000000060005
:1028f0006044b8006055b8000402540085825c0052
:1029000006035d0087835d0000000600889fbe000f
:102910008a9fbe008c1f7800e00f5000e08f5800a7
:10292000e00f5900e08f59000d003d006044b800f1
:102930006055b8000000540081805c0002015d0019
:1029400083815d001c0020000820e10009a8e1004f
:102950000ab0e1000bb8e1000d003d0008003700af
:102960000006eb00e00f5200e08f5a00e00f5b0022
:10297000e08f5b0006003d006044b8006055b80081
:102980000402540085825c0006035d0087835d00bd
:10299000aaff07000c00e000060032006022b80029
:1029a0006033b8000000520081805a0002015b00d1
:1029b00083815b004f0678004f05be004f04be00c8
:0429c000000006000d
:020000040000fa
:1029c40073740000617400007573000000650000fa
:1029d400546f000077650000722000002874000026
:1029e4006d290000202d000020520000756e0000ab
:1029f4006e6900006e670000206200006f6f0000c7
:102a0400746c00006f6100006465000072000000d7
:102a14006c65000064000000626f00006f740000c9
:102a24006c6f0000616400006572000000630000c8
:102a34006174000000480000656c00006c6f0000c9
:102a4400207700006f7200006c640000210a00000f
:102a540000720000756e0000004300006f6d0000fe
:102a64006d6100006e640000207500006e6b000054
:102a74006e6f0000776e00003a200000257300009e
:102a84000a0000003c250000753e00002000000004
:102a940045720000726f0000723a0000204e000080
:102aa4006f2000004c4500004420000073700000bb
:102ab4006563000069660000696500006400000049
:102ac4003200000045720000726f0000723a00008c
:102ad400204e00006f2000004c4500004420000000
:102ae400257300000a00000045720000726f0000a8
:102af400723a0000204c000045440000202d0000e4
:102b0400206e00006565000064200000746f000002
:102b1400207300007065000063690000667900009e
:102b2400206100006e2000006163000074690000f1
:102b34006f6e0000006f00006e0000006f66000002
:102b440066000000746f0000676700006c65000099
:102b540000450000727200006f7200003a2000000d
:102b64004c450000442000002d200000416300007b
:102b7400746900006f6e00002025000073200000bf
:102b8400696e0000766100006c690000640a000050
:102b940000450000727200006f7200003a200000cd
:102ba400426f00006f7400006c6f000061640000ed
:102bb400657200003a2000006e6f00002061000082
:102bc40063740000696f00006e20000073700000e1
:102bd4006563000069660000696500006400000028
:102be400726500006164000000720000656100000d
:102bf400645f000063680000756e00006b000000f5
:102c0400666900006e6400005f6300006875000080
:102c14006e6b00005f6500006e64000000770000ca
:102c2400726900007465000000770000726900009a
:102c3400746500005f630000687500006e6b00003f
:102c4400006500007261000073650000004500002b
:102c5400727200006f7200003a200000426f0000a0
:102c64006f7400006c6f0000616400006572000006
:102c74003a200000496e0000766100006c69000093
:102c84006420000061630000746900006f6e00003e
:102c940020250000730a0000004500007272000045
:102ca4006f7200003a200000426f00006f74000051
:102cb4006c6f000061640000657200003a2000003f
:102cc4004e6f000020610000646400007265000023
:102cd40073730000207300007065000063690000d6
:102ce4006669000065640000005200006561000030
:102cf40064200000616400006472000065730000d9
:102d0400732000003078000025300000346c00008f
:102d1400782000002d3e00002030000078250000bf
:102d2400303600006c780000200a000000430000e8
:102d3400687500006e6b00002069000073200000bd
:102d4400667200006f6d00002030000078250000de
:102d5400303600006c780000207400006f20000002
:102d64003078000025300000366c0000780a00003e
:102d7400004e00006f20000063680000756e0000c4
:102d84006b200000617400002030000078250000f2
:102d9400303400006c7800000a0000004572000026
:102da400726f0000723a0000204200006f6f000052
:102db400746c00006f61000064650000723a0000ea
:102dc400204e00006f200000646100007461000068
:102dd40020730000706500006369000066690000ec
:102de4006564000000450000727200006f7200000c
:102df4003a200000426f00006f7400006c6f000006
:102e040061640000657200003a2000004e6f00000b
:102e140074200000656e00006f7500006768000094
:102e2400206400006174000061000000307800003c
:102e340025300000386c000078200000646f00002a
:102e44006e6500000a00000012010000000200008c
:102e54000200000000080000cdba000001000000dc
:102e6400010000000103000000010000090200004d
:102e7400430000000201000000c00000320900000d
:102e84000400000000010000020200000100000034
:102e940005240000001000000104000024020000ca
:102ea40000050000240600000001000005240000c5
:102eb4000100000001070000058100000308000074
:102ec400000200000904000001000000020a0000e2
:102ed400000000000007000005020000024000009e
:102ee400000000000705000082020000400000000e
:102ef4000000000004030000090400001e03000099
:102f0400420000006c000000610000006e00000040
:102f1400630000006800000061000000720000000f
:102f24006400000020000000690000006e00000042
:102f3400630000002e000000240300006500000070
:102f4400540000006f0000007700000065000000de
:102f54007200000020000000490000005200000040
:102f640020000000420000006c000000610000002e
:102f7400730000007400000065000000720000008f
:102f8400389700007c970000809700009e9700000f
:020000040000fa
:102f94000200fa009ec0a9008ac1a8000080eb00cc
:102fa400702088000080eb00502088002a24ef0065
:102fb400420020008000eb00c0422000e6f507003c
:102fc4002624ef002824ef000644a900f00920007d
:102fd40080208800f00920006020880002c4a80036
:102fe4000804a80000e020004800de00c02088009b
:102ff4000040eb00004f7800070037001e80fb0004
:10300400c200dd0000e02000008140006000b80044
:103014000089be001e4fe8001e407800e54f5000b6
:10302400f6ff36001424a8001624ef0014a4a90007
:103034001424a900800020005020880080e2200091
:103044008040eb0001487800e0e220008040eb0083
:1030540001487800f0e2200090407800e0c0600071
:103064000148780000e3200090407800e0c0600050
:103074000148780050208000680060000000e000f3
:10308400ecff3a0010c0b3001fe8b70010c0b30053
:1030940020e8b7002168ef002268ef001968ef000c
:1030a4000040eb00004f7800150037001e80fb0045
:1030b4008000400000e22000008040008000eb001f
:1030c400010878001e80fb0080004000a0e1200081
:1030d400008040008000eb00010878001e80fb00a7
:1030e40031e320000041eb00827078001e80fb0079
:1030f40061e320000041eb00827078001e4fe8007d
:103104001e407800e24f5000e8ff360040e0200007
:1031140000718800d00020005021880090e3200036
:103124001070880000e0200081c0b30001487800de
:1031340010e0200041c0b3000148780010e02000f6
:103144009040780000c8b30080c0700010e02000f8
:10315400014878000e68ef002428ef002628ef00cd
:103164002868ef000c28ef000080fa000000060039
:103174000200fa00604080000000e00012003a0003
:103184001424ef000c24ef002624ef002824ef0081
:103194000644a900f009200080208800f0092000de
:1031a4006020880002c4a800010037001404a800ad
:1031b400a0208000610060000000e000fbff3200fe
:1031c400100020006040880060408000e10f500043
:1031d4000c003a00a1208000000420000080600060
:1031e4000000e00007003a000080eb005020880057
:1031f4000c24ef000c04a8000c84a800200020007c
:103204006040880000208000700060000000e00042
:103214000700320010208000700060000000e00011
:10322400030032000001200000208800330407005e
:1032340040208000620060000000e00002003200d4
:103244008ec0a9007b003700502080006100600020
:103254000000e0000900320060208000610060008e
:103264000000e0000500320049ff07004000200094
:10327400604088001000200050208800502080000a
:10328400700060000000e000050032006020800053
:10329400700060000000e000010032000a04070032
:1032a4000120800000042000008060000000e00095
:1032b4000300320000042000002088004e060700ae
:1032c40050208000640060000000e0001400320020
:1032d40060208000640060000000e0000400320010
:1032e400120020008000eb00300720007c0b070058
:1032f40040002000502088001dc8bf000004e000ea
:10330400030032001dc8bf000040e9001de8b700fb
:103314001dc8bf000004e00001003a0026010700b8
:103324005120800000082000008060000000e000c0
:103334000600320061208000000820000080600048
:103344000000e00001003200c203070050208000aa
:10335400620060000000e0000c0032006020800089
:10336400620060000000e00008003200120020004b
:103374008000eb00f0ff2700590b07000080eb00f2
:1033840070208800200020005020880060408000c9
:10339400e30f500002003e008ec0a9002500370054
:1033a40060208000680060000000e000200032001f
:1033b4000040eb00004f78001800370050208000d8
:1033c400680060000000e0001800320090208000d7
:1033d400004078001ae8b7001ac8bf000080fb005c
:1033e4004400de00004078001be8b70080002000a5
:1033f400502088001bc8bf000004e00002003a000f
:10340400ca030700040037000001eb00a18120007b
:1034140020072000320b07001e4fe8001e407800f2
:10342400e34f5000e5ff36000100370000000000c4
:103434008ec0a9000080fa00000006000400fa0013
:1034440020479800314798003e4090000080fb00e0
:10345400680060000000e000030032008040eb00e0
:103464002e409000360107003e4090000080fb0093
:10347400640060000000e0000300320011c0b300eb
:103484002e4090002e010700a14220002e40900003
:103494000080fb0000004000008f40001e00780008
:1034a400be409000014878000080fa000000060049
:1034b4000800fa0020479800314798002207980036
:1034c400634798003e4090000004e000070032008b
:1034d4002e4090000080fb008000400000e22000ad
:1034e40000804000100f7800060037002e40900046
:1034f4000080fb0080004000a0e12000008040002c
:10350400100f78001e0078000000e00002003a006e
:103514000000eb003b0037001e0078009040900054
:1035240000c4b30080c068001e00780011409800f9
:10353400ae0090001e007800110098001e00780074
:10354400ee409000014878001e0078001040900082
:1035540002c4b300824060001e007800114098004d
:103564001e00780010409000804078000134a000d4
:103574001e007800114098001e00780090409000d2
:1035840000c8b30080c070001e007800114098008d
:103594003e4090000004e0000d00320001e22000f3
:1035a4002e4090000080fb0000004000808040001e
:1035b40002e220002e4090000080fb00000040004a
:1035c4000000410010407800804878000c0037006b
:1035d400a1e120002e4090000080fb00000040008c
:1035e40080804000a2e120002e4090000080fb007b
:1035f400000040000000410010407800804878003e
:103604001e0078000080fa00000006000400fa00a2
:1036140020479800314798002e4090000004e000b5
:1036240019003a009040800081c0b300014878003e
:103634009040800091e320001100980090408000a9
:10364400c1c0b300114098009040800091408000b8
:103654001141900001c8b3008140710011409800ed
:103664000071800041c0b3001140980000718000d7
:10367400017180001141900001c8b30081407100c4
:1036840011409800160037002e4090000080fb0087
:1036940000004000800078003e4090000080fb0065
:1036a40000804000c200dd0000e02000008f4000e8
:1036b4001e00780010409000804078000124a00093
:1036c4001e007800114098001e0078009040900081
:1036d40000c8b30080c070001e007800114098003c
:1036e4000080fa00000006000200fa00004f780093
:1036f400a120800000022000008060000000e000a3
:103704002b0032001e80fb008000400000e22000fd
:1037140000804000100278001e80fb008000400002
:1037240000e2200000804000100078001001be007c
:1037340000042000010020008202780003017800c8
:10374400800178000100780083826200000061003b
:103754008000eb00c000dd00000020000001be007e
:103764006128b8000001710081817100028abe00e5
:103774001e80fb008000400000e22000008040002a
:10378400100278001e80fb008000400000e2200050
:1037940000804000100078001001be0000042000ea
:1037a400010020000000690081806900008abe00d9
:1037b4000080fa00000006000000fa001fc8bf00e5
:1037c4000004a2000004e0002500320010c0b30091
:1037d4001fe8b70020c8bf000004a2000004e000f6
:1037e4001f00320010c0b30020e8b70015c8bf00a6
:1037f400e24f50000d003a00007180008040eb0061
:10380400014878000071800081c4b3001140980021
:1038140000718000017180001141900001c8b30063
:1038240081407100114098000d00370015c8bf0099
:10383400e14f50000a003a001c68ef0090408000fd
:1038440081c0b300014878009040800091e32000db
:10385400110098009040800001c8b3001140980006
:103864000080fa00000006000000fa002168ef0062
:103874002268ef0015c8bf00e24f500010003a0064
:103884009040800081c0b3000148780090408000df
:1038940011e42000110098009040800081c4b3001e
:1038a40011409800904080009140800011419000a8
:1038b40001c8b30081407100114098001e00370018
:1038c400f0e320001080fb0001e420009180fb0065
:1038d400c808dd000100700080007800507180008d
:1038e400808f500007003100f0e320001080fb00bf
:1038f40001e420009180fb00c808dd000100700095
:1039040050718800950007000071800011e42000c8
:10391400110098000071800081c4b3001140980028
:1039240000718000017180001141900001c8b30052
:1039340081407100114098000080fa0000000600e8
:103944000400fa00204798003147980000e0200066
:10395400000f78002e4090000080fb000000400023
:10396400800078003e4090000080fb000080400012
:103974004200dd001e0f40009e0078001100780018
:1039840000f0a100800878003e4090000004e000b0
:1039940007003a002e4090000080fb0080004000a9
:1039a400a0e12000008040001e08780006003700d7
:1039b4002e4090000080fb008000400000e22000c8
:1039c400008040001e0878009e00780011007800f6
:1039d40000e0a000800878000080fa0000000600e3
:1039e4000000fa0014a4a90041718000000820001e
:1039f400008060000000e00029003a00e0e22000be
:103a04009040780000c8b30000c060000004e000eb
:103a14000a00320020c0b30015e8b70022c8bf0076
:103a24000004a2000004e000010032008eff070041
:103a34002068ef001f68ef004600370090408000c8
:103a440081c0b300014878009040800091e32000d9
:103a54001100980090408000c1c0b300114098004c
:103a640090408000914080001141900001c8b30053
:103a740081407100114098000071800041c0b30082
:103a84001140980000718000017180001141900084
:103a940001c8b30081407100114098002d00370027
:103aa40090e320009040780000c8b30000c060009c
:103ab4000004e0000f00320010c0b30015e8b700a6
:103ac40021c8bf000004a2000004e000010032008d
:103ad40065ff07002068ef001f68ef001ec8bf00e5
:103ae4000004a2000004e0001a00320032ff0700c4
:103af4001800370020c0b30015e8b70090408000dc
:103b040081c0b300014878009040800091e3200018
:103b1400110098009040800041c0b300114098000b
:103b240090408000914080001141900001c8b30092
:103b340081407100114098002068ef001f68ef0079
:103b44001ec8bf000004a2000004e000010032000f
:103b540019ff07000080fa00000006000200fa00c6
:103b640080c0b300004f780050718000e70f500010
:103b74000d003e0050718000004f780014c8bf0053
:103b84000004e00003003a0010c0b30014e8b700da
:103b94000500370014c8bf00e14f500002003a008e
:103ba40020c0b30014e8b700517180001e80fb00f0
:103bb4000080500050718800007180001e48780019
:103bc40010e42000b0408800407180006100600073
:103bd4000000e00017003a0009003700b1408000ff
:103be4003071800010417800824878008100e8003c
:103bf400b14088000000e800307188001e4fe900e1
:103c04001e4078000004e000f4ff3a000c00370086
:103c1400b140800030718000104178008248780003
:103c24008100e800b14088000000e800307188009d
:103c34001e4fe9001e4078000004e000f4ff3a0043
:103c44000080fa00000006000200fa0080408000b4
:103c5400104f78009e80fb00f0e220001080fb00f3
:103c640002e320001281fb004811dd000200700015
:103c7400808f500007003600f0e220001080fb0027
:103c840001e320009180fb00c808dd000100700002
:103c9400004f7800f0e220001080fb0001e32000d8
:103ca4009180fb00c808dd000100700080007800ee
:103cb4001e80fb0000805000f10f20000101600015
:103cc400f1e2200091417800e0c1610002c171007d
:103cd40082487800c800de0000e32000104178002c
:103ce4006041610081407100014878000040eb00b0
:103cf400104798001c003700c0e220001080fb0031
:103d0400d1e220009180fb00c808dd0001007000b2
:103d14009e4090008180fb0012e42000e2c0780005
:103d2400014878000000e800f10f20000101600064
:103d3400c1e2200091417800e0c1610002c171003c
:103d440082487800c800de00d0e2200010417800ec
:103d54006041610081407100014878001e4090007c
:103d64000040e800104798001e4090009e4f50000d
:103d7400e1ff3900f0e220001080fb0001e32000a5
:103d84009180fb00c808dd00010070000000e00025
:103d9400200032009040800081c0b30001487800c8
:103da4009040800011e420001100980080408000c1
:103db4009000780000002400008060000000e00013
:103dc4000a003a009040800081c4b300114098007a
:103dd40090408000914080001141900001c8b300e0
:103de40081407100114098003100370090408000fc
:103df40081c0b30011409800904080009140800041
:103e04001141900001c8b300814071001140980035
:103e1400270037009040800081c0b300014878003b
:103e24009040800091e320001100980090408000b1
:103e340041c0b30011409800904080009140800040
:103e44001141900001c8b3008140710011409800f5
:103e540010e320001080fb0021e320009180fb0090
:103e6400c808dd00010070000000e0000700320017
:103e740010e320001080fb0021e320009180fb0070
:103e8400c808dd000100700000000100e1e220002c
:103e9400114078000070a100804878001ec8bf005f
:103ea4000004a2000004e0000100320042fe07000a
:103eb4000080fa00000006000200fa004071800051
:103ec4000070a00040718800420020008000eb00d8
:103ed400c042200020f20700820120008000eb0095
:103ee40000e020001cf207001424a8000040eb00ae
:103ef400004f7800090037001e80fb0031e32000ea
:103f04000041eb00827078001e80fb0061e320001a
:103f14000041eb00827078001e4fe8001e407800dc
:103f2400e24f5000f4ff3600220020008000eb0036
:103f340080e1200008f207001424a90040e02000da
:103f44000071880000e020008040880080408000ec
:103f540090408800b0e32000104078000ee8b700dd
:103f64000ec8bf000004e00003003a000001200076
:103f7400604088000600370012002000e180200025
:103f8400100020005608070000022000604088004e
:103f94000080fa00000006000000fa0090e3200010
:103fa4009040780000c8b30080cf500047003a002a
:103fb40080e2200001ccb30001487800c0e3200077
:103fc400104078000080fb00e20f5000090032002e
:103fd400e30f500023003200e10f500037003a0095
:103fe400607229003071880020012000507188001f
:103ff40036003700b0e32000104078000004e000f1
:1040040014003a00b0e32000104078000080fb0068
:104014000000400080007800207c290000804000df
:104024001000780030718800307180000080e80052
:1040340090407800a0e220000148780030718000b0
:104044006300400090407800b0e22000014878000e
:104054001e00370080e220008040eb000148780019
:104064001a003700b0e3200010407800e24f5000ff
:104074000e003e00b0e32000104078000080fb00fa
:104084000000400080007800407c2900008040004f
:104094001000780030718800307180001040780082
:1040a4000080fb00507188000800370080e2200087
:1040b4008040eb00014878000400370080e22000d3
:1040c4008040eb0001487800000000000080fa0006
:1040d400000006000200fa0010e420008040eb001b
:1040e4000148780020e420008040eb00014878007b
:1040f40090e32000904078007fc060000080fb00c7
:10410400e10f500011003200e20f500013003200a2
:104114000000e00040003a00407180000070a00000
:104124004071880018c8bf000004e0003500320068
:1041340010e4200010407800804078000114a000b2
:1041440010e42000014878003300370040718000fb
:104154000070a000407188002f003700407180007b
:104164000070a00040718800d0e3200090407800e7
:1041740000c8b30000c060000004e00009003a0079
:10418400d0e32000904078006fc060000080fb0006
:1041940080004000a0e1200000804000100f780063
:1041a40008003700d0e32000904078006fc0600022
:1041b4000080fb008000400000e2200000804000fe
:1041c400100f78001e00780090007800000028008e
:1041d400008060000000e0000c0032001e00780047
:1041e4009000780000402000008060000000e000a3
:1041f4000800320010e4200011c0b3000148780028
:104204000500370000000000030037000000000034
:104214000100370000000000417180000008200008
:10422400008060000000e0000800320010e420007c
:1042340030718800407180000000a0004071880047
:10424400a0e2200021c0b300014878000080fa00f9
:10425400000006000000fa005021800062006000a7
:104264000000e00014003200804080009040900084
:1042740000c8b30080cf50000e003a0000718000e7
:104284009040900040c8b30080cf500009003a002d
:1042940080408000c1c0b30011409800804080007d
:1042a400814080001141900001c8b3008140710039
:1042b400114098002a24a9000008200050208800fa
:1042c4000080fa00000006000000fa000284a80042
:1042d400000120005020880010c0b30019e8b70086
:1042e4002868ef000001eb008000eb00500720007d
:1042f4007b0707000080fa00000006000000fa00b7
:104304001968ef000001eb008000eb00400720007b
:10431400730707000284a900000120000020880020
:104324002868ef000080fa00000006000000fa0090
:1043340040c6b3001de8b7001ac8bf008080fb0068
:10434400b0ff2f00008060000000e00020003a0071
:104354001ac8bf000080fb004200de000040780065
:104364000080fb00c200dd0000e02000008040006f
:104374008040880080408000904088002081200098
:10438400218120009140780001487800804080001d
:104394009000780000c0230080806000004023006b
:1043a400808f500008003a00804080001000900088
:1043b400820020008000780090e32000dff00700f6
:1043c4000c00070009003700400007000700370011
:1043d4001ac8bf008080fb00b0ff2f00008060007f
:1043e400e80f500001003a00560007000080fa0070
:1043f400000006000000fa001468ef001e68ef00d9
:104404002168ef002268ef001c68ef001568ef00d8
:104414000071800001718000914090000174a1003e
:104424001140980000e2200001e220009140780051
:104434000148780000718000017180009140900073
:104444000174a1001140980000e2200001e2200064
:1044540091407800014878009040800091408000ad
:10446400914090000174a1001140980080e2200066
:104474008040eb00014878000000eb005071880098
:10448400e0e220008040eb0001487800f0e22000e8
:1044940090407800e0c060000148780000e320000c
:1044a40090407800e0c06000014878008700070071
:1044b4000001eb008000eb0030002000080707003b
:1044c40047fd07000080fa00000006000000fa0023
:1044d40015c8bf00e24f500002003a00dafd0700a1
:1044e400160037001568ef001cc8bf000004a200c6
:1044f4000004e000100032009040800081c0b3004e
:10450400014878009040800091e320001100980059
:1045140090408000c1c0b3001140980090408000da
:10452400914080001141900001c8b30081407100a6
:1045340011409800010037001c68ef000080fa0069
:10454400000006000200fa000071800010007800ec
:104554004e00de0061406000004f780000e2200061
:1045640001e220009140780001487800604080001a
:10457400e80f50000e003a00b0e32000104078002d
:104584008080fb00f007200000806000b0208800dd
:10459400b02080000000e000030032000001200091
:1045a400604088000200370040002000604088001e
:1045b40015c8bf00e14f500028003a000071800088
:1045c40011e420001100980064fd070014c8bf0026
:1045d400e24f50000a003a000071800041c0b3006d
:1045e4001140980000718000017180001141900019
:1045f40001c8b300814071001140980031003700b8
:104604001e4078000004e0000a003a0000718000b7
:1046140081c4b300114098000071800001718000d2
:104624001141900001c8b30081407100114098000d
:10463400240037000071800081c0b300114098004d
:1046440000718000017180001141900001c8b30025
:1046540081407100114098001a003700e0e2200008
:104664009040780000c8b30000c060000004e0007f
:104674001300320010e320001080fb0021e320002f
:104684009180fb00c808dd00010070000000e0001c
:104694000700320010e320001080fb0021e320001b
:1046a4009180fb00c808dd000100700000000100db
:1046b400e1e22000114078000070a10080487800f9
:1046c4001568ef000080fa00000006000000fa0000
:1046d40090e32000104078000046b2000004e0009f
:1046e40050003a00a0e32000104078000080fb0056
:1046f400cf80de00b200200003002000820f5000b3
:10470400838f580049003e000060010021003700fb
:1047140022003700470037002000370045003700eb
:10472400060037000b003700390037000d00370052
:104734000a0037001b0037002a0037004071800050
:104744000070a00040718800800020006040880054
:104754003900370010fe070037003700d6fd070088
:1047640035003700e08020003071880040718000ff
:104774000000a00040718800a0e2200011c0b30036
:1047840001487800407180000070a00040718800ea
:10479400290037004ffe07002700370028000700d4
:1047a40025003700d0e32000104078008080fb0013
:1047b40080e120000080400030718800407180005a
:1047c4000000a00040718800a0e2200011c0b300e6
:1047d40001487800407180000070a000407188009a
:1047e40015003700407180000070a00040718800ff
:1047f400d0e32000104078000080fb00b1e32000eb
:104804001141780081e12000827078000a003700ad
:104814000001eb008000eb002000200030060700c0
:10482400050037000000000003003700000000000e
:1048340001003700000000000080fa0000000600bc
:104844000600fa00b0e3200010407800e14f500069
:1048540010003a0090e32000104078007f40600090
:104864000004e0000b003a00407180000070a000da
:1048740040718800a0e3200010407800e34f50000e
:1048840003003a0010c0b30018e8b7000100370075
:104894001868ef00b0e32000104078000004e00046
:1048a400d3003a0090e32000104078007f4060007d
:1048b400e24f5000ce003a00d0e3200010407800d0
:1048c4006f4060000004e000c9003200d0e3200023
:1048d400904078006fc060000080fb00e20f500041
:1048e400c3003c006140800000022000808f500023
:1048f400bf003a00407180000070a0004071880041
:10490400d0e320009040780000c8b30000c06000ed
:104914000004e00010003a00d0e3200010417800c9
:104924006f4061000080fb0080004000a0e1200097
:1049340000804000100f7800d0e320009040780001
:104944006fc060000080fb0061e3200061407800dc
:10495400404798000f003700d0e320001041780052
:104964006f4061000080fb008000400000e22000f6
:1049740000804000100f7800d0e3200090407800c1
:104984006fc060000080fb0031e3200061407800cc
:1049940040479800d0e320009040780000c8b3005e
:1049a40000c060000004e0000a003a00d0e32000e8
:1049b400104178006f4061000080fb009e00780089
:1049c40000014000a0e1200000004100010878003f
:1049d40009003700d0e32000904078006fc06000e9
:1049e4000080fb009e0078000001400000e22000ef
:1049f4000000410001087800a0e320001040780086
:104a0400e34f50002c003a001e007800900078001c
:104a140000002800008060000000e000190032005f
:104a2400d0e320009040780000c8b30000c06000cc
:104a34000004e0000a003a00d0e3200010417800ae
:104a44006f4061008080fb0060e3200080804000b4
:104a5400114078000010a000804878000900370059
:104a6400d0e32000904078006fc060008080fb009d
:104a740030e3200080804000114078000010a00046
:104a8400804878001e007800104090008040780034
:104a94000124a0001e007800114098001e00780038
:104aa4009040900000c8b30080c070001e007800e1
:104ab400114098004e0037004e4090006240600064
:104ac4000004e00006003a001e0078009000780020
:104ad40000002800008060000000e0002a0032008e
:104ae400d0e320009040780000c8b30000c060000c
:104af4000004e0000a003a00d0e3200010417800ee
:104b04006f4061008080fb0060e3200080804000f3
:104b1400114078000010a100804878000900370097
:104b2400d0e32000904078006fc060008080fb00dc
:104b340030e3200080804000114078000010a10084
:104b4400804878001e00780010409000b2c7b3007f
:104b5400824060001e007800114098001e0078001a
:104b64009040900000c4b30080c070001e00780024
:104b740011409800220020009e0078005000200080
:104b8400570507000c0037001e0078001040900005
:104b9400b2c7b300824060001e0078001140980044
:104ba4001e0078009040900000c4b30080c07000e4
:104bb4001e00780011409800a1422000d0e320009c
:104bc400104178006f4061000080fb00000040004d
:104bd40000804000100798001e009000904078006c
:104be400d0cfb30080c060001e0090000148780060
:104bf4000080fa00000006000000fa002041800056
:104c04003141800061004000e0804800204188007c
:104c14003141880019c8bf000004a2000004e0006c
:104c24000800320028c8bf000040e80028e8b700a8
:104c340028c8bf000004e00002003a0000c0eb00f6
:104c440028e8b7000080fa00000006000000fa001f
:104c540020418000314180000080fa0000000600fd
:104c64000000fa0037000700e0418000104078009f
:104c74000004e00031003200e04180008000780050
:104c8400204e2900d2ee07000000e00003003a00a5
:104c9400904e2900b7ee070028003700e04180005d
:104ca40080007800a0502900c9ee07000000e00051
:104cb40002003a008900070020003700e04180002c
:104cc40080007800e0502900c1ee07000000e000f9
:104cd40002003a00cc00070018003700e0418000d1
:104ce4008000780090512900b9ee07000000e00030
:104cf40003003a00d0512900d00207000f0037000a
:104d0400e041800080007800b0522900b0ee070036
:104d14000000e00003003a0000420200000000002e
:104d240006003700e0418000801f7800f05229001f
:104d3400801f7800e2ef0700e48757000080fa0044
:104d4400000006000000fa00f041800010407800e6
:104d54000004e00002003a000040eb0010003700bd
:104d6400f0418000e0418800e04180000102200021
:104d74008bee0700f0418800f04180000000e00065
:104d840006003200f04180008040eb0001487800ca
:104d9400f04180000000e800f041880010c0b3003a
:104da4000080fa00000006000200fa00004f7800bc
:104db40001428000e03f2000808f500028003e0028
:104dc4001e407800e84f500007003a00004280007f
:104dd4000000e00023003200004280000000e900ef
:104de400004288001f00370000c2b3009e407800d4
:104df40080cf500012003a00004280000000e00022
:104e040018003200004280000000e90061842000a4
:104e1400e140780000c2b30080cf5000110032009e
:104e240000428000618420001e4178008270780076
:104e3400004280000000e8000042880009003700ba
:104e440000428000618420001e4178008270780056
:104e5400004280000000e8000042880001003700a2
:104e6400000000000080fa00000006000000fa00c4
:104e740000428000618420000041eb0082707800d1
:104e840077ff0700020007000080fa000000060018
:104e94000000fa00104280000000e8001042880080
:104ea4004028ef00024020008000eb0060842000d6
:104eb40029ee070060842000f04188001042800041
:104ec400801f780040542900801f78007cef070081
:104ed400e48757000080fa00000006000000fa0092
:104ee40098ff0700e0418000104078000004e000d3
:104ef40003003a00a05429001eee07000c003700fe
:104f0400e0418000800078002056290030ee070040
:104f14000000e00006003200e0418000801f7800bd
:104f240040562900801f780065ef0700e48757008a
:104f340084ff0700e0418000104078000004e00096
:104f440003003a00605729000aee07002c003700de
:104f5400e041800080007800d05929001cee070051
:104f64000000e00002003a008461a8002400370039
:104f7400e041800080007800005a290014ee070008
:104f84000000e00002003a008461a9001c00370020
:104f9400e041800080007800405a29000cee0700b0
:104fa4000000e00010003a00200c8000680060005f
:104fb40000f0a7000000ea000000e9004f00de0056
:104fc400004078000080fb00610060004300dd00c9
:104fd400220c800071ff2f0081006100010070002d
:104fe400200c880006003700e0418000801f780014
:104ff400b05a2900801f780031ef0700e48757007a
:105004000080fa00000006000000fa004dff0700cf
:10501400e0418000104078000004e00003003a0002
:10502400b05c2900d3ed070036003700e041800072
:1050340080007800205f2900e5ed07000000e00013
:1050440002003a00310007002e003700e0418000e2
:1050540080007800705f2900dded07000000e000ab
:1050640002003a004600070026003700e0418000b5
:105074008000780020602900d5ed07000000e000e2
:1050840002003a00670007001e003700e04180007c
:105094008000780010612900cded07000000e000d9
:1050a40002003a00a100070016003700e04180002a
:1050b4008000780070612900c5ed07000000e00061
:1050c40002003a00bb0007000e003700e0418000f8
:1050d4008000780030622900bded07000000e00088
:1050e40002003a00e900070006003700e0418000b2
:1050f400801f780090622900801f7800f0ee07007e
:10510400e48757000080fa00000006000800fa0057
:105114000cff0700e0418000104078000004e0002c
:1051240003003a00f064290092ed070012003700f2
:10513400e0418000020120008000eb00b4ed070094
:10514400008fbe001e00be0060020700200798000a
:10515400310798002e009000be009000809fbe0092
:105164001e00be00809fbe0070672900801f78006b
:10517400d3ee0700ea8757000080fa00000006001b
:105184000800fa00effe0700e041800010407800bc
:105194000004e00003003a00f064290075ed070004
:1051a4001e003700e0418000020120008000eb0077
:1051b40097ed0700008fbe000d0037002e00900011
:1051c400be009000809fbe001e00be00809fbe00f7
:1051d40070672900801f7800b9ee0700ea8757003e
:1051e40022002000030020001e0f41005e974900aa
:1051f4001e00be0035020700200798003107980002
:105204002e019000be019000f0ff2f00f10f20004e
:10521400800f5100818f5900e8ff3a000080fa00a6
:10522400000006000c00fa00c6fe0700e041800002
:10523400104078000004e00003003a00f064290004
:105244004ced070037003700e041800002012000e8
:105254008000eb006eed07002007980031079800ee
:105264002e019000be019000028fbe000a0037009c
:1052740022002000030020001e0f41005e97490019
:10528400e05f2100010020001e01be00800f5100dc
:10529400818f59000c003e001e00be000b02070067
:1052a40040079800510798004e019000de019000dd
:1052b400f0ff2f00f10f2000800f5100818f590063
:1052c400ebff3a0001003700000000002e009000c0
:1052d400be009000be0f5000ae8f58000a0032008e
:1052e4001e00be00809fbe002e009000be009000f5
:1052f400809fbe0090692900801f780070ee07002f
:10530400ea875700070037002e009000be00900087
:10531400809fbe00b06b2900801f780068ee0700f4
:10532400e68757000080fa00000006000800fa0033
:1053340084fe0700e0418000104078000004e00093
:1053440003003a00f06429000aed07001700370053
:10535400e0418000020120008000eb002ced0700fa
:10536400008fbe0077fe0700e04180001040780007
:105374000004e00003003a00006d2900fdec070082
:105384000a003700e0418000020120008000eb00a9
:105394001fed070020079800310798002e019000a8
:1053a400be0190001e00be00e20107000080fa006a
:1053b400000006000601fa00881f780061fe07005d
:1053c4000004a2000004e00003003200f06429009d
:1053d400e8ec07002a003700e041800002012000c9
:1053e4008000eb000aed07001007980021079800e1
:1053f4000040eb00004f78001100370051fe070019
:105404000004a2000004e00003003200506f2900f1
:10541400d8ec07001a0037001e84fb00e04180002e
:10542400020120008000eb00f9ec07004241dd009e
:1054340002014700660141000089be001e4fe800da
:10544400f0c3b3009e40780080cf5000ebff3600dd
:1054540066004700000178001e009000ae00900036
:10546400d80107001e009000ae009000809fbe008f
:1054740080712900801f780011ee0700e68757002d
:105484004f0478000080fa00000006000400fa00cf
:105494002cfe0700e0418000104078000004e0008a
:1054a40003003a00f0642900b2ec0700070037005b
:1054b400e0418000020120008000eb00d4ec0700f2
:1054c400008fbe001e00be00f50107000080fa0038
:1054d400000006000000fa0090e32000104078006d
:1054e4007f406000e14f500029003a0090e3200023
:1054f4001040780002c6b3008240600000c2b300ce
:1055040080cf500024003a00d0e3200010407800ff
:105514000004e00004003200d0e3200010407800d2
:10552400e14f50001e003a00a0e320001040780034
:105534000080fb000000e00003003200e10f500097
:105544000c0032001700370060de20003071880044
:105554008000200050718800407180000000a0008d
:1055640040718800407180000070a0004071880084
:105574000c00370060de200030718800407180002c
:105584000070a00040718800000000000500370092
:105594000000000003003700000000000100370095
:1055a400000000000080fa00000006000000fa007d
:1055b40000202c0011002000a06e8800b16e88002d
:1055c40080dd20008040eb000148780090dd200061
:1055d4008040eb0001487800a0dd200081c0b300ca
:1055e400014878002a68ef0051c1b30010c0b3002d
:1055f40092f70700d1c1b30020c0b3008ff70700b2
:1056040003c4b30042d920008040eb0020c0b300a3
:10561400a7f70700904188003428ef002b68ef00bb
:105624000080fa00000006000600fa00000f78006f
:1056340011079800220798001e007800e50f50001b
:1056440012003a00904180009e009000808f50002c
:1056540006003a0003c4b30042d920008040eb00a6
:1056640020c0b30092f7070090418800a041800059
:105674009e009000808f500002003a002b68ef00db
:105684003068ef0010c0b300010037000040eb00a9
:105694000080fa00000006000400fa00000f780001
:1056a400214798002a68ef00904180000000e00044
:1056b400060032009041800090007800000028002d
:1056c400008060000000e00021003a00904180006a
:1056d400904078002e40900080cf500003003100ad
:1056e4009041800090407800214798002a68ef009c
:1056f4000c0037002ac8bf000080fb001e004000d9
:10570400a1822000914078008180fb0042d92000d2
:10571400e2c07800014878002ac8bf000040e800d1
:105724002ae8b700a1822000914078002e40900022
:1057340080cf5000efff390003c4b30042d92000ea
:105744008040eb0020c0b30059f707009041880067
:105754002ac8bf000080fa00000006000400fa0016
:10576400000f7800214798002bc8bf000004e00018
:1057740009003a009e00780061418800ae40900024
:10578400028320000149780010c0b30031e8b7005b
:1057940010c0b3002be8b7000080fa000000060038
:1057a4000600fa00200798002bc8bf000004e000a0
:1057b4001f003a000040eb00004f7800ae0090005c
:1057c400110798001e4fe8001e407800e14f40008a
:1057d4000c0032001e009000104078000080fb0096
:1057e4000000ea004f00de00004078009e009000b8
:1057f4008100e800110798000004e000f1ff3a007e
:1058040001003700000000002e0090006041880075
:105814009e407800028320000149780010c0b30044
:1058240031e8b70010c0b3002be8b700010037001f
:10583400000000000080fa00000006000600fa00e4
:10584400200798002bc8bf000004e0001e003a00a7
:105854000040eb00004f7800ae0090001107980064
:105864001e4fe8001e407800e14f40000c0032005b
:105874001e009000104078000080fb000000ea0049
:105884004f00de00004078009e0090008100e80098
:10589400110798000004e000f1ff3a00010037000e
:1058a400000000002e009000604188009e407800b7
:1058b40002832000014978003168ef0010c0b30072
:1058c4002be8b70001003700000000000080fa0058
:1058d400000006000200fa00a04180000000e00081
:1058e40006003200a04180009000780000002800eb
:1058f400008060000000e00060003a002bc8bf0098
:10590400e34f500001003a002b68ef002bc8bf00a2
:105914000004e0005b0032002bc8bf00e24f5000df
:1059240009003a008041eb000001eb0011c0b30014
:1059340020c0b300def60700a041880030c0b300e9
:105944002be8b700500037002bc8bf00e14f5000d0
:105954004d003a00018320009140780000c4b30058
:1059640080cf50000300360000c4b300004f78001d
:10597400030037000183200091407800014f780034
:1059840030c8bf001e40500030e8b70040d52000aa
:10599400704188009e4078001147980031c8bf00cc
:1059a4000004e0001f003a000d0037007041800041
:1059b4006141800091407800014878007041800086
:1059c4000000e80070418800604180000000e800a9
:1059d400604188001e4090000040e9001047980094
:1059e4001e4090000004e000f0ff3a001000370071
:1059f4007041800061418000914078000148780046
:105a0400704180000000e80070418800604180001f
:105a14000000e800604188001e4090000040e9005a
:105a2400104798001e4090000004e000f0ff3a0088
:105a340030c8bf000004e00009003a0000c4b3000d
:105a44009e40780080cf500003003a0020c0b3008d
:105a54002be8b7000200370030c0b3002be8b700d2
:105a64009e41780042d5200011c0b30020c0b3008d
:105a74008ff60700a04188000300370000000000f3
:105a840001003700000000000080fa00000006005a
:105a94000000fa008001230040408800e0b42200a6
:105aa4000040880000bb22001040880000c2220091
:105ab4003040880020bd22002040880020062300ba
