:020000040000fa
:080000000002040000000000f2
:020000040000fa
:04000800e40200000e
:020000040000fa
:04000c00e40200000a
:020000040000fa
:04001000e402000006
:020000040000fa
:04001400e402000002
:020000040000fa
:04001800e4020000fe
:020000040000fa
:04001c00e4020000fa
:020000040000fa
:04002000e4020000f6
:020000040000fa
:04002400e4020000f2
:020000040000fa
:04002800e4020000ee
:020000040000fa
:04002c00e4020000ea
:020000040000fa
:04003000e4020000e6
:020000040000fa
:04003400e4020000e2
:020000040000fa
:04003800e4020000de
:020000040000fa
:04003c00e4020000da
:020000040000fa
:04004000e4020000d6
:020000040000fa
:04004400e4020000d2
:020000040000fa
:04004800e4020000ce
:020000040000fa
:04004c00e4020000ca
:020000040000fa
:04005000e4020000c6
:020000040000fa
:04005400e4020000c2
:020000040000fa
:04005800e4020000be
:020000040000fa
:04005c00e4020000ba
:020000040000fa
:04006000e4020000b6
:020000040000fa
:04006400e4020000b2
:020000040000fa
:04006800e4020000ae
:020000040000fa
:04006c00e4020000aa
:020000040000fa
:04007000e4020000a6
:020000040000fa
:04007400e4020000a2
:020000040000fa
:04007800e40200009e
:020000040000fa
:04007c00e40200009a
:020000040000fa
:04008000e402000096
:020000040000fa
:04008400e402000092
:020000040000fa
:04008800e40200008e
:020000040000fa
:04008c00e40200008a
:020000040000fa
:04009000e402000086
:020000040000fa
:04009400e402000082
:020000040000fa
:04009800e40200007e
:020000040000fa
:04009c00e40200007a
:020000040000fa
:0400a000e402000076
:020000040000fa
:0400a400e402000072
:020000040000fa
:0400a800e40200006e
:020000040000fa
:0400ac00e40200006a
:020000040000fa
:0400b000e402000066
:020000040000fa
:0400b400e402000062
:020000040000fa
:0400b800e40200005e
:020000040000fa
:0400bc00e40200005a
:020000040000fa
:0400c000e402000056
:020000040000fa
:0400c400e402000052
:020000040000fa
:0400c800e40200004e
:020000040000fa
:0400cc00e40200004a
:020000040000fa
:0400d000e402000046
:020000040000fa
:0400d400e402000042
:020000040000fa
:0400d800e40200003e
:020000040000fa
:0400dc00e40200003a
:020000040000fa
:0400e000e402000036
:020000040000fa
:0400e400e402000032
:020000040000fa
:0400e800e40200002e
:020000040000fa
:0400ec00e40200002a
:020000040000fa
:0400f000e402000026
:020000040000fa
:0400f400e402000022
:020000040000fa
:0400f800e40200001e
:020000040000fa
:0400fc00e40200001a
:020000040000fa
:04010000e402000015
:020000040000fa
:04010400e402000011
:020000040000fa
:04010800e40200000d
:020000040000fa
:04010c00e402000009
:020000040000fa
:04011000e402000005
:020000040000fa
:04011400e402000001
:020000040000fa
:04011800e4020000fd
:020000040000fa
:04011c00e4020000f9
:020000040000fa
:04012000e4020000f5
:020000040000fa
:04012400e4020000f1
:020000040000fa
:04012800e4020000ed
:020000040000fa
:04012c00e4020000e9
:020000040000fa
:04013000e4020000e5
:020000040000fa
:04013400e4020000e1
:020000040000fa
:04013800e4020000dd
:020000040000fa
:04013c00e4020000d9
:020000040000fa
:04014000e4020000d5
:020000040000fa
:04014400e4020000d1
:020000040000fa
:04014800e4020000cd
:020000040000fa
:04014c00e4020000c9
:020000040000fa
:04015000e4020000c5
:020000040000fa
:04015400e4020000c1
:020000040000fa
:04015800e4020000bd
:020000040000fa
:04015c00e4020000b9
:020000040000fa
:04016000e4020000b5
:020000040000fa
:04016400e4020000b1
:020000040000fa
:04016800e4020000ad
:020000040000fa
:04016c00e4020000a9
:020000040000fa
:04017000e4020000a5
:020000040000fa
:04017400e4020000a1
:020000040000fa
:04017800e40200009d
:020000040000fa
:04017c00e402000099
:020000040000fa
:04018000e402000095
:020000040000fa
:04018400e402000091
:020000040000fa
:04018800e40200008d
:020000040000fa
:04018c00e402000089
:020000040000fa
:04019000e402000085
:020000040000fa
:04019400e402000081
:020000040000fa
:04019800e40200007d
:020000040000fa
:04019c00e402000079
:020000040000fa
:0401a000e402000075
:020000040000fa
:0401a400e402000071
:020000040000fa
:0401a800e40200006d
:020000040000fa
:0401ac00e402000069
:020000040000fa
:0401b000e402000065
:020000040000fa
:0401b400e402000061
:020000040000fa
:0401b800e40200005d
:020000040000fa
:0401bc00e402000059
:020000040000fa
:0401c000e402000055
:020000040000fa
:0401c400e402000051
:020000040000fa
:0401c800e40200004d
:020000040000fa
:0401cc00e402000049
:020000040000fa
:0401d000e402000045
:020000040000fa
:0401d400e402000041
:020000040000fa
:0401d800e40200003d
:020000040000fa
:0401dc00e402000039
:020000040000fa
:0401e000e402000035
:020000040000fa
:0401e400e402000031
:020000040000fa
:0401e800e40200002d
:020000040000fa
:0401ec00e402000029
:020000040000fa
:0401f000e402000025
:020000040000fa
:0401f400e402000021
:020000040000fa
:0401f800e40200001d
:020000040000fa
:0401fc00e402000019
:020000040000fa
:04020800e40200000c
:020000040000fa
:04020c00e402000008
:020000040000fa
:04021000e402000004
:020000040000fa
:04021400e402000000
:020000040000fa
:04021800e4020000fc
:020000040000fa
:04021c00e4020000f8
:020000040000fa
:04022000e4020000f4
:020000040000fa
:04022400e4020000f0
:020000040000fa
:04022800e4020000ec
:020000040000fa
:04022c00e4020000e8
:020000040000fa
:04023000e4020000e4
:020000040000fa
:04023400e4020000e0
:020000040000fa
:04023800e4020000dc
:020000040000fa
:04023c00e4020000d8
:020000040000fa
:04024000e4020000d4
:020000040000fa
:04024400e4020000d0
:020000040000fa
:04024800e4020000cc
:020000040000fa
:04024c00e4020000c8
:020000040000fa
:04025000e4020000c4
:020000040000fa
:04025400e4020000c0
:020000040000fa
:04025800e4020000bc
:020000040000fa
:04025c00e4020000b8
:020000040000fa
:04026000e4020000b4
:020000040000fa
:04026400e4020000b0
:020000040000fa
:04026800e4020000ac
:020000040000fa
:04026c00e4020000a8
:020000040000fa
:04027000e4020000a4
:020000040000fa
:04027400e4020000a0
:020000040000fa
:04027800e40200009c
:020000040000fa
:04027c00e402000098
:020000040000fa
:04028000e402000094
:020000040000fa
:04028400e402000090
:020000040000fa
:04028800e40200008c
:020000040000fa
:04028c00e402000088
:020000040000fa
:04029000e402000084
:020000040000fa
:04029400e402000080
:020000040000fa
:04029800e40200007c
:020000040000fa
:04029c00e402000078
:020000040000fa
:0402a000e402000074
:020000040000fa
:0402a400e402000070
:020000040000fa
:0402a800e40200006c
:020000040000fa
:0402ac00e402000068
:020000040000fa
:0402b000e402000064
:020000040000fa
:0402b400e402000060
:020000040000fa
:0402b800e40200005c
:020000040000fa
:0402bc00e402000058
:020000040000fa
:0402c000e402000054
:020000040000fa
:0402c400e402000050
:020000040000fa
:0402c800e40200004c
:020000040000fa
:0402cc00e402000048
:020000040000fa
:0402d000e402000044
:020000040000fa
:0402d400e402000040
:020000040000fa
:0402d800e40200003c
:020000040000fa
:0402dc00e402000038
:020000040000fa
:0402e000e402000034
:020000040000fa
:0402e400e402000030
:020000040000fa
:0402e800e40200002c
:020000040000fa
:0402ec00e402000028
:020000040000fa
:0402f000e402000024
:020000040000fa
:0402f400e402000020
:020000040000fa
:0402f800e40200001c
:020000040000fa
:0402fc00e402000018
:020000040000fa
:04030000e402000013
:020000040000fa
:04030400e40200000f
:020000040000fa
:04030800e40200000b
:020000040000fa
:04030c00e402000007
:020000040000fa
:04031000e402000003
:020000040000fa
:04031400e4020000ff
:020000040000fa
:04031800e4020000fb
:020000040000fa
:04031c00e4020000f7
:020000040000fa
:04032000e4020000f3
:020000040000fa
:04032400e4020000ef
:020000040000fa
:04032800e4020000eb
:020000040000fa
:04032c00e4020000e7
:020000040000fa
:04033000e4020000e3
:020000040000fa
:04033400e4020000df
:020000040000fa
:04033800e4020000db
:020000040000fa
:04033c00e4020000d7
:020000040000fa
:04034000e4020000d3
:020000040000fa
:04034400e4020000cf
:020000040000fa
:04034800e4020000cb
:020000040000fa
:04034c00e4020000c7
:020000040000fa
:04035000e4020000c3
:020000040000fa
:04035400e4020000bf
:020000040000fa
:04035800e4020000bb
:020000040000fa
:04035c00e4020000b7
:020000040000fa
:04036000e4020000b3
:020000040000fa
:04036400e4020000af
:020000040000fa
:04036800e4020000ab
:020000040000fa
:04036c00e4020000a7
:020000040000fa
:04037000e4020000a3
:020000040000fa
:04037400e40200009f
:020000040000fa
:04037800e40200009b
:020000040000fa
:04037c00e402000097
:020000040000fa
:04038000e402000093
:020000040000fa
:04038400e40200008f
:020000040000fa
:04038800e40200008b
:020000040000fa
:04038c00e402000087
:020000040000fa
:04039000e402000083
:020000040000fa
:04039400e40200007f
:020000040000fa
:04039800e40200007b
:020000040000fa
:04039c00e402000077
:020000040000fa
:0403a000e402000073
:020000040000fa
:0403a400e40200006f
:020000040000fa
:0403a800e40200006b
:020000040000fa
:0403ac00e402000067
:020000040000fa
:0403b000e402000063
:020000040000fa
:0403b400e40200005f
:020000040000fa
:0403b800e40200005b
:020000040000fa
:0403bc00e402000057
:020000040000fa
:0403c000e402000053
:020000040000fa
:0403c400e40200004f
:020000040000fa
:0403c800e40200004b
:020000040000fa
:0403cc00e402000047
:020000040000fa
:0403d000e402000043
:020000040000fa
:0403d400e40200003f
:020000040000fa
:0403d800e40200003b
:020000040000fa
:0403dc00e402000037
:020000040000fa
:0403e000e402000033
:020000040000fa
:0403e400e40200002f
:020000040000fa
:0403e800e40200002b
:020000040000fa
:0403ec00e402000027
:020000040000fa
:0403f000e402000023
:020000040000fa
:0403f400e40200001f
:020000040000fa
:0403f800e40200001b
:020000040000fa
:0403fc00e402000017
:020000040000fa
:100400000f4121000e7f22000e0188000000000035
:10041000000020000000e000020032000001200087
:10042000200288000c000700e005220001002000e7
:100430000f000700000020000000e0000200320072
:100440000000020000000000141e02000000000076
:100450000040da000000fe00c00a20000000e000ba
:1004600002003200002020009001880000000600f9
:10047000a1028800800078000000eb001a0037001d
:10048000e280400054a0b4009101ba00e280400034
:1004900054a0b4009102ba00e280400054a0b4001d
:1004a0000002eb00472bde00f507b200a601880032
:1004b000602ce10008003a000049eb000201e8006e
:1004c000020039003420ec0002f0a0008301e900b2
:1004d000f9ff3e00040037006128e100010032000e
:1004e0000082eb000b00070011c3ba001101ba0033
:1004f0000604e00003003a000200e000e0ff3a00da
:1005000000000600f607b200a6028800820078000c
:10051000f5ff370004d0a300e20f49001c003900aa
:10052000810278003549ba000201e8000200390072
:100530003420ec0002f0a0008301e9000f0032003b
:100540002549ba000201e800020039003420ec001d
:1005500002f0a0008301e900080032000400e0007e
:100560000600320015c9ba000201e8000200390095
:100570003420ec0002f0a0008301e9008180e80053
:1005800054a0b4000300e000e2ff3a0000000600bf
:100590009102ba00055978008301e900f7ff3200a3
:1005a000c82ade00055978008301e900f3ff320014
:1005b0000400e000f1ff320011d9ba00eeff37006d
:1005c00044030400000000000040da000000fe00c8
:1005d0008001780002003700b15978000201e9007b
:1005e0000200e000fcff3a000000060080017800f5
:1005f00002003700815978000201e9000200e000a2
:10060000fcff3a000000060000017800820178003b
:100610003204e000fdff3a0003017800b1417800a8
:10062000035978000304e000fcff3a0000000600d4
:10063000020037000204e0000b0032008101780064
:100640000002780030417800b14f5100f9ff3200cc
:100650001000200014427800934f52000300310034
:100660000080eb00000006000000eb000000060028
:1006700080007800010178003104e000fdff3a00bd
:100680000000510000000600881f78000204780076
:1006900008017800ceff0700080040004f047800f2
:1006a000000006000000fa00881f780000047800af
:1006b000ea8157003fb99700880078004034200055
:1006c000070007000000e000020035008040eb005a
:1006d000017478004f0478000080fa0000000600e2
:1006e0006200fa00889fbe008a1f7800000578002b
:1006f00081047800020478008300780080f92f00dc
:100700000f004000a70307009a979f00a9979f003a
:100710000000eb00b09f9f001885fb008a04fb00df
:100720000a05ea004f55de0050022000808f540079
:100730000d003200e10f55000b003a000a0178006d
:10074000880078002f9097009f9197000300010088
:10075000a0979f000000e0008e0032003f989700b5
:100760000000e800b09f9f000a04440050022000ef
:10077000808f5400040032000900e000e6ff3a00d8
:100780003f989700840037000000eb00909f9f0087
:10079000809f9f00f0979f00e0979f00d0979f0059
:1007a000c0979f0007003700c126210001005000bc
:1007b000000040000126210061007800df989700ca
:1007c00001007000d09f9f00880478000904780021
:1007d000384578008a00fb00c02621007a01070016
:1007e0000000e000f0ff3a00a1c2b300814f5500c5
:1007f0000e003a00cf8897000180e900c08f9f006b
:1008000010007800c09f9f000000e00005003d0040
:100810000000ea00c09f9f005f9897000020a000a2
:10082000d09f9f000904e8000f003700c09f9f0081
:100830000000eb0005003700f2ff2700820f500098
:10084000020032006a01b900028040000904780009
:1008500088047800b900fb000103b100e98f500063
:10086000f5ff3600c09f9f00e0c2b300984f100014
:10087000020032000080eb0019003700a0c2b30074
:10088000d84f100007003a00cf8897000180e90098
:10089000c08f9f0010007800a09f9f000804e80010
:1008a000100037000000eb00a09f9f008800780038
:1008b00005003700f3ff2700830f500002003200cd
:1008c0006a02b90004004100010478008800780041
:1008d0003101fb000203b100e90f5100f5ff3600c2
:1008e000a09f9f00984478008900fb00802521008c
:1008f000350107000000e000020032000804e800b3
:10090000010037008044eb00c97f9f0080c6b30020
:1009100080cf540004003a0098cf14000a003a0037
:100920006640500006003700c0c6b30080cf5400b8
:1009300005003a0098cf140003003a0065404000db
:10094000c07f9f000804e8001801fb00e3fb2f00b4
:100950008f81410081f92f008f804000a0f92f0086
:100960000f004000100007000000e00009003a00fe
:10097000e1fb2f008f804000a0f92f000f00400006
:100980004c0207000000e000020035000804e80007
:1009900061ff37000080eb004f0578004f04be0078
:1009a0000080fa0000000600881f7800e4c6b3004b
:1009b000844f5100b600320010003c006b425200e0
:1009c000844f51001800320005003c0054c2b300af
:1009d000844f5100ee00320084c5b3000f00370091
:1009e00044c6b300844f51001400320065424200f7
:1009f000844f5100e9003a001000370004c7b300eb
:100a0000844f5100d500320053003500654242004a
:100a1000844f51005000320063424200844f510025
:100a2000de003a004c0037001181e90082087800ae
:100a3000f000900012417800d6003700206290004c
:100a4000c5c6b300854f520007003a0091027800f6
:100a500064825200840878001402be004fabde00ae
:100a6000860378001100370015c7b300854f520088
:100a700003003200a5c6b300854f520006003a00bd
:100a80009102780068825200840878005403be0006
:100a90004402be00050037001182e9008408780096
:100aa00014027800cfa2de00612bb9000498be00ca
:100ab0000690be00a060900088c6b30088cf5000aa
:100ac0000d00320028c6b30088cf500004003a0061
:100ad0000402fb00cfa2de00612bb9000800370042
:100ae00048c7b30088cf500003003200664444007a
:100af00088cf500004003a00cfa2de00612bb9007d
:100b00000498be000690be003002be002003be0066
:100b1000f0009000e00f5200e08f5a00e00f5b0001
:100b2000e08f5b0002003d00d4c2b3000800370034
:100b3000001290000418a30002003200b4c2b300f7
:100b4000030037000408a3004c00320004c2b300c5
:100b500084f178004700370020629000c5c6b300da
:100b6000854f520006003a009102780064825200dc
:100b7000840878001402be006033b800110037000a
:100b800015c7b300854f520003003200a5c6b3005d
:100b9000854f520006003a009102780068825200a8
:100ba000840878005403be004402be0005003700ec
:100bb0001182e90084087800140278008002eb00ba
:100bc0006033b8000498be000690be00a06090009c
:100bd00088c6b30088cf50000d00320028c6b3008d
:100be00088cf500004003a000482fb008002eb0032
:100bf0006033b8000800370048c7b30088cf500002
:100c0000030032006644440088cf500004003a00dc
:100c10008002eb006033b8000498be000690be006e
:100c2000801090000138a300140032003002be0092
:100c30002003be00e00f5200e08f5a00e00f5b007f
:100c4000e08f5b000d00320081c7b300814f51007f
:100c50000300320081c5b300814f510007003a0004
:100c6000f000900004c3b30084f178008100e80034
:100c700082f178008100e80071009800f000900097
:100c80008181410063009800824078003e00370077
:100c9000a0619000c4c6b3001181e90084cf510067
:100ca000220032000a003c006442520084cf51000e
:100cb0002500320004c2e80084cf51001300320046
:100cc0006842520084cf51001e003a000a003700eb
:100cd00044c7b30084cf51001b003200664242007b
:100ce00084cf5100180032006942520084cf510075
:100cf00014003a000500370082087800920078005e
:100d000040589000804878002c0037008208780016
:100d100092007800600a9000cfa2de00612bb9003b
:100d20008498be008690be002400370082087800b8
:100d30009200780060099000cf91de008288be00aa
:100d40001e0037001181e9008208780092007800c7
:100d50006008900080087800180037001181e900d1
:100d60008208780012027800cfa2de00612bb90061
:100d70000498be000690be00f00090008181410002
:100d80006300980081c7b3001b0007000b00370009
:100d9000f000900082f1780006003700f00090002b
:100da000818141000204e00001003a0052c2b30018
:100db000824978008100e800710098000000eb0093
:100dc0004f04780000000600020037000304e00032
:100dd000060032000001780002007800b04178007f
:100de00081cf5100f9ff3a00010037000001eb000c
:100df0000200780000000600fc874700889fbe00c4
:100e00008a9fbe008c9fbe008e1f7800000678006f
:100e100080c5b30080cf50000a0032007740400008
:100e200080cf50000a0032006940400080cf50005f
:100e30000b0032007024210080bf9f00ae00200014
:100e40000a0037006223210082bf9f00060037009e
:100e50007324210083bf9f008e0020000300370011
:100e60007424210084bf9f000e0120003c02be00bc
:100e70002c03be000605be000404be0040c6b3003d
:100e800080cf5000030032006540400080cf50000a
:100e90000b003a00e00f5200e08f5a00e00f5b00b9
:100ea000e08f5b0006003d006000b8006011b800f4
:100eb00004045000858458000605590087855900b0
:100ec000e80f57000400320040002000f00f5700e8
:100ed00038003a000100370030002000e00f5400d5
:100ee000e08f5c00e00f5d00e08f5d0004003a00e1
:100ef000dc0890008d0120000100e00006003200b7
:100f00008e00e900888060008fba9700e5c0780005
:100f1000f1ef9f007d012000800078008100e90052
:100f2000050033008b05d1000a85d3008984d300e6
:100f30000884d300f9ff3700089ebe000a96be0061
:100f4000120037008d06e9008e00e9008480600001
:100f50000fb99700e2c1780082fd2f000f01410018
:100f600003f17e00800078008100e9000500330075
:100f70008783d1000683d3008582d3000482d30007
:100f8000f9ff3700049ebe000696be003c02be007c
:100f90002c03be00e00f5200e08f5a00e00f5b0010
:100fa000e08f5b008b0034000d00e000e5ff3c00ab
:100fb000880037002c60900081c6b300814f50003c
:100fc0000b00320006003c000004e0000800320084
:100fd000e6c05000814f50004e003a000400370038
:100fe000c1c6b300814f50004a003a0021003700cb
:100ff0000800e00004003a005c0890008d01200029
:101000000000e00006003200110009000e84d80044
:101010000fb99700e2c07800f1ef9f007d0120003a
:10102000110009000e84d8000a00370011000900e1
:101030000e04d8008d06e9000e81b90002045400a8
:101040008fb8970061417c0081fd2f008f804000a8
:1010500082f07e00000478000800e0000200320008
:101060000d00e000f1ff3c00cfc4de00614db9008f
:1010700025003700e00f5400e08f5c0004003a00c8
:101080005c0890008d0120000000e00007003200a5
:101090006171b9000800be00630107008fb99700b5
:1010a000e3417800f3ef9f007d0120006171b900fa
:1010b0000800be004c0107000b0037006171b90049
:1010c0000800be00390107008d06e90000f1b900f3
:1010d000020454000fba9700e4427c0084fd2f0004
:1010e0000f02420005f27e000004be00e00f500037
:1010f000e08f5800020032000d00e000efff3c00de
:101100004fcdde008a057800089ebe000a96be001c
:1011100030003700e00f5400e08f5c00e00f5d000e
:10112000e08f5d0004003a005c0890008d01200013
:101130000000e000090032006172b900612bb900c3
:101140000800be000a01be00da0107000fba9700ce
:1011500064427800f4ef9f007d0120006172b900c5
:10116000612bb9000800be000a01be00ca010700d9
:101170000d0037006172b900612bb9000800be0094
:101180000a01be00cf0107008d06e90000f2b90098
:10119000040454008fba970065427c0085fd2f003f
:1011a0008f82420084f27e00009ebe000296be0046
:1011b0003c04be002c05be00e00f5400e08f5c0034
:1011c000e00f5d00e08f5d00020034000d00e000e4
:1011d000e8ff3c00e80f570010003a000c109000a8
:1011e0000038a3000d003200f78f560006003e00c5
:1011f00085fd2f008f824200e5c07e0000c3b30052
:1012000080cf5000050032008d06e90002c3b30014
:1012100081fd2f008f80400082f07e0078811600d3
:10122000120e98006c00900083fd2f008f8141000a
:101230008d804100e6fc07001c089000dc0890004f
:10124000810f500006003d0000805000000e980005
:101250000c1090000040a100001698000f0037000d
:101260000100e0000d003d008c109000f480600053
:10127000f08f500009003a007c099000fc009000bb
:10128000810051000c0990008280500000805000c5
:101290004240a90001003400000e98004f0778007a
:1012a0004f06be004f05be004f04be00cf01b10087
:1012b000000006000400fa00889fbe008a9fbe005e
:1012c0008c1f78000004780001067800f80d90006b
:1012d00078009000808555000808900080855500b2
:1012e00018089000808555002808900080855500da
:1012f000380890008085550048089000808555008a
:101300000002220090bf9f0000032300a0bf9f00a7
:10131000081090000028a30015003a000b00e00020
:10132000130034000b0578008a047800e20f5500a2
:101330000100360029002000c80190000901780052
:10134000ee80570058009000030001005004980000
:101350000000e0008c0032006808900009004000a6
:10136000600c9800090555004240a900eeff3c00c2
:10137000780190000200e0000c003400c8019000e9
:101380008c00780058009000030001005004980081
:101390008080eb000000e0007c003200e808900054
:1013a0007800900000804000600c9800880c90004d
:1013b0000900e0001100340009057800e28f5400b4
:1013c000010036002a002000c80190000a017800c0
:1013d000ec80570058009000030001005004980072
:1013e0000000e00068003200680890000a00400039
:1013f000600c98008a845400edff370018099000b3
:101400000200e0000c003400c8019000e8009000e9
:101410005800900003000100500498008080eb0009
:101420000000e00059003200e80890001808900021
:1014300000804000600c9800a80c90000900e000bb
:101440001100340009057800e28f540001003600d5
:101450002a002000c80190000a017800ec805700a3
:101460005800900003000100500498000000e000c4
:1014700045003200680890000a004000600c9800a7
:101480008a845400edff3700380990000200e00024
:101490000e003400e80090001808900080804000a2
:1014a000c80190005800900003000100500498000b
:1014b0008080eb000000e00034003200e80890007b
:1014c0003808900000804000600c9800c80c900024
:1014d0000900e0001100340009057800e28f540093
:1014e000010036002a002000c80190000a0178009f
:1014f000ec80570058009000030001005004980051
:101500000000e00020003200680890000a0040005f
:10151000600c98008a845400edff3700081090009a
:101520008000eb000028a300180032000b00e00050
:10153000160034008b04780009057800e28f54000f
:10154000010036002a002000c80190000a0178003e
:10155000ee805700580090000300010050049800ee
:101560000000e00008003200680890000a00400017
:10157000600c98008a8454004240a900eeff3c00b1
:101580008000eb00010037008080eb000100780054
:101590004f0678004f05be004f04be000080fa00e1
:1015a000000006000108780000000600839f680024
:1015b0000100e00002003d0060001000e080180023
:1015c0000300e00002003d0060011100e08119000d
:1015d000050007004f00e00002003b006000100023
:1015e000e0801800000006006022b800060220001b
:1015f0000000d0008180d2000482d2008582d20017
:101600000000a0000202520083825a000300310051
:101610000202420083824a000000a1000603e900a2
:10162000f3ff3a0000000600efff07000400be00d1
:1016300000000600889fbe008a9fbe003004420062
:10164000b0844a0030054b0090854b006000b1002b
:101650000898be000a90be000440e10005c8e10001
:1016600006d0e10007d8e100020031006800400028
:101670001008e8004f05be004f04be000000060041
:10168000889fbe008a9fbe003004be002005be00b9
:101690000418540005985c0006185d0007985d006a
:1016a000110020000440e10005c8e10006d0e1007f
:1016b00007d8e100010039008000eb00108810001d
:1016c0004f05be004f04be00000006001200fa00e5
:1016d000889fbe008a9fbe008c9fbe00e0b79f001f
:1016e000f1b79f0082bf9f0093bf9f000605be0019
:1016f0000404be000000eb00d0b79f00c0b79f00fd
:10170000b0b79f00a0b79f0090b79f000006eb0006
:101710005fb19700cfb09700820141003fb09700c2
:101720000200e00004003d00370007007e80570003
:10173000c0ff070003003700330007007e8057001a
:10174000cfff0700dfb697000d00e0000c0035006a
:101750006fb29700ffb297000fbb97009fbb970037
:1017600010002000010020006011b800000272008b
:101770008182720002037300838373001b000700e1
:101780000c06e80001042000810f5600e0ff3a003b
:101790000d00e00004003d000802be000a03be0088
:1017a0007e805700a3ff07005fa897000000e000bd
:1017b00005003a001fb29700afb297003fb3970001
:1017c000cfb39700090007006fb09700ffb09700f4
:1017d0000fb997009fb997004f06be004f05be0096
:1017e0004f04be000080fa00000006000100070060
:1017f00000000600a4b79f00b5b79f00c6b79f00c2
:10180000d7b79f00000006004f09de0082817100fb
:10181000b3b79f004f01de008180400082807000de
:10182000a1b79f008fb097004f09de000000400075
:101830000200700090b79f007fa897004f01de0064
:10184000818040008280700081b79f000d000700fa
:101850004f3ade000000400004007000f0af9f002f
:10186000080007000402420085824a0006034b007c
:1018700087834b00dfff07000802be000a03be009b
:10188000000006002fb29700bfb297004fb3970039
:10189000dfb3970000000600881f780018002000c2
:1018a000881f780089ff07008f87e9004f047800c0
:1018b00000000600801feb0084ff07008f87e9000f
:1018c00000000600889fbe008a9fbe00e00f500007
:1018d000e08f5800e00f5900e08f59000c003d00e8
:1018e0006044b8006055b8000000540081805c007e
:1018f00002015d0083815d001800200015000700d3
:1019000008003d00180007000004eb000500370048
:101910000004eb000f00070002003d00120007006a
:1019200018002000dcff07000800e000060032007d
:101930006022b8006033b8000000520081805a0075
:1019400002015b0083815b004f05be004f04be00b7
:1019500000000600e00f5200e08f5a00e00f5b002d
:10196000e08f5b00000006006044b8006055b800de
:101970000402540085825c0006035d0087835d00dd
:1019800000000600889fbe008a9fbe008c1f780062
:10199000e00f5000e08f5800e00f5900e08f590031
:1019a0000d003d006044b8006055b80000005400d0
:1019b00081805c0002015d0083815d001c002000cd
:1019c0000820e10009a8e1000ab0e1000bb8e1003d
:1019d0000d003d00080037000006eb00e00f52004c
:1019e000e08f5a00e00f5b00e08f5b0006003d00d7
:1019f0006044b8006055b8000402540085825c0061
:101a000006035d0087835d00aaff07000c00e0006d
:101a1000060032006022b8006033b80000005200b7
:101a200081805a0002015b0083815b004f067800d1
:0c1a30004f05be004f04be000000060081
:020000040000fa
:101a3c00120100000002000000000000000800007d
:101a4c00cdba0000010000000100000001020000fe
:101a5c00000100000902000020000000010100004c
:101a6c0000c0000032090000040000000002000069
:101a7c00000000000000000007050000010200004b
:101a8c0040000000ff07000005810000024000003c
:101a9c0000ff000004030000090400001e03000006
:101aac00420000006c000000610000006e000000ad
:101abc00630000006800000061000000720000007c
:101acc006400000020000000690000006e000000af
:101adc00630000002e0000000e03000065000000f3
:101aec00540000006f00000077000000650000004b
:101afc0072000000308d0000508d0000548d0000ed
:101b0c00728d00005265000061640000792e0000a7
:101b1c002e2e00000073000074610000747500002c
:101b2c0073000000527500006e6e0000696e0000bc
:101b3c0067200000757300006232000069320000fb
:101b4c00630a0000006c00006564000000430000a4
:101b5c006f6d00006d6100006e640000206e00006f
:101b6c006f74000020720000656300006f6e00004f
:101b7c00697a0000656400000a0000003c25000042
:081b8c00753e0000200000007e
:020000040000fa
:101b94000200fa009ec0a9008ac1a8000080eb00e0
:101ba400702088000080eb00502088002a24ef0079
:101bb400220020008000eb00c04220008afa0700c7
:101bc4002624ef002824ef000644a900f009200091
:101bd40080208800f00920006020880002c4a8004a
:101be4000804a800004021004800de00c02088004e
:101bf4000040eb00004f7800070037001e80fb0018
:101c0400c200dd0000402100008140006000b800f7
:101c14000089be001e4fe8001e407800e34f5000cc
:101c2400f6ff36001424a8001624ef0014a4a9001b
:101c34001424a9008000200050208800402721009f
:101c44008040eb0001487800a02721008040eb0091
:101c540001487800b027210090407800e0c060007f
:101c640001487800c027210090407800e0c060005f
:101c74000148780050208000680060000000e00007
:101c8400ecff3a0010c0b3001be8b70010c0b3006b
:101c94001ce8b7001d68ef001e68ef001568ef0030
:101ca4000040eb00004f7800150037001e80fb0059
:101cb40080004000c0802000008040008000eb00d5
:101cc400010878001e80fb00800040008080200016
:101cd400008040008000eb00010878001e80fb00bb
:101ce400f12721000041eb00827078001e80fb0088
:101cf400112821000041eb00827078001e4fe8009b
:101d04001e407800e14f5000e8ff360040402100bb
:101d140060408800d0002000502188003028210035
:101d240010a088000040210081c0b3000148780061
:101d34001040210041c0b300014878001040210048
:101d44009040780000c8b30080c0700010402100ab
:101d5400014878000268ef002028ef002228ef00f5
:101d64002468ef000028ef000080fa00000006005d
:101d74000200fa00004080000000e00012003a0077
:101d84001424ef000c24ef002624ef002824ef0095
:101d94000644a900f009200080208800f0092000f2
:101da4006020880002c4a800010037001404a800c1
:101db400a0208000610060000000e000fbff320012
:101dc400100020000040880000408000e10f500017
:101dd4000c003a00a1208000000420000080600074
:101de4000000e00007003a000080eb00502088006b
:101df4000c24ef000c04a8000c84a8002000200090
:101e04000040880000208000700060000000e000b6
:101e14000700320010208000700060000000e00025
:101e24000300320000012000002088003304070072
:101e340040208000620060000000e00002003200e8
:101e44008ec0a9007b003700502080006100600034
:101e54000000e000090032006020800061006000a2
:101e64000000e0000500320049ff070040002000a8
:101e7400004088001000200050208800502080007e
:101e8400700060000000e000050032006020800067
:101e9400700060000000e000010032000a04070046
:101ea4000120800000042000008060000000e000a9
:101eb40003003200000420000020880047060700c9
:101ec40050208000640060000000e0001400320034
:101ed40060208000640060000000e0000400320024
:101ee400120020008000eb0030072000a607070046
:101ef400400020005020880019c8bf000004e00002
:101f04000300320019c8bf000040e90019e8b70017
:101f140019c8bf000004e00001003a0026010700d0
:101f24005120800000082000008060000000e000d4
:101f3400060032006120800000082000008060005c
:101f44000000e00001003200c203070050208000be
:101f5400620060000000e0000c003200602080009d
:101f6400620060000000e00008003200120020005f
:101f74008000eb00f0ff2700830707000080eb00e0
:101f8400702088002000200050208800004080003d
:101f9400e30f500002003e008ec0a9002500370068
:101fa40060208000680060000000e0002000320033
:101fb4000040eb00004f78001800370050208000ec
:101fc400680060000000e0001800320090208000eb
:101fd4000040780016e8b70016c8bf000080fb0078
:101fe4004400de000040780017e8b70080002000bd
:101ff4005020880017c8bf000004e00002003a0027
:10200400ca030700040037000001eb0061812000cf
:10201400200720005c0707001e4fe8001e407800e0
:10202400e34f5000e5ff36000100370000000000d8
:102034008ec0a9000080fa00000006000400fa0027
:1020440020479800314798003e4090000080fb00f4
:10205400680060000000e000030032008040eb00f4
:102064002e409000360107003e4090000080fb00a7
:10207400640060000000e0000300320011c0b300ff
:102084002e4090002e010700a14220002e40900017
:102094000080fb0000004000008f40001e0078001c
:1020a400be409000014878000080fa00000006005d
:1020b4000800fa002047980031479800220798004a
:1020c400634798003e4090000004e000070032009f
:1020d4002e4090000080fb0080004000c080200063
:1020e40000804000100f7800060037002e4090005a
:1020f4000080fb00800040008080200000804000c1
:10210400100f78001e0078000000e00002003a0082
:102114000000eb003b0037001e0078009040900068
:1021240000c4b30080c068001e007800114098000d
:10213400ae0090001e007800110098001e00780088
:10214400ee409000014878001e0078001040900096
:1021540002c4b300824060001e0078001140980061
:102164001e00780010409000804078000134a000e8
:102174001e007800114098001e00780090409000e6
:1021840000c8b30080c070001e00780011409800a1
:102194003e4090000004e0000d0032002e4090000c
:1021a4000080fb00ae4090008180fb000181400074
:1021b400c1802000810041009100780000014000ae
:1021c400c080200000004100010878000c003700a6
:1021d4002e4090000080fb00ae4090008180fb0008
:1021e400018140008180200081004100910078003d
:1021f40000014000808020000000410001087800b8
:102204001e0078000080fa00000006000400fa00b6
:1022140020479800314798002e4090000004e000c9
:1022240019003a003040800081c0b30001487800b2
:102234003040800031282100110098003040800097
:10224400c1c0b3001140980030408000314080008c
:102254001141900001c8b300814071001140980001
:102264006040800041c0b30011409800604080008d
:10227400614080001141900001c8b30081407100a9
:1022840011409800160037002e4090000080fb009b
:1022940000004000800078003e4090000080fb0079
:1022a40000804000c200dd0000402100008f40009b
:1022b4001e00780010409000804078000124a000a7
:1022c4001e007800114098001e0078009040900095
:1022d40000c8b30080c070001e0078001140980050
:1022e4000080fa00000006000200fa00004f7800a7
:1022f400a120800000022000008060000000e000b7
:102304002b0032001e80fb0080004000c0802000b3
:1023140000804000100278001e80fb008000400016
:10232400c080200000804000100078001001be0032
:1023340000042000010020008202780003017800dc
:10234400800178000100780083826200000061004f
:102354008000eb00c000dd00000020000001be0092
:102364006128b8000001710081817100028abe00f9
:102374001e80fb0080004000c080200000804000e0
:10238400100278001e80fb0080004000c080200006
:1023940000804000100078001001be0000042000fe
:1023a400010020000000690081806900008abe00ed
:1023b4000080fa00000006000000fa001bc8bf00fd
:1023c4000004a2000004e0002500320010c0b300a5
:1023d4001be8b7001cc8bf000004a2000004e00012
:1023e4001f00320010c0b3001ce8b70011c8bf00c2
:1023f400e24f50000d003a00604080008040eb0046
:10240400014878006040800081c4b3001140980006
:1024140060408000614080001141900001c8b30019
:1024240081407100114098000d00370011c8bf00b1
:10243400e14f50000a003a001868ef003040800075
:1024440081c0b30001487800304080003128210069
:10245400110098003040800001c8b300114098007a
:102464000080fa00000006000000fa001d68ef007a
:102474001e68ef0011c8bf00e24f500010003a0080
:102484003040800081c0b3000148780030408000b3
:10249400b1282100110098003040800081c4b300ad
:1024a400114098003040800031408000114190007c
:1024b40001c8b30081407100114098001e0037002c
:1024c400902821001080fb00a12821009180fb00ae
:1024d400c808dd000100700080007800b09380001f
:1024e400808f500007003100902821001080fb00ed
:1024f400a12821009180fb00c808dd0001007000c4
:10250400b09388009500070060408000b128210046
:10251400110098006040800081c4b300114098000d
:1025240060408000614080001141900001c8b30008
:1025340081407100114098000080fa0000000600fc
:102544000400fa0020479800314798000040210019
:10255400000f78002e4090000080fb000000400037
:10256400800078003e4090000080fb000080400026
:102574004200dd001e0f40009e007800110078002c
:1025840000f0a100800878003e4090000004e000c4
:1025940007003a002e4090000080fb0080004000bd
:1025a40080802000008040001e087800060037006c
:1025b4002e4090000080fb0080004000c08020007e
:1025c400008040001e0878009e007800110078000a
:1025d40000e0a000800878000080fa0000000600f7
:1025e4000000fa0014a4a900a193800000082000b0
:1025f400008060000000e00029003a00a0272100cc
:102604009040780000c8b30000c060000004e000ff
:102614000a00320020c0b30011e8b7001ec8bf0092
:102624000004a2000004e000010032008eff070055
:102634001c68ef001b68ef00460037003040800044
:1026440081c0b30001487800304080003128210067
:102654001100980030408000c1c0b30011409800c0
:1026640030408000314080001141900001c8b30027
:1026740081407100114098006040800041c0b30067
:10268400114098006040800061408000114190003a
:1026940001c8b30081407100114098002d0037003b
:1026a400302821009040780000c8b30000c06000ca
:1026b4000004e0000f00320010c0b30011e8b700be
:1026c4001dc8bf000004a2000004e00001003200a5
:1026d40065ff07001c68ef001b68ef001ac8bf0005
:1026e4000004a2000004e0001a00320032ff0700d8
:1026f4001800370020c0b30011e8b7003040800054
:1027040081c0b300014878003040800031282100a6
:10271400110098003040800041c0b300114098007f
:1027240030408000314080001141900001c8b30066
:1027340081407100114098001c68ef001b68ef0095
:102744001ac8bf000004a2000004e0000100320027
:1027540019ff07000080fa00000006000200fa00da
:1027640080c0b300004f7800b0938000e70f5000a2
:102774000d003e00b0938000004f780010c8bf00e9
:102784000004e00003003a0010c0b30010e8b700f2
:102794000500370010c8bf00e14f500002003a00a6
:1027a40020c0b30010e8b700b19380001e80fb0086
:1027b40000805000b0938800604080001e4878007c
:1027c400b028210090408800a09380006100600040
:1027d4000000e00017003a00090037009140800033
:1027e4009093800010417800824878008100e800ce
:1027f400914088000000e800909388001e4fe90093
:102804001e4078000004e000f4ff3a000c0037009a
:1028140091408000909380001041780082487800b5
:102824008100e800914088000000e800909388004f
:102834001e4fe9001e4078000004e000f4ff3a0057
:102844000080fa00000006000200fa002040800028
:10285400104f78009e80fb00b02721001080fb0001
:10286400c22721001281fb004811dd000200700024
:10287400808f500007003600b02721001080fb0035
:10288400c12721009180fb00c808dd000100700011
:10289400004f7800b02721001080fb00c1272100e1
:1028a4009180fb00c808dd00010070008000780002
:1028b4001e80fb0000805000f10f20000101600029
:1028c400b127210091417800e0c1610002c171008b
:1028d40082487800c800de00c0272100104178003b
:1028e4006041610081407100014878000040eb00c4
:1028f400104798001c003700802721001080fb003f
:10290400912721009180fb00c808dd0001007000c0
:102914009e4090008180fb00b2282100e2c0780034
:10292400014878000000e800f10f20000101600078
:102934008127210091417800e0c1610002c171004a
:1029440082487800c800de009027210010417800fa
:102954006041610081407100014878001e40900090
:102964000040e800104798001e4090009e4f500021
:10297400e1ff3900b02721001080fb00c1272100ae
:102984009180fb00c808dd00010070000000e00039
:10299400200032003040800081c0b300014878003c
:1029a40030408000b12821001100980020408000b0
:1029b4009000780000002400008060000000e00027
:1029c4000a003a003040800081c4b30011409800ee
:1029d40030408000314080001141900001c8b300b4
:1029e4008140710011409800310037003040800070
:1029f40081c0b30011409800304080003140800015
:102a04001141900001c8b300814071001140980049
:102a1400270037003040800081c0b30001487800af
:102a2400304080003128210011009800304080009f
:102a340041c0b30011409800304080003140800014
:102a44001141900001c8b300814071001140980009
:102a5400d02721001080fb00e12721009180fb009a
:102a6400c808dd00010070000000e000070032002b
:102a7400d02721001080fb00e12721009180fb007a
:102a8400c808dd000100700000000100a12721003a
:102a9400114078000070a100804878001ac8bf0077
:102aa4000004a2000004e0000100320042fe07001e
:102ab4000080fa00000006000200fa00a0938000e3
:102ac4000070a000a0938800220020008000eb008a
:102ad400c0422000c4f60700020120008000eb0081
:102ae40000402100c0f607001424a8000040eb00b9
:102af400004f7800090037001e80fb00f1272100f9
:102b04000041eb00827078001e80fb001128210038
:102b14000041eb00827078001e4fe8001e407800f0
:102b2400e14f5000f4ff3600120020008000eb005b
:102b340030802000acf607001424a9004040210096
:102b44006040880000402100204088002040800030
:102b540030408800502821001040780002e8b70077
:102b640002c8bf000004e00003003a000001200096
:102b74000040880006003700120020002180200059
:102b8400100020008004070000022000004088009c
:102b94000080fa00000006000000fa00302821003e
:102ba4009040780000c8b30080cf500047003a003e
:102bb4004027210001ccb30001487800602821009f
:102bc400104078000080fb00e20f50000900320042
:102bd400e30f500023003200e10f500037003a00a9
:102be400e0d128009093880020012000b093880051
:102bf4003600370050282100104078000004e0001f
:102c040014003a0050282100104078000080fb0096
:102c1400000040008000780000d8280000804000b8
:102c24001000780090938800909380000080e80062
:102c3400904078006027210001487800909380003c
:102c4400630040009040780070272100014878001c
:102c54001e003700402721008040eb000148780027
:102c64001a0037005028210010407800e24f50002d
:102c74000e003e0050282100104078000080fb0028
:102c8400000040008000780020d828000080400028
:102c94001000780090938800909380001040780092
:102ca4000080fb00b0938800080037004027210013
:102cb4008040eb00014878000400370040272100e1
:102cc4008040eb0001487800000000000080fa001a
:102cd400000006000200fa00b02821008040eb004a
:102ce40001487800c02821008040eb0001487800aa
:102cf40030282100904078007fc060000080fb00f5
:102d0400e10f500011003200e20f500013003200b6
:102d14000000e00040003a00a09380000070a00092
:102d2400a093880014c8bf000004e00035003200fe
:102d3400b028210010407800804078000114a000e1
:102d4400b02821000148780033003700a0938000a8
:102d54000070a000a09388002f003700a09380008b
:102d64000070a000a0938800702821009040780093
:102d740000c8b30000c060000004e00009003a008d
:102d840070282100904078006fc060000080fb0034
:102d9400800040008080200000804000100f7800f8
:102da4000800370070282100904078006fc0600050
:102db4000080fb0080004000c080200000804000b4
:102dc400100f78001e0078009000780000002800a2
:102dd400008060000000e0000c0032001e0078005b
:102de4009000780000402000008060000000e000b7
:102df40008003200b028210011c0b3000148780057
:102e04000500370000000000030037000000000048
:102e14000100370000000000a1938000000820009a
:102e2400008060000000e00008003200b0282100ab
:102e340090938800a09380000000a000a0938800d5
:102e44006027210021c0b300014878000080fa0007
:102e5400000006000000fa005021800062006000bb
:102e64000000e000140032002040800090409000f8
:102e740000c8b30080cf50000e003a0060408000cc
:102e84009040900040c8b30080cf500009003a0041
:102e940020408000c1c0b300114098002040800051
:102ea400214080001141900001c8b30081407100ad
:102eb400114098002a24a90000082000502088000e
:102ec4000080fa00000006000000fa000284a80056
:102ed400000120005020880010c0b30015e8b7009e
:102ee4002468ef000001eb008000eb005007200095
:102ef400a50307000080fa00000006000000fa00a5
:102f04001568ef000001eb008000eb004007200093
:102f14009d0307000284a90000012000002088000e
:102f24002468ef000080fa00000006000000fa00a8
:102f340040c6b30019e8b70016c8bf008080fb0084
:102f4400b0ff2f00008060000000e0001e003a0087
:102f540016c8bf000080fb004200de00004078007d
:102f64000080fb00c200dd00004021000080400022
:102f7400204088002040800030408800304080009d
:102f840030408800204080009000780000c023007a
:102f94008080600000402300808f500008003a00c9
:102fa4002040800010009000820020008000780003
:102fb4003028210085f507000c00070009003700c0
:102fc4003c0007000700370016c8bf008080fb00e4
:102fd400b0ff2f0000806000e80f500001003a00ad
:102fe400520007000080fa00000006000000fa000a
:102ff4001068ef001a68ef001d68ef001e68ef000c
:103004001868ef001168ef006040800061408000a4
:10301400914090000174a10011409800604080002c
:1030240060408800604080006140800091409000d2
:103034000174a10011409800604080006040880045
:103044003040800031408000914090000174a10024
:1030540011409800402721008040eb00014878008f
:103064000000eb00b0938800a02721008040eb0013
:1030740001487800b027210090407800e0c060004b
:1030840001487800c027210090407800e0c060002b
:1030940001487800850007000001eb008000eb0088
:1030a40030002000380307004dfd07000080fa00bf
:1030b400000006000000fa0011c8bf00e24f5000f3
:1030c40002003a00e0fd0700160037001168ef0027
:1030d40018c8bf000004a2000004e0001000320081
:1030e4003040800081c0b300014878003040800047
:1030f400312821001100980030408000c1c0b30085
:10310400114098003040800031408000114190000f
:1031140001c8b300814071001140980001003700dc
:103124001868ef000080fa00000006000200fa00b0
:1031340060408000100078004e00de0061406000b6
:10314400004f7800604080006040880000408000ac
:10315400e80f50000e003a0050282100104078007b
:103164008080fb00f007200000806000b020880011
:10317400b02080000000e0000300320000012000c5
:103184000040880002003700400020000040880012
:1031940011c8bf00e14f500028003a006040800091
:1031a400b1282100110098006cfd070010c8bf0071
:1031b400e24f50000a003a006040800041c0b30072
:1031c40011409800604080006140800011419000ef
:1031d40001c8b300814071001140980031003700ec
:1031e4001e4078000004e0000a003a0060408000bd
:1031f40081c4b300114098006040800061408000a9
:103204001141900001c8b300814071001140980041
:10321400240037006040800081c0b3001140980052
:1032240060408000614080001141900001c8b300fb
:1032340081407100114098001a003700a027210036
:103244009040780000c8b30000c060000004e000b3
:1032540013003200d02721001080fb00e127210059
:103264009180fb00c808dd00010070000000e00050
:1032740007003200d02721001080fb00e127210045
:103284009180fb00c808dd0001007000000001000f
:10329400a1272100114078000070a1008048780027
:1032a4001168ef000080fa00000006000000fa0038
:1032b40030282100104078000046b2000004e000ed
:1032c40051003a0040282100104078000080fb00a3
:1032d400cf80de00b200200003002000820f5000e7
:1032e400838f58004a003e0000600100210037002f
:1032f400220037004800370020003700460037001e
:10330400060037000b0037003a0037000d00370085
:103314000a0037001b0037002a003700a093800002
:103324000070a000a0938800800020000040880066
:103334003a00370018fe070038003700defd0700aa
:10334400360037002080200090938800a0938000ee
:103354000000a000a09388006027210011c0b300e2
:1033640001487800a09380000070a000a09388001a
:103374002a00370057fe07002800370029000700fd
:103384002600370070282100104078008080fb0060
:10339400308020000080400090938800a09380003b
:1033a4000000a000a09388006027210011c0b30092
:1033b40001487800a09380000070a000a0938800ca
:1033c40016003700a09380000070a000a09388002e
:1033d40070282100104078000081fb005028210053
:1033e40090407800308020000000410001487800bf
:1033f4000a0037000001eb008000eb0020002000f1
:1034040061020700050037000000000003003700d8
:103414000000000001003700000000000080fa00f6
:10342400000006000600fa00502821001040780031
:10343400e14f500010003a0030282100104078007d
:103444007f4060000004e0000b003a00a09380007d
:103454000070a000a093880040282100104078004c
:10346400e34f500003003a0010c0b30014e8b70063
:10347400010037001468ef00502821001040780044
:103484000004e000d3003a00302821001040780006
:103494007f406000e24f5000ce003a0070282100c7
:1034a400104078006f4060000004e000c900320062
:1034b40070282100904078006fc060000080fb00fd
:1034c400e10f5000c3003c000140800000022000d6
:1034d400808f5000bf003a00a09380000070a000cd
:1034e400a0938800702821009040780000c8b300a1
:1034f40000c060000004e00010003a0070282100c1
:10350400104178006f4061000080fb0080004000a3
:103514008080200000804000100f78007028210077
:10352400904078006fc060000080fb0011282100eb
:1035340061407800404798000f0037007028210050
:10354400104178006f4061000080fb008000400063
:10355400c080200000804000100f780070282100f7
:10356400904078006fc060000080fb00f1272100cc
:10357400614078004047980070282100904078000e
:1035840000c8b30000c060000004e0000a003a0074
:1035940070282100104178006f4061000080fb001a
:1035a4009e0078000001400080802000000041005f
:1035b4000108780009003700702821009040780045
:1035c4006fc060000080fb009e0078000001400096
:1035d400c08020000000410001087800402821003c
:1035e40010407800e34f50002c003a001e00780091
:1035f4009000780000002800008060000000e000d7
:1036040019003200702821009040780000c8b300ef
:1036140000c060000004e0000a003a0070282100a5
:10362400104178006f4061008080fb001028210069
:1036340080804000114078000010a000804878008d
:103644000900370070282100904078006fc06000a6
:103654008080fb00f027210080804000114078002a
:103664000010a000804878001e00780010409000f0
:10367400804078000124a0001e00780011409800ca
:103684001e0078009040900000c8b30080c0700015
:103694001e007800114098004e0037004e40900004
:1036a400624060000004e00006003a001e0078005a
:1036b4009000780000002800008060000000e00016
:1036c4002a003200702821009040780000c8b3001e
:1036d40000c060000004e0000a003a0070282100e5
:1036e400104178006f4061008080fb0010282100a9
:1036f40080804000114078000010a10080487800cc
:103704000900370070282100904078006fc06000e5
:103714008080fb00f0272100808040001140780069
:103724000010a100804878001e007800104090002e
:10373400b2c7b300824060001e00780011409800b8
:103744001e0078009040900000c4b30080c0700058
:103754001e00780011409800220020009e0078008e
:1037640050002000880107000c0037001e0078007c
:1037740010409000b2c7b300824060001e00780081
:10378400114098001e0078009040900000c4b300df
:1037940080c070001e00780011409800a1422000f3
:1037a40070282100104178006f4061000080fb0008
:1037b4000000400000804000100798001e009000a8
:1037c40090407800d0cfb30080c060001e0090000d
:1037d400014878000080fa00000006000000fa00aa
:1037e400004180001141800061004000e0804800f9
:1037f400004188001141880015c8bf000004a200e0
:103804000004e0000800320024c8bf000040e800c3
:1038140024e8b70024c8bf000004e00002003a0016
:1038240000c0eb0024e8b7000080fa0000000600a6
:103834000000fa0000418000114180000080fa007d
:10384400000006000200fa00604180000000e00071
:1038540006003a0003c4b300220d21008040eb00af
:1038640010c0b30012fa0700604188006041800074
:103874000000e00006003200604180009000780003
:1038840000002800008060000000e0002d003a00e5
:10389400704080000000e0002a00320050408000a8
:1038a40010407800004278008041eb002211210092
:1038b4008040eb00200d2100940007005040800060
:1038c4009040780020132100014878005040800087
:1038d400104078000f04b00001fc2f008f804000de
:1038e400220d21001f000900b21878000104b10064
:1038f400160007000f04b1000040eb00004f7800f1
:10390400060037009e80fb00200d2100008040004f
:1039140010407800450107001e4fe8005040800029
:10392400104078009e4f5000f6ff3e0003c4b300e1
:10393400220d21008040eb0010c0b300dcf9070029
:10394400604188000080fa00000006000400fa00cc
:103954002047980027c8bf008080fb002004200077
:103964000088b90080007800408520000080400075
:10397400a1fb2f00810047001f00090031187800c7
:103984000004b10027c8bf008080fb002004200091
:103994000088b90080007800208520000080400065
:1039a4002e419000024878007182200091407800f6
:1039b400014f780027c8bf000040e80027e8b7009f
:1039c40027c8bf00ff4f5000010036002768ef00f2
:1039d400718220009140780028c8bf0080cf500039
:1039e40003003a009e40780072822000014978006a
:1039f4000080fa00000006000000fa005041800038
:103a04000000e00006003200504180009000780081
:103a140000002800008060000000e00039003a0047
:103a2400504080000000e000360032008182200017
:103a34009140780027c8bf0080cf50002b0032008f
:103a440028c8bf008080fb00200420000088b90043
:103a5400800078002085200000804000104178001c
:103a640028c8bf008080fb00200420000088b90023
:103a7400000078008080e80020852000008040005d
:103a8400024278008041eb00220921008040eb00d3
:103a94001e00070028c8bf008080fb00200420000f
:103aa4000088b90080007800208520000080400054
:103ab40010407800804178002209210011c0b30031
:103ac40010c0b3007af907005041880028c8bf002d
:103ad4000040e80028e8b70028c8bf00ff4f5000a6
:103ae400080036002868ef00060037008041eb002c
:103af4002209210011c0b30010c0b3006cf9070003
:103b0400504188000080fa00000006000a00fa0014
:103b1400100798004147980032079800034f980017
:103b2400144f98000040eb00004f78000f0037005e
:103b34009e80fb000e4890000080fb000080400047
:103b4400be009000008040001e81fb00ce4090002b
:103b54008180fb00810041001e0190008100410032
:103b640091407800014878001e4fe8001e489000fc
:103b74009e40780080cf5000edff39000080fa00ad
:103b8400000006004600fa001027980041c798007c
:103b94000040eb00004f78001c0037004ec090003e
:103ba4008080fb001e80fb00008050000104200088
:103bb400810f5000010034000004200010479800d9
:103bc4001e2090008e80e8001e4290008041eb0091
:103bd400010178009e407800ccff07001e40900051
:103be4001e4f40000f04b00000fc2f000f004000e7
:103bf400e20047001f000900311878000004b100fa
:103c04001e40900051ff07000f04b1004ec0900009
:103c14009e40780080cf5000e0ff39000080fa0019
:103c2400000006000000fa0057010700d8f707005b
:103c340081c0b30080d82800d2ff07000400070029
:103c44004bf80700fffe07006bff0700fbff370080
:103c54000000fa00904180000000e80090418800d4
:103c640091418000007d2000808f500010003600bc
:103c74003228ef00200c80006400600000f0a700f0
:103c84000000ea000000e9004f00de000040780078
:103c94000080fb00610060004200dd00220c800017
:103ca400b1ff2f008100610001007000200c88002a
:103cb4000080fa00000006003000fa006017980047
:103cc400711798000e80e800800078006e10900054
:103cd400b1000700000f78001e0078001040780043
:103ce4000004e00002003a000000eb00240037006a
:103cf4001e0078008000780010d928004bf20700dd
:103d04000000e00004003a0081d928007e109000f1
:103d1400d20007001a0037001e00780080007800e7
:103d240090da280041f207000000e00011003a0098
:103d3400200c80006800600000f0a7000000ea008a
:103d44000000e9004f00de00004078000080fb0026
:103d5400610060004300dd00220c800071ff2f0031
:103d64008100610001007000200c88000000eb005d
:103d740003003700d1da28007e109000b700070056
:103d84000080fa00000006000600fa00000f780028
:103d940011079800220798001e00780021072000d0
:103da400810f50001500320021072000810f5000c0
:103db40007003e00e20f500012003200e20f5000f4
:103dc40012003e00e10f50000800320014003700da
:103dd40041072000810f50000e00320041072000ef
:103de400810f50000d0039000d003700d1c1b30020
:103df40010c0b30091f8070009003700000000006c
:103e04000700370000000000050037000000000034
:103e1400030037000000000001003700000000002c
:103e240010c0b3000080fa00000006000200fa008f
:103e3400004f78001e80fb00e80f500003003200a2
:103e4400ed0f500008003200190037008041800057
:103e54000000e0001e003200804180000000e90004
:103e6400804188001b003700804180001e4178009b
:103e74006113210082707800804180000000e80016
:103e84008041880080418000611321000041eb00e3
:103e94008270780060132100190007003028ef00b9
:103ea400601321008040eb000148780009003700ce
:103eb400804180001e4178006113210082707800e7
:103ec400804180000000e800804188000100370044
:103ed4000000000081418000f00f2000808f50001e
:103ee400050036003028ef00601321008040eb000d
:103ef40001487800000000000080fa00000006007d
:103f04000401fa00100799000040eb0010479800e4
:103f14000e00e800800078001e00910066ff070094
:103f2400004f78000e00e800110007007041800087
:103f34000000e800704188000040eb001047980042
:103f4400714180000e00e800811f780041dc2800e8
:103f5400811f7800d2f10700e4875700004f7800f2
:103f64000e00e800020007000080fa0000000600ce
:103f74000400fa00100798001e009000bbf107002f
:103f8400004f78001e0090009e407800fdfe070060
:103f94000080fa00000006000600fa0010079800ee
:103fa40021079800030037001e0090000000e8007d
:103fb400100798001e0090009040780000c2b300e3
:103fc40080cf500004003e001e0090001040780096
:103fd4000004e000f4ff3a009e009000010f780016
:103fe400030037001e0090000000e800100798004e
:103ff4001e0090009040780000c2b30080cf5000b3
:10400400040036001e009000104078000004e00018
:10401400f4ff3a001e009000104078000004e00015
:1040240004003a002e0090009e00900001087800e1
:10403400070037001e0090008040eb000148780024
:104044001e0090008000e8002e0090000108780017
:104054001e0078000080fa00000006000800fa0044
:1040640020079800310798002e0090007ff1070088
:10407400000f78003e0090007cf1070010079800c4
:10408400f00f20009e0050001e009000808f500012
:1040940006003900be0090002e00900059f1070080
:1040a4001e0090001e004000010037001e00780032
:0840b4000080fa000000060084
:020000040000fa
:1040bc0032080000020000008000000072120000b4
:1040cc002200000080000000000800002600000014
:1040dc0080000000001400001000000080000000b0
:1040ec0034080000020900008000000026080000cf
:1040fc0008000000800000003611000000010000e4
:10410c00800000002e080000040000008000000069
:10411c00581200001a00000082000000686a6c004f
:10412c00747a4c000000010000020000040008003a
:10413c0000100000000020002b2d23003000000098
:10414c0036120000220000008200000030313200e4
:10415c00333435003637380039414200434445008a
:10416c0046003000313233003435360037383900f0
:10417c006162630064656600000000000c21800031
:020000040000fa
:10418c000000fa009221ef008041a9008061a90093
:10419c00001a2000402888000065a80001e5a8004e
:1041ac000345a8008a61a90001088000f00b2000db
:1041bc0000816000600420007105200003102000c5
:1041cc00804978008149780082497800f11e80008e
:1041dc0000fc2f00008060003000b300f01e88004f
:1041ec000108800000042000010170006004200020
:1041fc007105200003102000804978008149780067
:0c420c00824978000080fa0000000600e3
:020000040000fa
:0442180000000000a2
:020000040000fa
:020000040002f8
:04aff0003f420000dc
:020000040000fa
:020000040002f8
:04aff400ffef00006b
:020000040000fa
:020000040002f8
:04aff8009fb90000fd
:020000040000fa
:020000040002f8
:04affc003f3f0000d3
:00000001FF
